{"contracts/DAOTreasury.sol":{"DAOTreasury":{"abi":[{"inputs":[{"internalType":"address","name":"_token","type":"address"}],"stateMutability":"nonpayable","type":"constructor"},{"inputs":[{"internalType":"address","name":"owner","type":"address"}],"name":"OwnableInvalidOwner","type":"error"},{"inputs":[{"internalType":"address","name":"account","type":"address"}],"name":"OwnableUnauthorizedAccount","type":"error"},{"anonymous":false,"inputs":[{"indexed":true,"internalType":"address","name":"sender","type":"address"},{"indexed":false,"internalType":"uint256","name":"amount","type":"uint256"}],"name":"Deposited","type":"event"},{"anonymous":false,"inputs":[{"indexed":true,"internalType":"address","name":"previousOwner","type":"address"},{"indexed":true,"internalType":"address","name":"newOwner","type":"address"}],"name":"OwnershipTransferred","type":"event"},{"anonymous":false,"inputs":[{"indexed":true,"internalType":"uint256","name":"proposalId","type":"uint256"},{"indexed":false,"internalType":"address","name":"proposer","type":"address"},{"indexed":false,"internalType":"string","name":"description","type":"string"},{"indexed":false,"internalType":"address","name":"recipient","type":"address"},{"indexed":false,"internalType":"uint256","name":"amount","type":"uint256"}],"name":"ProposalCreated","type":"event"},{"anonymous":false,"inputs":[{"indexed":true,"internalType":"uint256","name":"proposalId","type":"uint256"}],"name":"ProposalDeleted","type":"event"},{"anonymous":false,"inputs":[{"indexed":true,"internalType":"uint256","name":"proposalId","type":"uint256"},{"indexed":false,"internalType":"address","name":"recipient","type":"address"},{"indexed":false,"internalType":"uint256","name":"amount","type":"uint256"}],"name":"ProposalExecuted","type":"event"},{"anonymous":false,"inputs":[{"indexed":true,"internalType":"uint256","name":"proposalId","type":"uint256"},{"indexed":false,"internalType":"address","name":"voter","type":"address"},{"indexed":false,"internalType":"bool","name":"support","type":"bool"},{"indexed":false,"internalType":"uint256","name":"weight","type":"uint256"}],"name":"Voted","type":"event"},{"inputs":[],"name":"MINIMUM_DEPOSIT_FOR_PROPOSAL","outputs":[{"internalType":"uint256","name":"","type":"uint256"}],"stateMutability":"view","type":"function"},{"inputs":[],"name":"MINIMUM_TOKENS","outputs":[{"internalType":"uint256","name":"","type":"uint256"}],"stateMutability":"view","type":"function"},{"inputs":[],"name":"VOTING_PERIOD","outputs":[{"internalType":"uint256","name":"","type":"uint256"}],"stateMutability":"view","type":"function"},{"inputs":[{"internalType":"string","name":"description","type":"string"},{"internalType":"address","name":"recipient","type":"address"},{"internalType":"uint256","name":"amount","type":"uint256"}],"name":"createProposal","outputs":[],"stateMutability":"nonpayable","type":"function"},{"inputs":[{"internalType":"string","name":"description","type":"string"},{"internalType":"address","name":"recipient","type":"address"},{"internalType":"uint256","name":"amount","type":"uint256"},{"internalType":"uint256","name":"votingDurationMinutes","type":"uint256"}],"name":"createProposal","outputs":[],"stateMutability":"nonpayable","type":"function"},{"inputs":[{"internalType":"uint256","name":"proposalId","type":"uint256"}],"name":"deleteProposal","outputs":[],"stateMutability":"nonpayable","type":"function"},{"inputs":[{"internalType":"uint256","name":"amount","type":"uint256"}],"name":"deposit","outputs":[],"stateMutability":"nonpayable","type":"function"},{"inputs":[{"internalType":"uint256","name":"proposalId","type":"uint256"}],"name":"executeProposal","outputs":[],"stateMutability":"nonpayable","type":"function"},{"inputs":[],"name":"getMinimumDepositForProposal","outputs":[{"internalType":"uint256","name":"","type":"uint256"}],"stateMutability":"pure","type":"function"},{"inputs":[],"name":"getTreasuryBalance","outputs":[{"internalType":"uint256","name":"","type":"uint256"}],"stateMutability":"view","type":"function"},{"inputs":[{"internalType":"address","name":"user","type":"address"}],"name":"getUserDeposits","outputs":[{"internalType":"uint256","name":"","type":"uint256"}],"stateMutability":"view","type":"function"},{"inputs":[],"name":"owner","outputs":[{"internalType":"address","name":"","type":"address"}],"stateMutability":"view","type":"function"},{"inputs":[],"name":"proposalCount","outputs":[{"internalType":"uint256","name":"","type":"uint256"}],"stateMutability":"view","type":"function"},{"inputs":[{"internalType":"uint256","name":"","type":"uint256"}],"name":"proposals","outputs":[{"internalType":"uint256","name":"id","type":"uint256"},{"internalType":"address","name":"proposer","type":"address"},{"internalType":"string","name":"description","type":"string"},{"internalType":"address","name":"recipient","type":"address"},{"internalType":"uint256","name":"amount","type":"uint256"},{"internalType":"uint256","name":"startTime","type":"uint256"},{"internalType":"uint256","name":"endTime","type":"uint256"},{"internalType":"uint256","name":"forVotes","type":"uint256"},{"internalType":"uint256","name":"againstVotes","type":"uint256"},{"internalType":"bool","name":"executed","type":"bool"},{"internalType":"bool","name":"deleted","type":"bool"}],"stateMutability":"view","type":"function"},{"inputs":[],"name":"renounceOwnership","outputs":[],"stateMutability":"nonpayable","type":"function"},{"inputs":[],"name":"token","outputs":[{"internalType":"contract IERC20","name":"","type":"address"}],"stateMutability":"view","type":"function"},{"inputs":[{"internalType":"address","name":"newOwner","type":"address"}],"name":"transferOwnership","outputs":[],"stateMutability":"nonpayable","type":"function"},{"inputs":[{"internalType":"address","name":"","type":"address"}],"name":"userDeposits","outputs":[{"internalType":"uint256","name":"","type":"uint256"}],"stateMutability":"view","type":"function"},{"inputs":[{"internalType":"uint256","name":"proposalId","type":"uint256"},{"internalType":"bool","name":"support","type":"bool"}],"name":"vote","outputs":[],"stateMutability":"nonpayable","type":"function"}],"evm":{"bytecode":{"linkReferences":{},"object":"608060405234801561001057600080fd5b50604051612cc1380380612cc183398181016040528101906100329190610223565b33600073ffffffffffffffffffffffffffffffffffffffff168173ffffffffffffffffffffffffffffffffffffffff16036100a55760006040517f1e4fbdf700000000000000000000000000000000000000000000000000000000815260040161009c919061025f565b60405180910390fd5b6100b4816100fc60201b60201c565b5080600160006101000a81548173ffffffffffffffffffffffffffffffffffffffff021916908373ffffffffffffffffffffffffffffffffffffffff1602179055505061027a565b60008060009054906101000a900473ffffffffffffffffffffffffffffffffffffffff169050816000806101000a81548173ffffffffffffffffffffffffffffffffffffffff021916908373ffffffffffffffffffffffffffffffffffffffff1602179055508173ffffffffffffffffffffffffffffffffffffffff168173ffffffffffffffffffffffffffffffffffffffff167f8be0079c531659141344cd1fd0a4f28419497f9722a3daafe3b4186f6b6457e060405160405180910390a35050565b600080fd5b600073ffffffffffffffffffffffffffffffffffffffff82169050919050565b60006101f0826101c5565b9050919050565b610200816101e5565b811461020b57600080fd5b50565b60008151905061021d816101f7565b92915050565b600060208284031215610239576102386101c0565b5b60006102478482850161020e565b91505092915050565b610259816101e5565b82525050565b60006020820190506102746000830184610250565b92915050565b612a38806102896000396000f3fe608060405234801561001057600080fd5b50600436106101215760003560e01c80639b5655dc116100ad578063da35c66411610071578063da35c664146102ea578063e0c44e7614610308578063e9b01f8e14610326578063f2fde38b14610344578063fc0c546a1461036057610121565b80639b5655dc14610258578063b1610d7e14610276578063b6b55f2514610294578063c9d27afe146102b0578063cf76e8e1146102cc57610121565b8063715018a6116100f4578063715018a6146101dc5780638259d553146101e6578063831c43ac146102025780638743dae61461021e5780638da5cb5b1461023a57610121565b8063013cf08b146101265780630ba36dcd146101605780630d61b519146101905780632a5bf6d2146101ac575b600080fd5b610140600480360381019061013b9190611780565b61037e565b6040516101579b9a999897969594939291906118a8565b60405180910390f35b61017a60048036038101906101759190611986565b6104ba565b60405161018791906119b3565b60405180910390f35b6101aa60048036038101906101a59190611780565b6104d2565b005b6101c660048036038101906101c19190611986565b6108d0565b6040516101d391906119b3565b60405180910390f35b6101e4610919565b005b61020060048036038101906101fb9190611780565b61092d565b005b61021c60048036038101906102179190611b03565b610a85565b005b61023860048036038101906102339190611b72565b610a98565b005b610242610e8d565b60405161024f9190611bf5565b60405180910390f35b610260610eb6565b60405161026d91906119b3565b60405180910390f35b61027e610f59565b60405161028b91906119b3565b60405180910390f35b6102ae60048036038101906102a99190611780565b610f60565b005b6102ca60048036038101906102c59190611c3c565b61112b565b005b6102d4611504565b6040516102e191906119b3565b60405180910390f35b6102f2611512565b6040516102ff91906119b3565b60405180910390f35b610310611518565b60405161031d91906119b3565b60405180910390f35b61032e611525565b60405161033b91906119b3565b60405180910390f35b61035e60048036038101906103599190611986565b611537565b005b6103686115bd565b6040516103759190611cdb565b60405180910390f35b60036020528060005260406000206000915090508060000154908060010160009054906101000a900473ffffffffffffffffffffffffffffffffffffffff16908060020180546103cd90611d25565b80601f01602080910402602001604051908101604052809291908181526020018280546103f990611d25565b80156104465780601f1061041b57610100808354040283529160200191610446565b820191906000526020600020905b81548152906001019060200180831161042957829003601f168201915b5050505050908060030160009054906101000a900473ffffffffffffffffffffffffffffffffffffffff16908060040154908060050154908060060154908060070154908060080154908060090160009054906101000a900460ff16908060090160019054906101000a900460ff1690508b565b60046020528060005260406000206000915090505481565b60006003600083815260200190815260200160002090506000816000015403610530576040517f08c379a000000000000000000000000000000000000000000000000000000000815260040161052790611da2565b60405180910390fd5b8060090160019054906101000a900460ff1615610582576040517f08c379a000000000000000000000000000000000000000000000000000000000815260040161057990611e0e565b60405180910390fd5b806006015442116105c8576040517f08c379a00000000000000000000000000000000000000000000000000000000081526004016105bf90611e7a565b60405180910390fd5b8060090160009054906101000a900460ff161561061a576040517f08c379a000000000000000000000000000000000000000000000000000000000815260040161061190611ee6565b60405180910390fd5b8060080154816007015411610664576040517f08c379a000000000000000000000000000000000000000000000000000000000815260040161065b90611f52565b60405180910390fd5b8060040154600160009054906101000a900473ffffffffffffffffffffffffffffffffffffffff1673ffffffffffffffffffffffffffffffffffffffff166370a08231306040518263ffffffff1660e01b81526004016106c49190611bf5565b602060405180830381865afa1580156106e1573d6000803e3d6000fd5b505050506040513d601f19601f820116820180604052508101906107059190611f87565b1015610746576040517f08c379a000000000000000000000000000000000000000000000000000000000815260040161073d90612000565b60405180910390fd5b60018160090160006101000a81548160ff021916908315150217905550600160009054906101000a900473ffffffffffffffffffffffffffffffffffffffff1673ffffffffffffffffffffffffffffffffffffffff1663a9059cbb8260030160009054906101000a900473ffffffffffffffffffffffffffffffffffffffff1683600401546040518363ffffffff1660e01b81526004016107e8929190612020565b6020604051808303816000875af1158015610807573d6000803e3d6000fd5b505050506040513d601f19601f8201168201806040525081019061082b919061205e565b61086a576040517f08c379a0000000000000000000000000000000000000000000000000000000008152600401610861906120d7565b60405180910390fd5b817f3b7c90df35b419337cff0919fe91849006607bb66c4373623f06f9d48c1ebb988260030160009054906101000a900473ffffffffffffffffffffffffffffffffffffffff1683600401546040516108c4929190612020565b60405180910390a25050565b6000600460008373ffffffffffffffffffffffffffffffffffffffff1673ffffffffffffffffffffffffffffffffffffffff168152602001908152602001600020549050919050565b6109216115e3565b61092b600061166a565b565b6109356115e3565b60006003600083815260200190815260200160002090506000816000015403610993576040517f08c379a000000000000000000000000000000000000000000000000000000000815260040161098a90611da2565b60405180910390fd5b8060090160009054906101000a900460ff16156109e5576040517f08c379a00000000000000000000000000000000000000000000000000000000081526004016109dc90612143565b60405180910390fd5b8060090160019054906101000a900460ff1615610a37576040517f08c379a0000000000000000000000000000000000000000000000000000000008152600401610a2e906121af565b60405180910390fd5b60018160090160016101000a81548160ff021916908315150217905550817f61c0d93dc2b610877e420b107c8d12e9185e46e04a505da758cc7f7329ae545f60405160405180910390a25050565b610a93838383612760610a98565b505050565b683635c9adc5dea00000600160009054906101000a900473ffffffffffffffffffffffffffffffffffffffff1673ffffffffffffffffffffffffffffffffffffffff166370a08231336040518263ffffffff1660e01b8152600401610afd9190611bf5565b602060405180830381865afa158015610b1a573d6000803e3d6000fd5b505050506040513d601f19601f82011682018060405250810190610b3e9190611f87565b1015610b7f576040517f08c379a0000000000000000000000000000000000000000000000000000000008152600401610b769061221b565b60405180910390fd5b69010f0cf064dd59200000600460003373ffffffffffffffffffffffffffffffffffffffff1673ffffffffffffffffffffffffffffffffffffffff168152602001908152602001600020541015610c0b576040517f08c379a0000000000000000000000000000000000000000000000000000000008152600401610c02906122ad565b60405180910390fd5b60008211610c4e576040517f08c379a0000000000000000000000000000000000000000000000000000000008152600401610c4590612319565b60405180910390fd5b600073ffffffffffffffffffffffffffffffffffffffff168373ffffffffffffffffffffffffffffffffffffffff1603610cbd576040517f08c379a0000000000000000000000000000000000000000000000000000000008152600401610cb490612385565b60405180910390fd5b60008111610d00576040517f08c379a0000000000000000000000000000000000000000000000000000000008152600401610cf790612417565b60405180910390fd5b6000603c82610d0f9190612466565b905060026000815480929190610d24906124a8565b9190505550600060036000600254815260200190815260200160002090506002548160000181905550338160010160006101000a81548173ffffffffffffffffffffffffffffffffffffffff021916908373ffffffffffffffffffffffffffffffffffffffff16021790555085816002019081610da19190612692565b50848160030160006101000a81548173ffffffffffffffffffffffffffffffffffffffff021916908373ffffffffffffffffffffffffffffffffffffffff1602179055508381600401819055504281600501819055508142610e039190612764565b816006018190555060008160090160006101000a81548160ff02191690831515021790555060008160090160016101000a81548160ff0219169083151502179055506002547f36ef39b15ae87208645c010139b1c8b7b25a358bb68989fefcc82b1e0754bcbd33888888604051610e7d9493929190612798565b60405180910390a2505050505050565b60008060009054906101000a900473ffffffffffffffffffffffffffffffffffffffff16905090565b6000600160009054906101000a900473ffffffffffffffffffffffffffffffffffffffff1673ffffffffffffffffffffffffffffffffffffffff166370a08231306040518263ffffffff1660e01b8152600401610f139190611bf5565b602060405180830381865afa158015610f30573d6000803e3d6000fd5b505050506040513d601f19601f82011682018060405250810190610f549190611f87565b905090565b62093a8081565b60008111610fa3576040517f08c379a0000000000000000000000000000000000000000000000000000000008152600401610f9a90612319565b60405180910390fd5b600160009054906101000a900473ffffffffffffffffffffffffffffffffffffffff1673ffffffffffffffffffffffffffffffffffffffff166323b872dd3330846040518463ffffffff1660e01b8152600401611002939291906127e4565b6020604051808303816000875af1158015611021573d6000803e3d6000fd5b505050506040513d601f19601f82011682018060405250810190611045919061205e565b611084576040517f08c379a000000000000000000000000000000000000000000000000000000000815260040161107b906120d7565b60405180910390fd5b80600460003373ffffffffffffffffffffffffffffffffffffffff1673ffffffffffffffffffffffffffffffffffffffff16815260200190815260200160002060008282546110d39190612764565b925050819055503373ffffffffffffffffffffffffffffffffffffffff167f2da466a7b24304f47e87fa2e1e5a81b9831ce54fec19055ce277ca2f39ba42c48260405161112091906119b3565b60405180910390a250565b60006003600084815260200190815260200160002090506000816000015403611189576040517f08c379a000000000000000000000000000000000000000000000000000000000815260040161118090611da2565b60405180910390fd5b8060090160019054906101000a900460ff16156111db576040517f08c379a00000000000000000000000000000000000000000000000000000000081526004016111d290611e0e565b60405180910390fd5b8060060154421115611222576040517f08c379a000000000000000000000000000000000000000000000000000000000815260040161121990612867565b60405180910390fd5b80600a0160003373ffffffffffffffffffffffffffffffffffffffff1673ffffffffffffffffffffffffffffffffffffffff16815260200190815260200160002060009054906101000a900460ff16156112b1576040517f08c379a00000000000000000000000000000000000000000000000000000000081526004016112a8906128d3565b60405180910390fd5b8060010160009054906101000a900473ffffffffffffffffffffffffffffffffffffffff1673ffffffffffffffffffffffffffffffffffffffff163373ffffffffffffffffffffffffffffffffffffffff1603611343576040517f08c379a000000000000000000000000000000000000000000000000000000000815260040161133a9061293f565b60405180910390fd5b6000600160009054906101000a900473ffffffffffffffffffffffffffffffffffffffff1673ffffffffffffffffffffffffffffffffffffffff166370a08231336040518263ffffffff1660e01b81526004016113a09190611bf5565b602060405180830381865afa1580156113bd573d6000803e3d6000fd5b505050506040513d601f19601f820116820180604052508101906113e19190611f87565b905060008111611426576040517f08c379a000000000000000000000000000000000000000000000000000000000815260040161141d906129ab565b60405180910390fd5b600182600a0160003373ffffffffffffffffffffffffffffffffffffffff1673ffffffffffffffffffffffffffffffffffffffff16815260200190815260200160002060006101000a81548160ff02191690831515021790555082156114a6578082600701600082825461149a9190612764565b925050819055506114c2565b808260080160008282546114ba9190612764565b925050819055505b837f7c2de587c00d75474a0c6c6fa96fd3b45dc974cd4e8a75f712bb84c950dce1b53385846040516114f6939291906129cb565b60405180910390a250505050565b69010f0cf064dd5920000081565b60025481565b683635c9adc5dea0000081565b600069010f0cf064dd59200000905090565b61153f6115e3565b600073ffffffffffffffffffffffffffffffffffffffff168173ffffffffffffffffffffffffffffffffffffffff16036115b15760006040517f1e4fbdf70000000000000000000000000000000000000000000000000000000081526004016115a89190611bf5565b60405180910390fd5b6115ba8161166a565b50565b600160009054906101000a900473ffffffffffffffffffffffffffffffffffffffff1681565b6115eb61172e565b73ffffffffffffffffffffffffffffffffffffffff16611609610e8d565b73ffffffffffffffffffffffffffffffffffffffff16146116685761162c61172e565b6040517f118cdaa700000000000000000000000000000000000000000000000000000000815260040161165f9190611bf5565b60405180910390fd5b565b60008060009054906101000a900473ffffffffffffffffffffffffffffffffffffffff169050816000806101000a81548173ffffffffffffffffffffffffffffffffffffffff021916908373ffffffffffffffffffffffffffffffffffffffff1602179055508173ffffffffffffffffffffffffffffffffffffffff168173ffffffffffffffffffffffffffffffffffffffff167f8be0079c531659141344cd1fd0a4f28419497f9722a3daafe3b4186f6b6457e060405160405180910390a35050565b600033905090565b6000604051905090565b600080fd5b600080fd5b6000819050919050565b61175d8161174a565b811461176857600080fd5b50565b60008135905061177a81611754565b92915050565b60006020828403121561179657611795611740565b5b60006117a48482850161176b565b91505092915050565b6117b68161174a565b82525050565b600073ffffffffffffffffffffffffffffffffffffffff82169050919050565b60006117e7826117bc565b9050919050565b6117f7816117dc565b82525050565b600081519050919050565b600082825260208201905092915050565b60005b8381101561183757808201518184015260208101905061181c565b60008484015250505050565b6000601f19601f8301169050919050565b600061185f826117fd565b6118698185611808565b9350611879818560208601611819565b61188281611843565b840191505092915050565b60008115159050919050565b6118a28161188d565b82525050565b6000610160820190506118be600083018e6117ad565b6118cb602083018d6117ee565b81810360408301526118dd818c611854565b90506118ec606083018b6117ee565b6118f9608083018a6117ad565b61190660a08301896117ad565b61191360c08301886117ad565b61192060e08301876117ad565b61192e6101008301866117ad565b61193c610120830185611899565b61194a610140830184611899565b9c9b505050505050505050505050565b611963816117dc565b811461196e57600080fd5b50565b6000813590506119808161195a565b92915050565b60006020828403121561199c5761199b611740565b5b60006119aa84828501611971565b91505092915050565b60006020820190506119c860008301846117ad565b92915050565b600080fd5b600080fd5b7f4e487b7100000000000000000000000000000000000000000000000000000000600052604160045260246000fd5b611a1082611843565b810181811067ffffffffffffffff82111715611a2f57611a2e6119d8565b5b80604052505050565b6000611a42611736565b9050611a4e8282611a07565b919050565b600067ffffffffffffffff821115611a6e57611a6d6119d8565b5b611a7782611843565b9050602081019050919050565b82818337600083830152505050565b6000611aa6611aa184611a53565b611a38565b905082815260208101848484011115611ac257611ac16119d3565b5b611acd848285611a84565b509392505050565b600082601f830112611aea57611ae96119ce565b5b8135611afa848260208601611a93565b91505092915050565b600080600060608486031215611b1c57611b1b611740565b5b600084013567ffffffffffffffff811115611b3a57611b39611745565b5b611b4686828701611ad5565b9350506020611b5786828701611971565b9250506040611b688682870161176b565b9150509250925092565b60008060008060808587031215611b8c57611b8b611740565b5b600085013567ffffffffffffffff811115611baa57611ba9611745565b5b611bb687828801611ad5565b9450506020611bc787828801611971565b9350506040611bd88782880161176b565b9250506060611be98782880161176b565b91505092959194509250565b6000602082019050611c0a60008301846117ee565b92915050565b611c198161188d565b8114611c2457600080fd5b50565b600081359050611c3681611c10565b92915050565b60008060408385031215611c5357611c52611740565b5b6000611c618582860161176b565b9250506020611c7285828601611c27565b9150509250929050565b6000819050919050565b6000611ca1611c9c611c97846117bc565b611c7c565b6117bc565b9050919050565b6000611cb382611c86565b9050919050565b6000611cc582611ca8565b9050919050565b611cd581611cba565b82525050565b6000602082019050611cf06000830184611ccc565b92915050565b7f4e487b7100000000000000000000000000000000000000000000000000000000600052602260045260246000fd5b60006002820490506001821680611d3d57607f821691505b602082108103611d5057611d4f611cf6565b5b50919050565b7f50726f706f73616c20646f6573206e6f74206578697374000000000000000000600082015250565b6000611d8c601783611808565b9150611d9782611d56565b602082019050919050565b60006020820190508181036000830152611dbb81611d7f565b9050919050565b7f50726f706f73616c20686173206265656e2064656c6574656400000000000000600082015250565b6000611df8601983611808565b9150611e0382611dc2565b602082019050919050565b60006020820190508181036000830152611e2781611deb565b9050919050565b7f566f74696e6720706572696f64206e6f7420656e646564000000000000000000600082015250565b6000611e64601783611808565b9150611e6f82611e2e565b602082019050919050565b60006020820190508181036000830152611e9381611e57565b9050919050565b7f50726f706f73616c20616c726561647920657865637574656400000000000000600082015250565b6000611ed0601983611808565b9150611edb82611e9a565b602082019050919050565b60006020820190508181036000830152611eff81611ec3565b9050919050565b7f50726f706f73616c206e6f7420617070726f7665640000000000000000000000600082015250565b6000611f3c601583611808565b9150611f4782611f06565b602082019050919050565b60006020820190508181036000830152611f6b81611f2f565b9050919050565b600081519050611f8181611754565b92915050565b600060208284031215611f9d57611f9c611740565b5b6000611fab84828501611f72565b91505092915050565b7f496e73756666696369656e742074726561737572792062616c616e6365000000600082015250565b6000611fea601d83611808565b9150611ff582611fb4565b602082019050919050565b6000602082019050818103600083015261201981611fdd565b9050919050565b600060408201905061203560008301856117ee565b61204260208301846117ad565b9392505050565b60008151905061205881611c10565b92915050565b60006020828403121561207457612073611740565b5b600061208284828501612049565b91505092915050565b7f5472616e73666572206661696c65640000000000000000000000000000000000600082015250565b60006120c1600f83611808565b91506120cc8261208b565b602082019050919050565b600060208201905081810360008301526120f0816120b4565b9050919050565b7f43616e6e6f742064656c6574652065786563757465642070726f706f73616c00600082015250565b600061212d601f83611808565b9150612138826120f7565b602082019050919050565b6000602082019050818103600083015261215c81612120565b9050919050565b7f50726f706f73616c20616c72656164792064656c657465640000000000000000600082015250565b6000612199601883611808565b91506121a482612163565b602082019050919050565b600060208201905081810360008301526121c88161218c565b9050919050565b7f496e73756666696369656e7420746f6b656e7320746f20766f74650000000000600082015250565b6000612205601b83611808565b9150612210826121cf565b602082019050919050565b60006020820190508181036000830152612234816121f8565b9050919050565b7f4d757374206465706f736974206174206c6561737420353030302044544b207460008201527f6f206372656174652070726f706f73616c730000000000000000000000000000602082015250565b6000612297603283611808565b91506122a28261223b565b604082019050919050565b600060208201905081810360008301526122c68161228a565b9050919050565b7f416d6f756e74206d7573742062652067726561746572207468616e2030000000600082015250565b6000612303601d83611808565b915061230e826122cd565b602082019050919050565b60006020820190508181036000830152612332816122f6565b9050919050565b7f496e76616c696420726563697069656e74000000000000000000000000000000600082015250565b600061236f601183611808565b915061237a82612339565b602082019050919050565b6000602082019050818103600083015261239e81612362565b9050919050565b7f566f74696e67206475726174696f6e206d75737420626520677265617465722060008201527f7468616e20300000000000000000000000000000000000000000000000000000602082015250565b6000612401602683611808565b915061240c826123a5565b604082019050919050565b60006020820190508181036000830152612430816123f4565b9050919050565b7f4e487b7100000000000000000000000000000000000000000000000000000000600052601160045260246000fd5b60006124718261174a565b915061247c8361174a565b925082820261248a8161174a565b915082820484148315176124a1576124a0612437565b5b5092915050565b60006124b38261174a565b91507fffffffffffffffffffffffffffffffffffffffffffffffffffffffffffffffff82036124e5576124e4612437565b5b600182019050919050565b60008190508160005260206000209050919050565b60006020601f8301049050919050565b600082821b905092915050565b6000600883026125527fffffffffffffffffffffffffffffffffffffffffffffffffffffffffffffffff82612515565b61255c8683612515565b95508019841693508086168417925050509392505050565b600061258f61258a6125858461174a565b611c7c565b61174a565b9050919050565b6000819050919050565b6125a983612574565b6125bd6125b582612596565b848454612522565b825550505050565b600090565b6125d26125c5565b6125dd8184846125a0565b505050565b5b81811015612601576125f66000826125ca565b6001810190506125e3565b5050565b601f82111561264657612617816124f0565b61262084612505565b8101602085101561262f578190505b61264361263b85612505565b8301826125e2565b50505b505050565b600082821c905092915050565b60006126696000198460080261264b565b1980831691505092915050565b60006126828383612658565b9150826002028217905092915050565b61269b826117fd565b67ffffffffffffffff8111156126b4576126b36119d8565b5b6126be8254611d25565b6126c9828285612605565b600060209050601f8311600181146126fc57600084156126ea578287015190505b6126f48582612676565b86555061275c565b601f19841661270a866124f0565b60005b828110156127325784890151825560018201915060208501945060208101905061270d565b8683101561274f578489015161274b601f891682612658565b8355505b6001600288020188555050505b505050505050565b600061276f8261174a565b915061277a8361174a565b925082820190508082111561279257612791612437565b5b92915050565b60006080820190506127ad60008301876117ee565b81810360208301526127bf8186611854565b90506127ce60408301856117ee565b6127db60608301846117ad565b95945050505050565b60006060820190506127f960008301866117ee565b61280660208301856117ee565b61281360408301846117ad565b949350505050565b7f566f74696e6720706572696f6420656e64656400000000000000000000000000600082015250565b6000612851601383611808565b915061285c8261281b565b602082019050919050565b6000602082019050818103600083015261288081612844565b9050919050565b7f416c726561647920766f74656400000000000000000000000000000000000000600082015250565b60006128bd600d83611808565b91506128c882612887565b602082019050919050565b600060208201905081810360008301526128ec816128b0565b9050919050565b7f43616e6e6f7420766f7465206f6e206f776e2070726f706f73616c0000000000600082015250565b6000612929601b83611808565b9150612934826128f3565b602082019050919050565b600060208201905081810360008301526129588161291c565b9050919050565b7f4e6f20746f6b656e7320746f20766f7465000000000000000000000000000000600082015250565b6000612995601183611808565b91506129a08261295f565b602082019050919050565b600060208201905081810360008301526129c481612988565b9050919050565b60006060820190506129e060008301866117ee565b6129ed6020830185611899565b6129fa60408301846117ad565b94935050505056fea26469706673582212206b484285618452640896c1a91dfbfbc5ddd077bf3b0b5c4084a2d0e5dd9555de64736f6c634300081c0033","opcodes":"PUSH1 0x80 PUSH1 0x40 MSTORE CALLVALUE DUP1 ISZERO PUSH2 0x10 JUMPI PUSH1 0x0 DUP1 REVERT JUMPDEST POP PUSH1 0x40 MLOAD PUSH2 0x2CC1 CODESIZE SUB DUP1 PUSH2 0x2CC1 DUP4 CODECOPY DUP2 DUP2 ADD PUSH1 0x40 MSTORE DUP2 ADD SWAP1 PUSH2 0x32 SWAP2 SWAP1 PUSH2 0x223 JUMP JUMPDEST CALLER PUSH1 0x0 PUSH20 0xFFFFFFFFFFFFFFFFFFFFFFFFFFFFFFFFFFFFFFFF AND DUP2 PUSH20 0xFFFFFFFFFFFFFFFFFFFFFFFFFFFFFFFFFFFFFFFF AND SUB PUSH2 0xA5 JUMPI PUSH1 0x0 PUSH1 0x40 MLOAD PUSH32 0x1E4FBDF700000000000000000000000000000000000000000000000000000000 DUP2 MSTORE PUSH1 0x4 ADD PUSH2 0x9C SWAP2 SWAP1 PUSH2 0x25F JUMP JUMPDEST PUSH1 0x40 MLOAD DUP1 SWAP2 SUB SWAP1 REVERT JUMPDEST PUSH2 0xB4 DUP2 PUSH2 0xFC PUSH1 0x20 SHL PUSH1 0x20 SHR JUMP JUMPDEST POP DUP1 PUSH1 0x1 PUSH1 0x0 PUSH2 0x100 EXP DUP2 SLOAD DUP2 PUSH20 0xFFFFFFFFFFFFFFFFFFFFFFFFFFFFFFFFFFFFFFFF MUL NOT AND SWAP1 DUP4 PUSH20 0xFFFFFFFFFFFFFFFFFFFFFFFFFFFFFFFFFFFFFFFF AND MUL OR SWAP1 SSTORE POP POP PUSH2 0x27A JUMP JUMPDEST PUSH1 0x0 DUP1 PUSH1 0x0 SWAP1 SLOAD SWAP1 PUSH2 0x100 EXP SWAP1 DIV PUSH20 0xFFFFFFFFFFFFFFFFFFFFFFFFFFFFFFFFFFFFFFFF AND SWAP1 POP DUP2 PUSH1 0x0 DUP1 PUSH2 0x100 EXP DUP2 SLOAD DUP2 PUSH20 0xFFFFFFFFFFFFFFFFFFFFFFFFFFFFFFFFFFFFFFFF MUL NOT AND SWAP1 DUP4 PUSH20 0xFFFFFFFFFFFFFFFFFFFFFFFFFFFFFFFFFFFFFFFF AND MUL OR SWAP1 SSTORE POP DUP2 PUSH20 0xFFFFFFFFFFFFFFFFFFFFFFFFFFFFFFFFFFFFFFFF AND DUP2 PUSH20 0xFFFFFFFFFFFFFFFFFFFFFFFFFFFFFFFFFFFFFFFF AND PUSH32 0x8BE0079C531659141344CD1FD0A4F28419497F9722A3DAAFE3B4186F6B6457E0 PUSH1 0x40 MLOAD PUSH1 0x40 MLOAD DUP1 SWAP2 SUB SWAP1 LOG3 POP POP JUMP JUMPDEST PUSH1 0x0 DUP1 REVERT JUMPDEST PUSH1 0x0 PUSH20 0xFFFFFFFFFFFFFFFFFFFFFFFFFFFFFFFFFFFFFFFF DUP3 AND SWAP1 POP SWAP2 SWAP1 POP JUMP JUMPDEST PUSH1 0x0 PUSH2 0x1F0 DUP3 PUSH2 0x1C5 JUMP JUMPDEST SWAP1 POP SWAP2 SWAP1 POP JUMP JUMPDEST PUSH2 0x200 DUP2 PUSH2 0x1E5 JUMP JUMPDEST DUP2 EQ PUSH2 0x20B JUMPI PUSH1 0x0 DUP1 REVERT JUMPDEST POP JUMP JUMPDEST PUSH1 0x0 DUP2 MLOAD SWAP1 POP PUSH2 0x21D DUP2 PUSH2 0x1F7 JUMP JUMPDEST SWAP3 SWAP2 POP POP JUMP JUMPDEST PUSH1 0x0 PUSH1 0x20 DUP3 DUP5 SUB SLT ISZERO PUSH2 0x239 JUMPI PUSH2 0x238 PUSH2 0x1C0 JUMP JUMPDEST JUMPDEST PUSH1 0x0 PUSH2 0x247 DUP5 DUP3 DUP6 ADD PUSH2 0x20E JUMP JUMPDEST SWAP2 POP POP SWAP3 SWAP2 POP POP JUMP JUMPDEST PUSH2 0x259 DUP2 PUSH2 0x1E5 JUMP JUMPDEST DUP3 MSTORE POP POP JUMP JUMPDEST PUSH1 0x0 PUSH1 0x20 DUP3 ADD SWAP1 POP PUSH2 0x274 PUSH1 0x0 DUP4 ADD DUP5 PUSH2 0x250 JUMP JUMPDEST SWAP3 SWAP2 POP POP JUMP JUMPDEST PUSH2 0x2A38 DUP1 PUSH2 0x289 PUSH1 0x0 CODECOPY PUSH1 0x0 RETURN INVALID PUSH1 0x80 PUSH1 0x40 MSTORE CALLVALUE DUP1 ISZERO PUSH2 0x10 JUMPI PUSH1 0x0 DUP1 REVERT JUMPDEST POP PUSH1 0x4 CALLDATASIZE LT PUSH2 0x121 JUMPI PUSH1 0x0 CALLDATALOAD PUSH1 0xE0 SHR DUP1 PUSH4 0x9B5655DC GT PUSH2 0xAD JUMPI DUP1 PUSH4 0xDA35C664 GT PUSH2 0x71 JUMPI DUP1 PUSH4 0xDA35C664 EQ PUSH2 0x2EA JUMPI DUP1 PUSH4 0xE0C44E76 EQ PUSH2 0x308 JUMPI DUP1 PUSH4 0xE9B01F8E EQ PUSH2 0x326 JUMPI DUP1 PUSH4 0xF2FDE38B EQ PUSH2 0x344 JUMPI DUP1 PUSH4 0xFC0C546A EQ PUSH2 0x360 JUMPI PUSH2 0x121 JUMP JUMPDEST DUP1 PUSH4 0x9B5655DC EQ PUSH2 0x258 JUMPI DUP1 PUSH4 0xB1610D7E EQ PUSH2 0x276 JUMPI DUP1 PUSH4 0xB6B55F25 EQ PUSH2 0x294 JUMPI DUP1 PUSH4 0xC9D27AFE EQ PUSH2 0x2B0 JUMPI DUP1 PUSH4 0xCF76E8E1 EQ PUSH2 0x2CC JUMPI PUSH2 0x121 JUMP JUMPDEST DUP1 PUSH4 0x715018A6 GT PUSH2 0xF4 JUMPI DUP1 PUSH4 0x715018A6 EQ PUSH2 0x1DC JUMPI DUP1 PUSH4 0x8259D553 EQ PUSH2 0x1E6 JUMPI DUP1 PUSH4 0x831C43AC EQ PUSH2 0x202 JUMPI DUP1 PUSH4 0x8743DAE6 EQ PUSH2 0x21E JUMPI DUP1 PUSH4 0x8DA5CB5B EQ PUSH2 0x23A JUMPI PUSH2 0x121 JUMP JUMPDEST DUP1 PUSH4 0x13CF08B EQ PUSH2 0x126 JUMPI DUP1 PUSH4 0xBA36DCD EQ PUSH2 0x160 JUMPI DUP1 PUSH4 0xD61B519 EQ PUSH2 0x190 JUMPI DUP1 PUSH4 0x2A5BF6D2 EQ PUSH2 0x1AC JUMPI JUMPDEST PUSH1 0x0 DUP1 REVERT JUMPDEST PUSH2 0x140 PUSH1 0x4 DUP1 CALLDATASIZE SUB DUP2 ADD SWAP1 PUSH2 0x13B SWAP2 SWAP1 PUSH2 0x1780 JUMP JUMPDEST PUSH2 0x37E JUMP JUMPDEST PUSH1 0x40 MLOAD PUSH2 0x157 SWAP12 SWAP11 SWAP10 SWAP9 SWAP8 SWAP7 SWAP6 SWAP5 SWAP4 SWAP3 SWAP2 SWAP1 PUSH2 0x18A8 JUMP JUMPDEST PUSH1 0x40 MLOAD DUP1 SWAP2 SUB SWAP1 RETURN JUMPDEST PUSH2 0x17A PUSH1 0x4 DUP1 CALLDATASIZE SUB DUP2 ADD SWAP1 PUSH2 0x175 SWAP2 SWAP1 PUSH2 0x1986 JUMP JUMPDEST PUSH2 0x4BA JUMP JUMPDEST PUSH1 0x40 MLOAD PUSH2 0x187 SWAP2 SWAP1 PUSH2 0x19B3 JUMP JUMPDEST PUSH1 0x40 MLOAD DUP1 SWAP2 SUB SWAP1 RETURN JUMPDEST PUSH2 0x1AA PUSH1 0x4 DUP1 CALLDATASIZE SUB DUP2 ADD SWAP1 PUSH2 0x1A5 SWAP2 SWAP1 PUSH2 0x1780 JUMP JUMPDEST PUSH2 0x4D2 JUMP JUMPDEST STOP JUMPDEST PUSH2 0x1C6 PUSH1 0x4 DUP1 CALLDATASIZE SUB DUP2 ADD SWAP1 PUSH2 0x1C1 SWAP2 SWAP1 PUSH2 0x1986 JUMP JUMPDEST PUSH2 0x8D0 JUMP JUMPDEST PUSH1 0x40 MLOAD PUSH2 0x1D3 SWAP2 SWAP1 PUSH2 0x19B3 JUMP JUMPDEST PUSH1 0x40 MLOAD DUP1 SWAP2 SUB SWAP1 RETURN JUMPDEST PUSH2 0x1E4 PUSH2 0x919 JUMP JUMPDEST STOP JUMPDEST PUSH2 0x200 PUSH1 0x4 DUP1 CALLDATASIZE SUB DUP2 ADD SWAP1 PUSH2 0x1FB SWAP2 SWAP1 PUSH2 0x1780 JUMP JUMPDEST PUSH2 0x92D JUMP JUMPDEST STOP JUMPDEST PUSH2 0x21C PUSH1 0x4 DUP1 CALLDATASIZE SUB DUP2 ADD SWAP1 PUSH2 0x217 SWAP2 SWAP1 PUSH2 0x1B03 JUMP JUMPDEST PUSH2 0xA85 JUMP JUMPDEST STOP JUMPDEST PUSH2 0x238 PUSH1 0x4 DUP1 CALLDATASIZE SUB DUP2 ADD SWAP1 PUSH2 0x233 SWAP2 SWAP1 PUSH2 0x1B72 JUMP JUMPDEST PUSH2 0xA98 JUMP JUMPDEST STOP JUMPDEST PUSH2 0x242 PUSH2 0xE8D JUMP JUMPDEST PUSH1 0x40 MLOAD PUSH2 0x24F SWAP2 SWAP1 PUSH2 0x1BF5 JUMP JUMPDEST PUSH1 0x40 MLOAD DUP1 SWAP2 SUB SWAP1 RETURN JUMPDEST PUSH2 0x260 PUSH2 0xEB6 JUMP JUMPDEST PUSH1 0x40 MLOAD PUSH2 0x26D SWAP2 SWAP1 PUSH2 0x19B3 JUMP JUMPDEST PUSH1 0x40 MLOAD DUP1 SWAP2 SUB SWAP1 RETURN JUMPDEST PUSH2 0x27E PUSH2 0xF59 JUMP JUMPDEST PUSH1 0x40 MLOAD PUSH2 0x28B SWAP2 SWAP1 PUSH2 0x19B3 JUMP JUMPDEST PUSH1 0x40 MLOAD DUP1 SWAP2 SUB SWAP1 RETURN JUMPDEST PUSH2 0x2AE PUSH1 0x4 DUP1 CALLDATASIZE SUB DUP2 ADD SWAP1 PUSH2 0x2A9 SWAP2 SWAP1 PUSH2 0x1780 JUMP JUMPDEST PUSH2 0xF60 JUMP JUMPDEST STOP JUMPDEST PUSH2 0x2CA PUSH1 0x4 DUP1 CALLDATASIZE SUB DUP2 ADD SWAP1 PUSH2 0x2C5 SWAP2 SWAP1 PUSH2 0x1C3C JUMP JUMPDEST PUSH2 0x112B JUMP JUMPDEST STOP JUMPDEST PUSH2 0x2D4 PUSH2 0x1504 JUMP JUMPDEST PUSH1 0x40 MLOAD PUSH2 0x2E1 SWAP2 SWAP1 PUSH2 0x19B3 JUMP JUMPDEST PUSH1 0x40 MLOAD DUP1 SWAP2 SUB SWAP1 RETURN JUMPDEST PUSH2 0x2F2 PUSH2 0x1512 JUMP JUMPDEST PUSH1 0x40 MLOAD PUSH2 0x2FF SWAP2 SWAP1 PUSH2 0x19B3 JUMP JUMPDEST PUSH1 0x40 MLOAD DUP1 SWAP2 SUB SWAP1 RETURN JUMPDEST PUSH2 0x310 PUSH2 0x1518 JUMP JUMPDEST PUSH1 0x40 MLOAD PUSH2 0x31D SWAP2 SWAP1 PUSH2 0x19B3 JUMP JUMPDEST PUSH1 0x40 MLOAD DUP1 SWAP2 SUB SWAP1 RETURN JUMPDEST PUSH2 0x32E PUSH2 0x1525 JUMP JUMPDEST PUSH1 0x40 MLOAD PUSH2 0x33B SWAP2 SWAP1 PUSH2 0x19B3 JUMP JUMPDEST PUSH1 0x40 MLOAD DUP1 SWAP2 SUB SWAP1 RETURN JUMPDEST PUSH2 0x35E PUSH1 0x4 DUP1 CALLDATASIZE SUB DUP2 ADD SWAP1 PUSH2 0x359 SWAP2 SWAP1 PUSH2 0x1986 JUMP JUMPDEST PUSH2 0x1537 JUMP JUMPDEST STOP JUMPDEST PUSH2 0x368 PUSH2 0x15BD JUMP JUMPDEST PUSH1 0x40 MLOAD PUSH2 0x375 SWAP2 SWAP1 PUSH2 0x1CDB JUMP JUMPDEST PUSH1 0x40 MLOAD DUP1 SWAP2 SUB SWAP1 RETURN JUMPDEST PUSH1 0x3 PUSH1 0x20 MSTORE DUP1 PUSH1 0x0 MSTORE PUSH1 0x40 PUSH1 0x0 KECCAK256 PUSH1 0x0 SWAP2 POP SWAP1 POP DUP1 PUSH1 0x0 ADD SLOAD SWAP1 DUP1 PUSH1 0x1 ADD PUSH1 0x0 SWAP1 SLOAD SWAP1 PUSH2 0x100 EXP SWAP1 DIV PUSH20 0xFFFFFFFFFFFFFFFFFFFFFFFFFFFFFFFFFFFFFFFF AND SWAP1 DUP1 PUSH1 0x2 ADD DUP1 SLOAD PUSH2 0x3CD SWAP1 PUSH2 0x1D25 JUMP JUMPDEST DUP1 PUSH1 0x1F ADD PUSH1 0x20 DUP1 SWAP2 DIV MUL PUSH1 0x20 ADD PUSH1 0x40 MLOAD SWAP1 DUP2 ADD PUSH1 0x40 MSTORE DUP1 SWAP3 SWAP2 SWAP1 DUP2 DUP2 MSTORE PUSH1 0x20 ADD DUP3 DUP1 SLOAD PUSH2 0x3F9 SWAP1 PUSH2 0x1D25 JUMP JUMPDEST DUP1 ISZERO PUSH2 0x446 JUMPI DUP1 PUSH1 0x1F LT PUSH2 0x41B JUMPI PUSH2 0x100 DUP1 DUP4 SLOAD DIV MUL DUP4 MSTORE SWAP2 PUSH1 0x20 ADD SWAP2 PUSH2 0x446 JUMP JUMPDEST DUP3 ADD SWAP2 SWAP1 PUSH1 0x0 MSTORE PUSH1 0x20 PUSH1 0x0 KECCAK256 SWAP1 JUMPDEST DUP2 SLOAD DUP2 MSTORE SWAP1 PUSH1 0x1 ADD SWAP1 PUSH1 0x20 ADD DUP1 DUP4 GT PUSH2 0x429 JUMPI DUP3 SWAP1 SUB PUSH1 0x1F AND DUP3 ADD SWAP2 JUMPDEST POP POP POP POP POP SWAP1 DUP1 PUSH1 0x3 ADD PUSH1 0x0 SWAP1 SLOAD SWAP1 PUSH2 0x100 EXP SWAP1 DIV PUSH20 0xFFFFFFFFFFFFFFFFFFFFFFFFFFFFFFFFFFFFFFFF AND SWAP1 DUP1 PUSH1 0x4 ADD SLOAD SWAP1 DUP1 PUSH1 0x5 ADD SLOAD SWAP1 DUP1 PUSH1 0x6 ADD SLOAD SWAP1 DUP1 PUSH1 0x7 ADD SLOAD SWAP1 DUP1 PUSH1 0x8 ADD SLOAD SWAP1 DUP1 PUSH1 0x9 ADD PUSH1 0x0 SWAP1 SLOAD SWAP1 PUSH2 0x100 EXP SWAP1 DIV PUSH1 0xFF AND SWAP1 DUP1 PUSH1 0x9 ADD PUSH1 0x1 SWAP1 SLOAD SWAP1 PUSH2 0x100 EXP SWAP1 DIV PUSH1 0xFF AND SWAP1 POP DUP12 JUMP JUMPDEST PUSH1 0x4 PUSH1 0x20 MSTORE DUP1 PUSH1 0x0 MSTORE PUSH1 0x40 PUSH1 0x0 KECCAK256 PUSH1 0x0 SWAP2 POP SWAP1 POP SLOAD DUP2 JUMP JUMPDEST PUSH1 0x0 PUSH1 0x3 PUSH1 0x0 DUP4 DUP2 MSTORE PUSH1 0x20 ADD SWAP1 DUP2 MSTORE PUSH1 0x20 ADD PUSH1 0x0 KECCAK256 SWAP1 POP PUSH1 0x0 DUP2 PUSH1 0x0 ADD SLOAD SUB PUSH2 0x530 JUMPI PUSH1 0x40 MLOAD PUSH32 0x8C379A000000000000000000000000000000000000000000000000000000000 DUP2 MSTORE PUSH1 0x4 ADD PUSH2 0x527 SWAP1 PUSH2 0x1DA2 JUMP JUMPDEST PUSH1 0x40 MLOAD DUP1 SWAP2 SUB SWAP1 REVERT JUMPDEST DUP1 PUSH1 0x9 ADD PUSH1 0x1 SWAP1 SLOAD SWAP1 PUSH2 0x100 EXP SWAP1 DIV PUSH1 0xFF AND ISZERO PUSH2 0x582 JUMPI PUSH1 0x40 MLOAD PUSH32 0x8C379A000000000000000000000000000000000000000000000000000000000 DUP2 MSTORE PUSH1 0x4 ADD PUSH2 0x579 SWAP1 PUSH2 0x1E0E JUMP JUMPDEST PUSH1 0x40 MLOAD DUP1 SWAP2 SUB SWAP1 REVERT JUMPDEST DUP1 PUSH1 0x6 ADD SLOAD TIMESTAMP GT PUSH2 0x5C8 JUMPI PUSH1 0x40 MLOAD PUSH32 0x8C379A000000000000000000000000000000000000000000000000000000000 DUP2 MSTORE PUSH1 0x4 ADD PUSH2 0x5BF SWAP1 PUSH2 0x1E7A JUMP JUMPDEST PUSH1 0x40 MLOAD DUP1 SWAP2 SUB SWAP1 REVERT JUMPDEST DUP1 PUSH1 0x9 ADD PUSH1 0x0 SWAP1 SLOAD SWAP1 PUSH2 0x100 EXP SWAP1 DIV PUSH1 0xFF AND ISZERO PUSH2 0x61A JUMPI PUSH1 0x40 MLOAD PUSH32 0x8C379A000000000000000000000000000000000000000000000000000000000 DUP2 MSTORE PUSH1 0x4 ADD PUSH2 0x611 SWAP1 PUSH2 0x1EE6 JUMP JUMPDEST PUSH1 0x40 MLOAD DUP1 SWAP2 SUB SWAP1 REVERT JUMPDEST DUP1 PUSH1 0x8 ADD SLOAD DUP2 PUSH1 0x7 ADD SLOAD GT PUSH2 0x664 JUMPI PUSH1 0x40 MLOAD PUSH32 0x8C379A000000000000000000000000000000000000000000000000000000000 DUP2 MSTORE PUSH1 0x4 ADD PUSH2 0x65B SWAP1 PUSH2 0x1F52 JUMP JUMPDEST PUSH1 0x40 MLOAD DUP1 SWAP2 SUB SWAP1 REVERT JUMPDEST DUP1 PUSH1 0x4 ADD SLOAD PUSH1 0x1 PUSH1 0x0 SWAP1 SLOAD SWAP1 PUSH2 0x100 EXP SWAP1 DIV PUSH20 0xFFFFFFFFFFFFFFFFFFFFFFFFFFFFFFFFFFFFFFFF AND PUSH20 0xFFFFFFFFFFFFFFFFFFFFFFFFFFFFFFFFFFFFFFFF AND PUSH4 0x70A08231 ADDRESS PUSH1 0x40 MLOAD DUP3 PUSH4 0xFFFFFFFF AND PUSH1 0xE0 SHL DUP2 MSTORE PUSH1 0x4 ADD PUSH2 0x6C4 SWAP2 SWAP1 PUSH2 0x1BF5 JUMP JUMPDEST PUSH1 0x20 PUSH1 0x40 MLOAD DUP1 DUP4 SUB DUP2 DUP7 GAS STATICCALL ISZERO DUP1 ISZERO PUSH2 0x6E1 JUMPI RETURNDATASIZE PUSH1 0x0 DUP1 RETURNDATACOPY RETURNDATASIZE PUSH1 0x0 REVERT JUMPDEST POP POP POP POP PUSH1 0x40 MLOAD RETURNDATASIZE PUSH1 0x1F NOT PUSH1 0x1F DUP3 ADD AND DUP3 ADD DUP1 PUSH1 0x40 MSTORE POP DUP2 ADD SWAP1 PUSH2 0x705 SWAP2 SWAP1 PUSH2 0x1F87 JUMP JUMPDEST LT ISZERO PUSH2 0x746 JUMPI PUSH1 0x40 MLOAD PUSH32 0x8C379A000000000000000000000000000000000000000000000000000000000 DUP2 MSTORE PUSH1 0x4 ADD PUSH2 0x73D SWAP1 PUSH2 0x2000 JUMP JUMPDEST PUSH1 0x40 MLOAD DUP1 SWAP2 SUB SWAP1 REVERT JUMPDEST PUSH1 0x1 DUP2 PUSH1 0x9 ADD PUSH1 0x0 PUSH2 0x100 EXP DUP2 SLOAD DUP2 PUSH1 0xFF MUL NOT AND SWAP1 DUP4 ISZERO ISZERO MUL OR SWAP1 SSTORE POP PUSH1 0x1 PUSH1 0x0 SWAP1 SLOAD SWAP1 PUSH2 0x100 EXP SWAP1 DIV PUSH20 0xFFFFFFFFFFFFFFFFFFFFFFFFFFFFFFFFFFFFFFFF AND PUSH20 0xFFFFFFFFFFFFFFFFFFFFFFFFFFFFFFFFFFFFFFFF AND PUSH4 0xA9059CBB DUP3 PUSH1 0x3 ADD PUSH1 0x0 SWAP1 SLOAD SWAP1 PUSH2 0x100 EXP SWAP1 DIV PUSH20 0xFFFFFFFFFFFFFFFFFFFFFFFFFFFFFFFFFFFFFFFF AND DUP4 PUSH1 0x4 ADD SLOAD PUSH1 0x40 MLOAD DUP4 PUSH4 0xFFFFFFFF AND PUSH1 0xE0 SHL DUP2 MSTORE PUSH1 0x4 ADD PUSH2 0x7E8 SWAP3 SWAP2 SWAP1 PUSH2 0x2020 JUMP JUMPDEST PUSH1 0x20 PUSH1 0x40 MLOAD DUP1 DUP4 SUB DUP2 PUSH1 0x0 DUP8 GAS CALL ISZERO DUP1 ISZERO PUSH2 0x807 JUMPI RETURNDATASIZE PUSH1 0x0 DUP1 RETURNDATACOPY RETURNDATASIZE PUSH1 0x0 REVERT JUMPDEST POP POP POP POP PUSH1 0x40 MLOAD RETURNDATASIZE PUSH1 0x1F NOT PUSH1 0x1F DUP3 ADD AND DUP3 ADD DUP1 PUSH1 0x40 MSTORE POP DUP2 ADD SWAP1 PUSH2 0x82B SWAP2 SWAP1 PUSH2 0x205E JUMP JUMPDEST PUSH2 0x86A JUMPI PUSH1 0x40 MLOAD PUSH32 0x8C379A000000000000000000000000000000000000000000000000000000000 DUP2 MSTORE PUSH1 0x4 ADD PUSH2 0x861 SWAP1 PUSH2 0x20D7 JUMP JUMPDEST PUSH1 0x40 MLOAD DUP1 SWAP2 SUB SWAP1 REVERT JUMPDEST DUP2 PUSH32 0x3B7C90DF35B419337CFF0919FE91849006607BB66C4373623F06F9D48C1EBB98 DUP3 PUSH1 0x3 ADD PUSH1 0x0 SWAP1 SLOAD SWAP1 PUSH2 0x100 EXP SWAP1 DIV PUSH20 0xFFFFFFFFFFFFFFFFFFFFFFFFFFFFFFFFFFFFFFFF AND DUP4 PUSH1 0x4 ADD SLOAD PUSH1 0x40 MLOAD PUSH2 0x8C4 SWAP3 SWAP2 SWAP1 PUSH2 0x2020 JUMP JUMPDEST PUSH1 0x40 MLOAD DUP1 SWAP2 SUB SWAP1 LOG2 POP POP JUMP JUMPDEST PUSH1 0x0 PUSH1 0x4 PUSH1 0x0 DUP4 PUSH20 0xFFFFFFFFFFFFFFFFFFFFFFFFFFFFFFFFFFFFFFFF AND PUSH20 0xFFFFFFFFFFFFFFFFFFFFFFFFFFFFFFFFFFFFFFFF AND DUP2 MSTORE PUSH1 0x20 ADD SWAP1 DUP2 MSTORE PUSH1 0x20 ADD PUSH1 0x0 KECCAK256 SLOAD SWAP1 POP SWAP2 SWAP1 POP JUMP JUMPDEST PUSH2 0x921 PUSH2 0x15E3 JUMP JUMPDEST PUSH2 0x92B PUSH1 0x0 PUSH2 0x166A JUMP JUMPDEST JUMP JUMPDEST PUSH2 0x935 PUSH2 0x15E3 JUMP JUMPDEST PUSH1 0x0 PUSH1 0x3 PUSH1 0x0 DUP4 DUP2 MSTORE PUSH1 0x20 ADD SWAP1 DUP2 MSTORE PUSH1 0x20 ADD PUSH1 0x0 KECCAK256 SWAP1 POP PUSH1 0x0 DUP2 PUSH1 0x0 ADD SLOAD SUB PUSH2 0x993 JUMPI PUSH1 0x40 MLOAD PUSH32 0x8C379A000000000000000000000000000000000000000000000000000000000 DUP2 MSTORE PUSH1 0x4 ADD PUSH2 0x98A SWAP1 PUSH2 0x1DA2 JUMP JUMPDEST PUSH1 0x40 MLOAD DUP1 SWAP2 SUB SWAP1 REVERT JUMPDEST DUP1 PUSH1 0x9 ADD PUSH1 0x0 SWAP1 SLOAD SWAP1 PUSH2 0x100 EXP SWAP1 DIV PUSH1 0xFF AND ISZERO PUSH2 0x9E5 JUMPI PUSH1 0x40 MLOAD PUSH32 0x8C379A000000000000000000000000000000000000000000000000000000000 DUP2 MSTORE PUSH1 0x4 ADD PUSH2 0x9DC SWAP1 PUSH2 0x2143 JUMP JUMPDEST PUSH1 0x40 MLOAD DUP1 SWAP2 SUB SWAP1 REVERT JUMPDEST DUP1 PUSH1 0x9 ADD PUSH1 0x1 SWAP1 SLOAD SWAP1 PUSH2 0x100 EXP SWAP1 DIV PUSH1 0xFF AND ISZERO PUSH2 0xA37 JUMPI PUSH1 0x40 MLOAD PUSH32 0x8C379A000000000000000000000000000000000000000000000000000000000 DUP2 MSTORE PUSH1 0x4 ADD PUSH2 0xA2E SWAP1 PUSH2 0x21AF JUMP JUMPDEST PUSH1 0x40 MLOAD DUP1 SWAP2 SUB SWAP1 REVERT JUMPDEST PUSH1 0x1 DUP2 PUSH1 0x9 ADD PUSH1 0x1 PUSH2 0x100 EXP DUP2 SLOAD DUP2 PUSH1 0xFF MUL NOT AND SWAP1 DUP4 ISZERO ISZERO MUL OR SWAP1 SSTORE POP DUP2 PUSH32 0x61C0D93DC2B610877E420B107C8D12E9185E46E04A505DA758CC7F7329AE545F PUSH1 0x40 MLOAD PUSH1 0x40 MLOAD DUP1 SWAP2 SUB SWAP1 LOG2 POP POP JUMP JUMPDEST PUSH2 0xA93 DUP4 DUP4 DUP4 PUSH2 0x2760 PUSH2 0xA98 JUMP JUMPDEST POP POP POP JUMP JUMPDEST PUSH9 0x3635C9ADC5DEA00000 PUSH1 0x1 PUSH1 0x0 SWAP1 SLOAD SWAP1 PUSH2 0x100 EXP SWAP1 DIV PUSH20 0xFFFFFFFFFFFFFFFFFFFFFFFFFFFFFFFFFFFFFFFF AND PUSH20 0xFFFFFFFFFFFFFFFFFFFFFFFFFFFFFFFFFFFFFFFF AND PUSH4 0x70A08231 CALLER PUSH1 0x40 MLOAD DUP3 PUSH4 0xFFFFFFFF AND PUSH1 0xE0 SHL DUP2 MSTORE PUSH1 0x4 ADD PUSH2 0xAFD SWAP2 SWAP1 PUSH2 0x1BF5 JUMP JUMPDEST PUSH1 0x20 PUSH1 0x40 MLOAD DUP1 DUP4 SUB DUP2 DUP7 GAS STATICCALL ISZERO DUP1 ISZERO PUSH2 0xB1A JUMPI RETURNDATASIZE PUSH1 0x0 DUP1 RETURNDATACOPY RETURNDATASIZE PUSH1 0x0 REVERT JUMPDEST POP POP POP POP PUSH1 0x40 MLOAD RETURNDATASIZE PUSH1 0x1F NOT PUSH1 0x1F DUP3 ADD AND DUP3 ADD DUP1 PUSH1 0x40 MSTORE POP DUP2 ADD SWAP1 PUSH2 0xB3E SWAP2 SWAP1 PUSH2 0x1F87 JUMP JUMPDEST LT ISZERO PUSH2 0xB7F JUMPI PUSH1 0x40 MLOAD PUSH32 0x8C379A000000000000000000000000000000000000000000000000000000000 DUP2 MSTORE PUSH1 0x4 ADD PUSH2 0xB76 SWAP1 PUSH2 0x221B JUMP JUMPDEST PUSH1 0x40 MLOAD DUP1 SWAP2 SUB SWAP1 REVERT JUMPDEST PUSH10 0x10F0CF064DD59200000 PUSH1 0x4 PUSH1 0x0 CALLER PUSH20 0xFFFFFFFFFFFFFFFFFFFFFFFFFFFFFFFFFFFFFFFF AND PUSH20 0xFFFFFFFFFFFFFFFFFFFFFFFFFFFFFFFFFFFFFFFF AND DUP2 MSTORE PUSH1 0x20 ADD SWAP1 DUP2 MSTORE PUSH1 0x20 ADD PUSH1 0x0 KECCAK256 SLOAD LT ISZERO PUSH2 0xC0B JUMPI PUSH1 0x40 MLOAD PUSH32 0x8C379A000000000000000000000000000000000000000000000000000000000 DUP2 MSTORE PUSH1 0x4 ADD PUSH2 0xC02 SWAP1 PUSH2 0x22AD JUMP JUMPDEST PUSH1 0x40 MLOAD DUP1 SWAP2 SUB SWAP1 REVERT JUMPDEST PUSH1 0x0 DUP3 GT PUSH2 0xC4E JUMPI PUSH1 0x40 MLOAD PUSH32 0x8C379A000000000000000000000000000000000000000000000000000000000 DUP2 MSTORE PUSH1 0x4 ADD PUSH2 0xC45 SWAP1 PUSH2 0x2319 JUMP JUMPDEST PUSH1 0x40 MLOAD DUP1 SWAP2 SUB SWAP1 REVERT JUMPDEST PUSH1 0x0 PUSH20 0xFFFFFFFFFFFFFFFFFFFFFFFFFFFFFFFFFFFFFFFF AND DUP4 PUSH20 0xFFFFFFFFFFFFFFFFFFFFFFFFFFFFFFFFFFFFFFFF AND SUB PUSH2 0xCBD JUMPI PUSH1 0x40 MLOAD PUSH32 0x8C379A000000000000000000000000000000000000000000000000000000000 DUP2 MSTORE PUSH1 0x4 ADD PUSH2 0xCB4 SWAP1 PUSH2 0x2385 JUMP JUMPDEST PUSH1 0x40 MLOAD DUP1 SWAP2 SUB SWAP1 REVERT JUMPDEST PUSH1 0x0 DUP2 GT PUSH2 0xD00 JUMPI PUSH1 0x40 MLOAD PUSH32 0x8C379A000000000000000000000000000000000000000000000000000000000 DUP2 MSTORE PUSH1 0x4 ADD PUSH2 0xCF7 SWAP1 PUSH2 0x2417 JUMP JUMPDEST PUSH1 0x40 MLOAD DUP1 SWAP2 SUB SWAP1 REVERT JUMPDEST PUSH1 0x0 PUSH1 0x3C DUP3 PUSH2 0xD0F SWAP2 SWAP1 PUSH2 0x2466 JUMP JUMPDEST SWAP1 POP PUSH1 0x2 PUSH1 0x0 DUP2 SLOAD DUP1 SWAP3 SWAP2 SWAP1 PUSH2 0xD24 SWAP1 PUSH2 0x24A8 JUMP JUMPDEST SWAP2 SWAP1 POP SSTORE POP PUSH1 0x0 PUSH1 0x3 PUSH1 0x0 PUSH1 0x2 SLOAD DUP2 MSTORE PUSH1 0x20 ADD SWAP1 DUP2 MSTORE PUSH1 0x20 ADD PUSH1 0x0 KECCAK256 SWAP1 POP PUSH1 0x2 SLOAD DUP2 PUSH1 0x0 ADD DUP2 SWAP1 SSTORE POP CALLER DUP2 PUSH1 0x1 ADD PUSH1 0x0 PUSH2 0x100 EXP DUP2 SLOAD DUP2 PUSH20 0xFFFFFFFFFFFFFFFFFFFFFFFFFFFFFFFFFFFFFFFF MUL NOT AND SWAP1 DUP4 PUSH20 0xFFFFFFFFFFFFFFFFFFFFFFFFFFFFFFFFFFFFFFFF AND MUL OR SWAP1 SSTORE POP DUP6 DUP2 PUSH1 0x2 ADD SWAP1 DUP2 PUSH2 0xDA1 SWAP2 SWAP1 PUSH2 0x2692 JUMP JUMPDEST POP DUP5 DUP2 PUSH1 0x3 ADD PUSH1 0x0 PUSH2 0x100 EXP DUP2 SLOAD DUP2 PUSH20 0xFFFFFFFFFFFFFFFFFFFFFFFFFFFFFFFFFFFFFFFF MUL NOT AND SWAP1 DUP4 PUSH20 0xFFFFFFFFFFFFFFFFFFFFFFFFFFFFFFFFFFFFFFFF AND MUL OR SWAP1 SSTORE POP DUP4 DUP2 PUSH1 0x4 ADD DUP2 SWAP1 SSTORE POP TIMESTAMP DUP2 PUSH1 0x5 ADD DUP2 SWAP1 SSTORE POP DUP2 TIMESTAMP PUSH2 0xE03 SWAP2 SWAP1 PUSH2 0x2764 JUMP JUMPDEST DUP2 PUSH1 0x6 ADD DUP2 SWAP1 SSTORE POP PUSH1 0x0 DUP2 PUSH1 0x9 ADD PUSH1 0x0 PUSH2 0x100 EXP DUP2 SLOAD DUP2 PUSH1 0xFF MUL NOT AND SWAP1 DUP4 ISZERO ISZERO MUL OR SWAP1 SSTORE POP PUSH1 0x0 DUP2 PUSH1 0x9 ADD PUSH1 0x1 PUSH2 0x100 EXP DUP2 SLOAD DUP2 PUSH1 0xFF MUL NOT AND SWAP1 DUP4 ISZERO ISZERO MUL OR SWAP1 SSTORE POP PUSH1 0x2 SLOAD PUSH32 0x36EF39B15AE87208645C010139B1C8B7B25A358BB68989FEFCC82B1E0754BCBD CALLER DUP9 DUP9 DUP9 PUSH1 0x40 MLOAD PUSH2 0xE7D SWAP5 SWAP4 SWAP3 SWAP2 SWAP1 PUSH2 0x2798 JUMP JUMPDEST PUSH1 0x40 MLOAD DUP1 SWAP2 SUB SWAP1 LOG2 POP POP POP POP POP POP JUMP JUMPDEST PUSH1 0x0 DUP1 PUSH1 0x0 SWAP1 SLOAD SWAP1 PUSH2 0x100 EXP SWAP1 DIV PUSH20 0xFFFFFFFFFFFFFFFFFFFFFFFFFFFFFFFFFFFFFFFF AND SWAP1 POP SWAP1 JUMP JUMPDEST PUSH1 0x0 PUSH1 0x1 PUSH1 0x0 SWAP1 SLOAD SWAP1 PUSH2 0x100 EXP SWAP1 DIV PUSH20 0xFFFFFFFFFFFFFFFFFFFFFFFFFFFFFFFFFFFFFFFF AND PUSH20 0xFFFFFFFFFFFFFFFFFFFFFFFFFFFFFFFFFFFFFFFF AND PUSH4 0x70A08231 ADDRESS PUSH1 0x40 MLOAD DUP3 PUSH4 0xFFFFFFFF AND PUSH1 0xE0 SHL DUP2 MSTORE PUSH1 0x4 ADD PUSH2 0xF13 SWAP2 SWAP1 PUSH2 0x1BF5 JUMP JUMPDEST PUSH1 0x20 PUSH1 0x40 MLOAD DUP1 DUP4 SUB DUP2 DUP7 GAS STATICCALL ISZERO DUP1 ISZERO PUSH2 0xF30 JUMPI RETURNDATASIZE PUSH1 0x0 DUP1 RETURNDATACOPY RETURNDATASIZE PUSH1 0x0 REVERT JUMPDEST POP POP POP POP PUSH1 0x40 MLOAD RETURNDATASIZE PUSH1 0x1F NOT PUSH1 0x1F DUP3 ADD AND DUP3 ADD DUP1 PUSH1 0x40 MSTORE POP DUP2 ADD SWAP1 PUSH2 0xF54 SWAP2 SWAP1 PUSH2 0x1F87 JUMP JUMPDEST SWAP1 POP SWAP1 JUMP JUMPDEST PUSH3 0x93A80 DUP2 JUMP JUMPDEST PUSH1 0x0 DUP2 GT PUSH2 0xFA3 JUMPI PUSH1 0x40 MLOAD PUSH32 0x8C379A000000000000000000000000000000000000000000000000000000000 DUP2 MSTORE PUSH1 0x4 ADD PUSH2 0xF9A SWAP1 PUSH2 0x2319 JUMP JUMPDEST PUSH1 0x40 MLOAD DUP1 SWAP2 SUB SWAP1 REVERT JUMPDEST PUSH1 0x1 PUSH1 0x0 SWAP1 SLOAD SWAP1 PUSH2 0x100 EXP SWAP1 DIV PUSH20 0xFFFFFFFFFFFFFFFFFFFFFFFFFFFFFFFFFFFFFFFF AND PUSH20 0xFFFFFFFFFFFFFFFFFFFFFFFFFFFFFFFFFFFFFFFF AND PUSH4 0x23B872DD CALLER ADDRESS DUP5 PUSH1 0x40 MLOAD DUP5 PUSH4 0xFFFFFFFF AND PUSH1 0xE0 SHL DUP2 MSTORE PUSH1 0x4 ADD PUSH2 0x1002 SWAP4 SWAP3 SWAP2 SWAP1 PUSH2 0x27E4 JUMP JUMPDEST PUSH1 0x20 PUSH1 0x40 MLOAD DUP1 DUP4 SUB DUP2 PUSH1 0x0 DUP8 GAS CALL ISZERO DUP1 ISZERO PUSH2 0x1021 JUMPI RETURNDATASIZE PUSH1 0x0 DUP1 RETURNDATACOPY RETURNDATASIZE PUSH1 0x0 REVERT JUMPDEST POP POP POP POP PUSH1 0x40 MLOAD RETURNDATASIZE PUSH1 0x1F NOT PUSH1 0x1F DUP3 ADD AND DUP3 ADD DUP1 PUSH1 0x40 MSTORE POP DUP2 ADD SWAP1 PUSH2 0x1045 SWAP2 SWAP1 PUSH2 0x205E JUMP JUMPDEST PUSH2 0x1084 JUMPI PUSH1 0x40 MLOAD PUSH32 0x8C379A000000000000000000000000000000000000000000000000000000000 DUP2 MSTORE PUSH1 0x4 ADD PUSH2 0x107B SWAP1 PUSH2 0x20D7 JUMP JUMPDEST PUSH1 0x40 MLOAD DUP1 SWAP2 SUB SWAP1 REVERT JUMPDEST DUP1 PUSH1 0x4 PUSH1 0x0 CALLER PUSH20 0xFFFFFFFFFFFFFFFFFFFFFFFFFFFFFFFFFFFFFFFF AND PUSH20 0xFFFFFFFFFFFFFFFFFFFFFFFFFFFFFFFFFFFFFFFF AND DUP2 MSTORE PUSH1 0x20 ADD SWAP1 DUP2 MSTORE PUSH1 0x20 ADD PUSH1 0x0 KECCAK256 PUSH1 0x0 DUP3 DUP3 SLOAD PUSH2 0x10D3 SWAP2 SWAP1 PUSH2 0x2764 JUMP JUMPDEST SWAP3 POP POP DUP2 SWAP1 SSTORE POP CALLER PUSH20 0xFFFFFFFFFFFFFFFFFFFFFFFFFFFFFFFFFFFFFFFF AND PUSH32 0x2DA466A7B24304F47E87FA2E1E5A81B9831CE54FEC19055CE277CA2F39BA42C4 DUP3 PUSH1 0x40 MLOAD PUSH2 0x1120 SWAP2 SWAP1 PUSH2 0x19B3 JUMP JUMPDEST PUSH1 0x40 MLOAD DUP1 SWAP2 SUB SWAP1 LOG2 POP JUMP JUMPDEST PUSH1 0x0 PUSH1 0x3 PUSH1 0x0 DUP5 DUP2 MSTORE PUSH1 0x20 ADD SWAP1 DUP2 MSTORE PUSH1 0x20 ADD PUSH1 0x0 KECCAK256 SWAP1 POP PUSH1 0x0 DUP2 PUSH1 0x0 ADD SLOAD SUB PUSH2 0x1189 JUMPI PUSH1 0x40 MLOAD PUSH32 0x8C379A000000000000000000000000000000000000000000000000000000000 DUP2 MSTORE PUSH1 0x4 ADD PUSH2 0x1180 SWAP1 PUSH2 0x1DA2 JUMP JUMPDEST PUSH1 0x40 MLOAD DUP1 SWAP2 SUB SWAP1 REVERT JUMPDEST DUP1 PUSH1 0x9 ADD PUSH1 0x1 SWAP1 SLOAD SWAP1 PUSH2 0x100 EXP SWAP1 DIV PUSH1 0xFF AND ISZERO PUSH2 0x11DB JUMPI PUSH1 0x40 MLOAD PUSH32 0x8C379A000000000000000000000000000000000000000000000000000000000 DUP2 MSTORE PUSH1 0x4 ADD PUSH2 0x11D2 SWAP1 PUSH2 0x1E0E JUMP JUMPDEST PUSH1 0x40 MLOAD DUP1 SWAP2 SUB SWAP1 REVERT JUMPDEST DUP1 PUSH1 0x6 ADD SLOAD TIMESTAMP GT ISZERO PUSH2 0x1222 JUMPI PUSH1 0x40 MLOAD PUSH32 0x8C379A000000000000000000000000000000000000000000000000000000000 DUP2 MSTORE PUSH1 0x4 ADD PUSH2 0x1219 SWAP1 PUSH2 0x2867 JUMP JUMPDEST PUSH1 0x40 MLOAD DUP1 SWAP2 SUB SWAP1 REVERT JUMPDEST DUP1 PUSH1 0xA ADD PUSH1 0x0 CALLER PUSH20 0xFFFFFFFFFFFFFFFFFFFFFFFFFFFFFFFFFFFFFFFF AND PUSH20 0xFFFFFFFFFFFFFFFFFFFFFFFFFFFFFFFFFFFFFFFF AND DUP2 MSTORE PUSH1 0x20 ADD SWAP1 DUP2 MSTORE PUSH1 0x20 ADD PUSH1 0x0 KECCAK256 PUSH1 0x0 SWAP1 SLOAD SWAP1 PUSH2 0x100 EXP SWAP1 DIV PUSH1 0xFF AND ISZERO PUSH2 0x12B1 JUMPI PUSH1 0x40 MLOAD PUSH32 0x8C379A000000000000000000000000000000000000000000000000000000000 DUP2 MSTORE PUSH1 0x4 ADD PUSH2 0x12A8 SWAP1 PUSH2 0x28D3 JUMP JUMPDEST PUSH1 0x40 MLOAD DUP1 SWAP2 SUB SWAP1 REVERT JUMPDEST DUP1 PUSH1 0x1 ADD PUSH1 0x0 SWAP1 SLOAD SWAP1 PUSH2 0x100 EXP SWAP1 DIV PUSH20 0xFFFFFFFFFFFFFFFFFFFFFFFFFFFFFFFFFFFFFFFF AND PUSH20 0xFFFFFFFFFFFFFFFFFFFFFFFFFFFFFFFFFFFFFFFF AND CALLER PUSH20 0xFFFFFFFFFFFFFFFFFFFFFFFFFFFFFFFFFFFFFFFF AND SUB PUSH2 0x1343 JUMPI PUSH1 0x40 MLOAD PUSH32 0x8C379A000000000000000000000000000000000000000000000000000000000 DUP2 MSTORE PUSH1 0x4 ADD PUSH2 0x133A SWAP1 PUSH2 0x293F JUMP JUMPDEST PUSH1 0x40 MLOAD DUP1 SWAP2 SUB SWAP1 REVERT JUMPDEST PUSH1 0x0 PUSH1 0x1 PUSH1 0x0 SWAP1 SLOAD SWAP1 PUSH2 0x100 EXP SWAP1 DIV PUSH20 0xFFFFFFFFFFFFFFFFFFFFFFFFFFFFFFFFFFFFFFFF AND PUSH20 0xFFFFFFFFFFFFFFFFFFFFFFFFFFFFFFFFFFFFFFFF AND PUSH4 0x70A08231 CALLER PUSH1 0x40 MLOAD DUP3 PUSH4 0xFFFFFFFF AND PUSH1 0xE0 SHL DUP2 MSTORE PUSH1 0x4 ADD PUSH2 0x13A0 SWAP2 SWAP1 PUSH2 0x1BF5 JUMP JUMPDEST PUSH1 0x20 PUSH1 0x40 MLOAD DUP1 DUP4 SUB DUP2 DUP7 GAS STATICCALL ISZERO DUP1 ISZERO PUSH2 0x13BD JUMPI RETURNDATASIZE PUSH1 0x0 DUP1 RETURNDATACOPY RETURNDATASIZE PUSH1 0x0 REVERT JUMPDEST POP POP POP POP PUSH1 0x40 MLOAD RETURNDATASIZE PUSH1 0x1F NOT PUSH1 0x1F DUP3 ADD AND DUP3 ADD DUP1 PUSH1 0x40 MSTORE POP DUP2 ADD SWAP1 PUSH2 0x13E1 SWAP2 SWAP1 PUSH2 0x1F87 JUMP JUMPDEST SWAP1 POP PUSH1 0x0 DUP2 GT PUSH2 0x1426 JUMPI PUSH1 0x40 MLOAD PUSH32 0x8C379A000000000000000000000000000000000000000000000000000000000 DUP2 MSTORE PUSH1 0x4 ADD PUSH2 0x141D SWAP1 PUSH2 0x29AB JUMP JUMPDEST PUSH1 0x40 MLOAD DUP1 SWAP2 SUB SWAP1 REVERT JUMPDEST PUSH1 0x1 DUP3 PUSH1 0xA ADD PUSH1 0x0 CALLER PUSH20 0xFFFFFFFFFFFFFFFFFFFFFFFFFFFFFFFFFFFFFFFF AND PUSH20 0xFFFFFFFFFFFFFFFFFFFFFFFFFFFFFFFFFFFFFFFF AND DUP2 MSTORE PUSH1 0x20 ADD SWAP1 DUP2 MSTORE PUSH1 0x20 ADD PUSH1 0x0 KECCAK256 PUSH1 0x0 PUSH2 0x100 EXP DUP2 SLOAD DUP2 PUSH1 0xFF MUL NOT AND SWAP1 DUP4 ISZERO ISZERO MUL OR SWAP1 SSTORE POP DUP3 ISZERO PUSH2 0x14A6 JUMPI DUP1 DUP3 PUSH1 0x7 ADD PUSH1 0x0 DUP3 DUP3 SLOAD PUSH2 0x149A SWAP2 SWAP1 PUSH2 0x2764 JUMP JUMPDEST SWAP3 POP POP DUP2 SWAP1 SSTORE POP PUSH2 0x14C2 JUMP JUMPDEST DUP1 DUP3 PUSH1 0x8 ADD PUSH1 0x0 DUP3 DUP3 SLOAD PUSH2 0x14BA SWAP2 SWAP1 PUSH2 0x2764 JUMP JUMPDEST SWAP3 POP POP DUP2 SWAP1 SSTORE POP JUMPDEST DUP4 PUSH32 0x7C2DE587C00D75474A0C6C6FA96FD3B45DC974CD4E8A75F712BB84C950DCE1B5 CALLER DUP6 DUP5 PUSH1 0x40 MLOAD PUSH2 0x14F6 SWAP4 SWAP3 SWAP2 SWAP1 PUSH2 0x29CB JUMP JUMPDEST PUSH1 0x40 MLOAD DUP1 SWAP2 SUB SWAP1 LOG2 POP POP POP POP JUMP JUMPDEST PUSH10 0x10F0CF064DD59200000 DUP2 JUMP JUMPDEST PUSH1 0x2 SLOAD DUP2 JUMP JUMPDEST PUSH9 0x3635C9ADC5DEA00000 DUP2 JUMP JUMPDEST PUSH1 0x0 PUSH10 0x10F0CF064DD59200000 SWAP1 POP SWAP1 JUMP JUMPDEST PUSH2 0x153F PUSH2 0x15E3 JUMP JUMPDEST PUSH1 0x0 PUSH20 0xFFFFFFFFFFFFFFFFFFFFFFFFFFFFFFFFFFFFFFFF AND DUP2 PUSH20 0xFFFFFFFFFFFFFFFFFFFFFFFFFFFFFFFFFFFFFFFF AND SUB PUSH2 0x15B1 JUMPI PUSH1 0x0 PUSH1 0x40 MLOAD PUSH32 0x1E4FBDF700000000000000000000000000000000000000000000000000000000 DUP2 MSTORE PUSH1 0x4 ADD PUSH2 0x15A8 SWAP2 SWAP1 PUSH2 0x1BF5 JUMP JUMPDEST PUSH1 0x40 MLOAD DUP1 SWAP2 SUB SWAP1 REVERT JUMPDEST PUSH2 0x15BA DUP2 PUSH2 0x166A JUMP JUMPDEST POP JUMP JUMPDEST PUSH1 0x1 PUSH1 0x0 SWAP1 SLOAD SWAP1 PUSH2 0x100 EXP SWAP1 DIV PUSH20 0xFFFFFFFFFFFFFFFFFFFFFFFFFFFFFFFFFFFFFFFF AND DUP2 JUMP JUMPDEST PUSH2 0x15EB PUSH2 0x172E JUMP JUMPDEST PUSH20 0xFFFFFFFFFFFFFFFFFFFFFFFFFFFFFFFFFFFFFFFF AND PUSH2 0x1609 PUSH2 0xE8D JUMP JUMPDEST PUSH20 0xFFFFFFFFFFFFFFFFFFFFFFFFFFFFFFFFFFFFFFFF AND EQ PUSH2 0x1668 JUMPI PUSH2 0x162C PUSH2 0x172E JUMP JUMPDEST PUSH1 0x40 MLOAD PUSH32 0x118CDAA700000000000000000000000000000000000000000000000000000000 DUP2 MSTORE PUSH1 0x4 ADD PUSH2 0x165F SWAP2 SWAP1 PUSH2 0x1BF5 JUMP JUMPDEST PUSH1 0x40 MLOAD DUP1 SWAP2 SUB SWAP1 REVERT JUMPDEST JUMP JUMPDEST PUSH1 0x0 DUP1 PUSH1 0x0 SWAP1 SLOAD SWAP1 PUSH2 0x100 EXP SWAP1 DIV PUSH20 0xFFFFFFFFFFFFFFFFFFFFFFFFFFFFFFFFFFFFFFFF AND SWAP1 POP DUP2 PUSH1 0x0 DUP1 PUSH2 0x100 EXP DUP2 SLOAD DUP2 PUSH20 0xFFFFFFFFFFFFFFFFFFFFFFFFFFFFFFFFFFFFFFFF MUL NOT AND SWAP1 DUP4 PUSH20 0xFFFFFFFFFFFFFFFFFFFFFFFFFFFFFFFFFFFFFFFF AND MUL OR SWAP1 SSTORE POP DUP2 PUSH20 0xFFFFFFFFFFFFFFFFFFFFFFFFFFFFFFFFFFFFFFFF AND DUP2 PUSH20 0xFFFFFFFFFFFFFFFFFFFFFFFFFFFFFFFFFFFFFFFF AND PUSH32 0x8BE0079C531659141344CD1FD0A4F28419497F9722A3DAAFE3B4186F6B6457E0 PUSH1 0x40 MLOAD PUSH1 0x40 MLOAD DUP1 SWAP2 SUB SWAP1 LOG3 POP POP JUMP JUMPDEST PUSH1 0x0 CALLER SWAP1 POP SWAP1 JUMP JUMPDEST PUSH1 0x0 PUSH1 0x40 MLOAD SWAP1 POP SWAP1 JUMP JUMPDEST PUSH1 0x0 DUP1 REVERT JUMPDEST PUSH1 0x0 DUP1 REVERT JUMPDEST PUSH1 0x0 DUP2 SWAP1 POP SWAP2 SWAP1 POP JUMP JUMPDEST PUSH2 0x175D DUP2 PUSH2 0x174A JUMP JUMPDEST DUP2 EQ PUSH2 0x1768 JUMPI PUSH1 0x0 DUP1 REVERT JUMPDEST POP JUMP JUMPDEST PUSH1 0x0 DUP2 CALLDATALOAD SWAP1 POP PUSH2 0x177A DUP2 PUSH2 0x1754 JUMP JUMPDEST SWAP3 SWAP2 POP POP JUMP JUMPDEST PUSH1 0x0 PUSH1 0x20 DUP3 DUP5 SUB SLT ISZERO PUSH2 0x1796 JUMPI PUSH2 0x1795 PUSH2 0x1740 JUMP JUMPDEST JUMPDEST PUSH1 0x0 PUSH2 0x17A4 DUP5 DUP3 DUP6 ADD PUSH2 0x176B JUMP JUMPDEST SWAP2 POP POP SWAP3 SWAP2 POP POP JUMP JUMPDEST PUSH2 0x17B6 DUP2 PUSH2 0x174A JUMP JUMPDEST DUP3 MSTORE POP POP JUMP JUMPDEST PUSH1 0x0 PUSH20 0xFFFFFFFFFFFFFFFFFFFFFFFFFFFFFFFFFFFFFFFF DUP3 AND SWAP1 POP SWAP2 SWAP1 POP JUMP JUMPDEST PUSH1 0x0 PUSH2 0x17E7 DUP3 PUSH2 0x17BC JUMP JUMPDEST SWAP1 POP SWAP2 SWAP1 POP JUMP JUMPDEST PUSH2 0x17F7 DUP2 PUSH2 0x17DC JUMP JUMPDEST DUP3 MSTORE POP POP JUMP JUMPDEST PUSH1 0x0 DUP2 MLOAD SWAP1 POP SWAP2 SWAP1 POP JUMP JUMPDEST PUSH1 0x0 DUP3 DUP3 MSTORE PUSH1 0x20 DUP3 ADD SWAP1 POP SWAP3 SWAP2 POP POP JUMP JUMPDEST PUSH1 0x0 JUMPDEST DUP4 DUP2 LT ISZERO PUSH2 0x1837 JUMPI DUP1 DUP3 ADD MLOAD DUP2 DUP5 ADD MSTORE PUSH1 0x20 DUP2 ADD SWAP1 POP PUSH2 0x181C JUMP JUMPDEST PUSH1 0x0 DUP5 DUP5 ADD MSTORE POP POP POP POP JUMP JUMPDEST PUSH1 0x0 PUSH1 0x1F NOT PUSH1 0x1F DUP4 ADD AND SWAP1 POP SWAP2 SWAP1 POP JUMP JUMPDEST PUSH1 0x0 PUSH2 0x185F DUP3 PUSH2 0x17FD JUMP JUMPDEST PUSH2 0x1869 DUP2 DUP6 PUSH2 0x1808 JUMP JUMPDEST SWAP4 POP PUSH2 0x1879 DUP2 DUP6 PUSH1 0x20 DUP7 ADD PUSH2 0x1819 JUMP JUMPDEST PUSH2 0x1882 DUP2 PUSH2 0x1843 JUMP JUMPDEST DUP5 ADD SWAP2 POP POP SWAP3 SWAP2 POP POP JUMP JUMPDEST PUSH1 0x0 DUP2 ISZERO ISZERO SWAP1 POP SWAP2 SWAP1 POP JUMP JUMPDEST PUSH2 0x18A2 DUP2 PUSH2 0x188D JUMP JUMPDEST DUP3 MSTORE POP POP JUMP JUMPDEST PUSH1 0x0 PUSH2 0x160 DUP3 ADD SWAP1 POP PUSH2 0x18BE PUSH1 0x0 DUP4 ADD DUP15 PUSH2 0x17AD JUMP JUMPDEST PUSH2 0x18CB PUSH1 0x20 DUP4 ADD DUP14 PUSH2 0x17EE JUMP JUMPDEST DUP2 DUP2 SUB PUSH1 0x40 DUP4 ADD MSTORE PUSH2 0x18DD DUP2 DUP13 PUSH2 0x1854 JUMP JUMPDEST SWAP1 POP PUSH2 0x18EC PUSH1 0x60 DUP4 ADD DUP12 PUSH2 0x17EE JUMP JUMPDEST PUSH2 0x18F9 PUSH1 0x80 DUP4 ADD DUP11 PUSH2 0x17AD JUMP JUMPDEST PUSH2 0x1906 PUSH1 0xA0 DUP4 ADD DUP10 PUSH2 0x17AD JUMP JUMPDEST PUSH2 0x1913 PUSH1 0xC0 DUP4 ADD DUP9 PUSH2 0x17AD JUMP JUMPDEST PUSH2 0x1920 PUSH1 0xE0 DUP4 ADD DUP8 PUSH2 0x17AD JUMP JUMPDEST PUSH2 0x192E PUSH2 0x100 DUP4 ADD DUP7 PUSH2 0x17AD JUMP JUMPDEST PUSH2 0x193C PUSH2 0x120 DUP4 ADD DUP6 PUSH2 0x1899 JUMP JUMPDEST PUSH2 0x194A PUSH2 0x140 DUP4 ADD DUP5 PUSH2 0x1899 JUMP JUMPDEST SWAP13 SWAP12 POP POP POP POP POP POP POP POP POP POP POP POP JUMP JUMPDEST PUSH2 0x1963 DUP2 PUSH2 0x17DC JUMP JUMPDEST DUP2 EQ PUSH2 0x196E JUMPI PUSH1 0x0 DUP1 REVERT JUMPDEST POP JUMP JUMPDEST PUSH1 0x0 DUP2 CALLDATALOAD SWAP1 POP PUSH2 0x1980 DUP2 PUSH2 0x195A JUMP JUMPDEST SWAP3 SWAP2 POP POP JUMP JUMPDEST PUSH1 0x0 PUSH1 0x20 DUP3 DUP5 SUB SLT ISZERO PUSH2 0x199C JUMPI PUSH2 0x199B PUSH2 0x1740 JUMP JUMPDEST JUMPDEST PUSH1 0x0 PUSH2 0x19AA DUP5 DUP3 DUP6 ADD PUSH2 0x1971 JUMP JUMPDEST SWAP2 POP POP SWAP3 SWAP2 POP POP JUMP JUMPDEST PUSH1 0x0 PUSH1 0x20 DUP3 ADD SWAP1 POP PUSH2 0x19C8 PUSH1 0x0 DUP4 ADD DUP5 PUSH2 0x17AD JUMP JUMPDEST SWAP3 SWAP2 POP POP JUMP JUMPDEST PUSH1 0x0 DUP1 REVERT JUMPDEST PUSH1 0x0 DUP1 REVERT JUMPDEST PUSH32 0x4E487B7100000000000000000000000000000000000000000000000000000000 PUSH1 0x0 MSTORE PUSH1 0x41 PUSH1 0x4 MSTORE PUSH1 0x24 PUSH1 0x0 REVERT JUMPDEST PUSH2 0x1A10 DUP3 PUSH2 0x1843 JUMP JUMPDEST DUP2 ADD DUP2 DUP2 LT PUSH8 0xFFFFFFFFFFFFFFFF DUP3 GT OR ISZERO PUSH2 0x1A2F JUMPI PUSH2 0x1A2E PUSH2 0x19D8 JUMP JUMPDEST JUMPDEST DUP1 PUSH1 0x40 MSTORE POP POP POP JUMP JUMPDEST PUSH1 0x0 PUSH2 0x1A42 PUSH2 0x1736 JUMP JUMPDEST SWAP1 POP PUSH2 0x1A4E DUP3 DUP3 PUSH2 0x1A07 JUMP JUMPDEST SWAP2 SWAP1 POP JUMP JUMPDEST PUSH1 0x0 PUSH8 0xFFFFFFFFFFFFFFFF DUP3 GT ISZERO PUSH2 0x1A6E JUMPI PUSH2 0x1A6D PUSH2 0x19D8 JUMP JUMPDEST JUMPDEST PUSH2 0x1A77 DUP3 PUSH2 0x1843 JUMP JUMPDEST SWAP1 POP PUSH1 0x20 DUP2 ADD SWAP1 POP SWAP2 SWAP1 POP JUMP JUMPDEST DUP3 DUP2 DUP4 CALLDATACOPY PUSH1 0x0 DUP4 DUP4 ADD MSTORE POP POP POP JUMP JUMPDEST PUSH1 0x0 PUSH2 0x1AA6 PUSH2 0x1AA1 DUP5 PUSH2 0x1A53 JUMP JUMPDEST PUSH2 0x1A38 JUMP JUMPDEST SWAP1 POP DUP3 DUP2 MSTORE PUSH1 0x20 DUP2 ADD DUP5 DUP5 DUP5 ADD GT ISZERO PUSH2 0x1AC2 JUMPI PUSH2 0x1AC1 PUSH2 0x19D3 JUMP JUMPDEST JUMPDEST PUSH2 0x1ACD DUP5 DUP3 DUP6 PUSH2 0x1A84 JUMP JUMPDEST POP SWAP4 SWAP3 POP POP POP JUMP JUMPDEST PUSH1 0x0 DUP3 PUSH1 0x1F DUP4 ADD SLT PUSH2 0x1AEA JUMPI PUSH2 0x1AE9 PUSH2 0x19CE JUMP JUMPDEST JUMPDEST DUP2 CALLDATALOAD PUSH2 0x1AFA DUP5 DUP3 PUSH1 0x20 DUP7 ADD PUSH2 0x1A93 JUMP JUMPDEST SWAP2 POP POP SWAP3 SWAP2 POP POP JUMP JUMPDEST PUSH1 0x0 DUP1 PUSH1 0x0 PUSH1 0x60 DUP5 DUP7 SUB SLT ISZERO PUSH2 0x1B1C JUMPI PUSH2 0x1B1B PUSH2 0x1740 JUMP JUMPDEST JUMPDEST PUSH1 0x0 DUP5 ADD CALLDATALOAD PUSH8 0xFFFFFFFFFFFFFFFF DUP2 GT ISZERO PUSH2 0x1B3A JUMPI PUSH2 0x1B39 PUSH2 0x1745 JUMP JUMPDEST JUMPDEST PUSH2 0x1B46 DUP7 DUP3 DUP8 ADD PUSH2 0x1AD5 JUMP JUMPDEST SWAP4 POP POP PUSH1 0x20 PUSH2 0x1B57 DUP7 DUP3 DUP8 ADD PUSH2 0x1971 JUMP JUMPDEST SWAP3 POP POP PUSH1 0x40 PUSH2 0x1B68 DUP7 DUP3 DUP8 ADD PUSH2 0x176B JUMP JUMPDEST SWAP2 POP POP SWAP3 POP SWAP3 POP SWAP3 JUMP JUMPDEST PUSH1 0x0 DUP1 PUSH1 0x0 DUP1 PUSH1 0x80 DUP6 DUP8 SUB SLT ISZERO PUSH2 0x1B8C JUMPI PUSH2 0x1B8B PUSH2 0x1740 JUMP JUMPDEST JUMPDEST PUSH1 0x0 DUP6 ADD CALLDATALOAD PUSH8 0xFFFFFFFFFFFFFFFF DUP2 GT ISZERO PUSH2 0x1BAA JUMPI PUSH2 0x1BA9 PUSH2 0x1745 JUMP JUMPDEST JUMPDEST PUSH2 0x1BB6 DUP8 DUP3 DUP9 ADD PUSH2 0x1AD5 JUMP JUMPDEST SWAP5 POP POP PUSH1 0x20 PUSH2 0x1BC7 DUP8 DUP3 DUP9 ADD PUSH2 0x1971 JUMP JUMPDEST SWAP4 POP POP PUSH1 0x40 PUSH2 0x1BD8 DUP8 DUP3 DUP9 ADD PUSH2 0x176B JUMP JUMPDEST SWAP3 POP POP PUSH1 0x60 PUSH2 0x1BE9 DUP8 DUP3 DUP9 ADD PUSH2 0x176B JUMP JUMPDEST SWAP2 POP POP SWAP3 SWAP6 SWAP2 SWAP5 POP SWAP3 POP JUMP JUMPDEST PUSH1 0x0 PUSH1 0x20 DUP3 ADD SWAP1 POP PUSH2 0x1C0A PUSH1 0x0 DUP4 ADD DUP5 PUSH2 0x17EE JUMP JUMPDEST SWAP3 SWAP2 POP POP JUMP JUMPDEST PUSH2 0x1C19 DUP2 PUSH2 0x188D JUMP JUMPDEST DUP2 EQ PUSH2 0x1C24 JUMPI PUSH1 0x0 DUP1 REVERT JUMPDEST POP JUMP JUMPDEST PUSH1 0x0 DUP2 CALLDATALOAD SWAP1 POP PUSH2 0x1C36 DUP2 PUSH2 0x1C10 JUMP JUMPDEST SWAP3 SWAP2 POP POP JUMP JUMPDEST PUSH1 0x0 DUP1 PUSH1 0x40 DUP4 DUP6 SUB SLT ISZERO PUSH2 0x1C53 JUMPI PUSH2 0x1C52 PUSH2 0x1740 JUMP JUMPDEST JUMPDEST PUSH1 0x0 PUSH2 0x1C61 DUP6 DUP3 DUP7 ADD PUSH2 0x176B JUMP JUMPDEST SWAP3 POP POP PUSH1 0x20 PUSH2 0x1C72 DUP6 DUP3 DUP7 ADD PUSH2 0x1C27 JUMP JUMPDEST SWAP2 POP POP SWAP3 POP SWAP3 SWAP1 POP JUMP JUMPDEST PUSH1 0x0 DUP2 SWAP1 POP SWAP2 SWAP1 POP JUMP JUMPDEST PUSH1 0x0 PUSH2 0x1CA1 PUSH2 0x1C9C PUSH2 0x1C97 DUP5 PUSH2 0x17BC JUMP JUMPDEST PUSH2 0x1C7C JUMP JUMPDEST PUSH2 0x17BC JUMP JUMPDEST SWAP1 POP SWAP2 SWAP1 POP JUMP JUMPDEST PUSH1 0x0 PUSH2 0x1CB3 DUP3 PUSH2 0x1C86 JUMP JUMPDEST SWAP1 POP SWAP2 SWAP1 POP JUMP JUMPDEST PUSH1 0x0 PUSH2 0x1CC5 DUP3 PUSH2 0x1CA8 JUMP JUMPDEST SWAP1 POP SWAP2 SWAP1 POP JUMP JUMPDEST PUSH2 0x1CD5 DUP2 PUSH2 0x1CBA JUMP JUMPDEST DUP3 MSTORE POP POP JUMP JUMPDEST PUSH1 0x0 PUSH1 0x20 DUP3 ADD SWAP1 POP PUSH2 0x1CF0 PUSH1 0x0 DUP4 ADD DUP5 PUSH2 0x1CCC JUMP JUMPDEST SWAP3 SWAP2 POP POP JUMP JUMPDEST PUSH32 0x4E487B7100000000000000000000000000000000000000000000000000000000 PUSH1 0x0 MSTORE PUSH1 0x22 PUSH1 0x4 MSTORE PUSH1 0x24 PUSH1 0x0 REVERT JUMPDEST PUSH1 0x0 PUSH1 0x2 DUP3 DIV SWAP1 POP PUSH1 0x1 DUP3 AND DUP1 PUSH2 0x1D3D JUMPI PUSH1 0x7F DUP3 AND SWAP2 POP JUMPDEST PUSH1 0x20 DUP3 LT DUP2 SUB PUSH2 0x1D50 JUMPI PUSH2 0x1D4F PUSH2 0x1CF6 JUMP JUMPDEST JUMPDEST POP SWAP2 SWAP1 POP JUMP JUMPDEST PUSH32 0x50726F706F73616C20646F6573206E6F74206578697374000000000000000000 PUSH1 0x0 DUP3 ADD MSTORE POP JUMP JUMPDEST PUSH1 0x0 PUSH2 0x1D8C PUSH1 0x17 DUP4 PUSH2 0x1808 JUMP JUMPDEST SWAP2 POP PUSH2 0x1D97 DUP3 PUSH2 0x1D56 JUMP JUMPDEST PUSH1 0x20 DUP3 ADD SWAP1 POP SWAP2 SWAP1 POP JUMP JUMPDEST PUSH1 0x0 PUSH1 0x20 DUP3 ADD SWAP1 POP DUP2 DUP2 SUB PUSH1 0x0 DUP4 ADD MSTORE PUSH2 0x1DBB DUP2 PUSH2 0x1D7F JUMP JUMPDEST SWAP1 POP SWAP2 SWAP1 POP JUMP JUMPDEST PUSH32 0x50726F706F73616C20686173206265656E2064656C6574656400000000000000 PUSH1 0x0 DUP3 ADD MSTORE POP JUMP JUMPDEST PUSH1 0x0 PUSH2 0x1DF8 PUSH1 0x19 DUP4 PUSH2 0x1808 JUMP JUMPDEST SWAP2 POP PUSH2 0x1E03 DUP3 PUSH2 0x1DC2 JUMP JUMPDEST PUSH1 0x20 DUP3 ADD SWAP1 POP SWAP2 SWAP1 POP JUMP JUMPDEST PUSH1 0x0 PUSH1 0x20 DUP3 ADD SWAP1 POP DUP2 DUP2 SUB PUSH1 0x0 DUP4 ADD MSTORE PUSH2 0x1E27 DUP2 PUSH2 0x1DEB JUMP JUMPDEST SWAP1 POP SWAP2 SWAP1 POP JUMP JUMPDEST PUSH32 0x566F74696E6720706572696F64206E6F7420656E646564000000000000000000 PUSH1 0x0 DUP3 ADD MSTORE POP JUMP JUMPDEST PUSH1 0x0 PUSH2 0x1E64 PUSH1 0x17 DUP4 PUSH2 0x1808 JUMP JUMPDEST SWAP2 POP PUSH2 0x1E6F DUP3 PUSH2 0x1E2E JUMP JUMPDEST PUSH1 0x20 DUP3 ADD SWAP1 POP SWAP2 SWAP1 POP JUMP JUMPDEST PUSH1 0x0 PUSH1 0x20 DUP3 ADD SWAP1 POP DUP2 DUP2 SUB PUSH1 0x0 DUP4 ADD MSTORE PUSH2 0x1E93 DUP2 PUSH2 0x1E57 JUMP JUMPDEST SWAP1 POP SWAP2 SWAP1 POP JUMP JUMPDEST PUSH32 0x50726F706F73616C20616C726561647920657865637574656400000000000000 PUSH1 0x0 DUP3 ADD MSTORE POP JUMP JUMPDEST PUSH1 0x0 PUSH2 0x1ED0 PUSH1 0x19 DUP4 PUSH2 0x1808 JUMP JUMPDEST SWAP2 POP PUSH2 0x1EDB DUP3 PUSH2 0x1E9A JUMP JUMPDEST PUSH1 0x20 DUP3 ADD SWAP1 POP SWAP2 SWAP1 POP JUMP JUMPDEST PUSH1 0x0 PUSH1 0x20 DUP3 ADD SWAP1 POP DUP2 DUP2 SUB PUSH1 0x0 DUP4 ADD MSTORE PUSH2 0x1EFF DUP2 PUSH2 0x1EC3 JUMP JUMPDEST SWAP1 POP SWAP2 SWAP1 POP JUMP JUMPDEST PUSH32 0x50726F706F73616C206E6F7420617070726F7665640000000000000000000000 PUSH1 0x0 DUP3 ADD MSTORE POP JUMP JUMPDEST PUSH1 0x0 PUSH2 0x1F3C PUSH1 0x15 DUP4 PUSH2 0x1808 JUMP JUMPDEST SWAP2 POP PUSH2 0x1F47 DUP3 PUSH2 0x1F06 JUMP JUMPDEST PUSH1 0x20 DUP3 ADD SWAP1 POP SWAP2 SWAP1 POP JUMP JUMPDEST PUSH1 0x0 PUSH1 0x20 DUP3 ADD SWAP1 POP DUP2 DUP2 SUB PUSH1 0x0 DUP4 ADD MSTORE PUSH2 0x1F6B DUP2 PUSH2 0x1F2F JUMP JUMPDEST SWAP1 POP SWAP2 SWAP1 POP JUMP JUMPDEST PUSH1 0x0 DUP2 MLOAD SWAP1 POP PUSH2 0x1F81 DUP2 PUSH2 0x1754 JUMP JUMPDEST SWAP3 SWAP2 POP POP JUMP JUMPDEST PUSH1 0x0 PUSH1 0x20 DUP3 DUP5 SUB SLT ISZERO PUSH2 0x1F9D JUMPI PUSH2 0x1F9C PUSH2 0x1740 JUMP JUMPDEST JUMPDEST PUSH1 0x0 PUSH2 0x1FAB DUP5 DUP3 DUP6 ADD PUSH2 0x1F72 JUMP JUMPDEST SWAP2 POP POP SWAP3 SWAP2 POP POP JUMP JUMPDEST PUSH32 0x496E73756666696369656E742074726561737572792062616C616E6365000000 PUSH1 0x0 DUP3 ADD MSTORE POP JUMP JUMPDEST PUSH1 0x0 PUSH2 0x1FEA PUSH1 0x1D DUP4 PUSH2 0x1808 JUMP JUMPDEST SWAP2 POP PUSH2 0x1FF5 DUP3 PUSH2 0x1FB4 JUMP JUMPDEST PUSH1 0x20 DUP3 ADD SWAP1 POP SWAP2 SWAP1 POP JUMP JUMPDEST PUSH1 0x0 PUSH1 0x20 DUP3 ADD SWAP1 POP DUP2 DUP2 SUB PUSH1 0x0 DUP4 ADD MSTORE PUSH2 0x2019 DUP2 PUSH2 0x1FDD JUMP JUMPDEST SWAP1 POP SWAP2 SWAP1 POP JUMP JUMPDEST PUSH1 0x0 PUSH1 0x40 DUP3 ADD SWAP1 POP PUSH2 0x2035 PUSH1 0x0 DUP4 ADD DUP6 PUSH2 0x17EE JUMP JUMPDEST PUSH2 0x2042 PUSH1 0x20 DUP4 ADD DUP5 PUSH2 0x17AD JUMP JUMPDEST SWAP4 SWAP3 POP POP POP JUMP JUMPDEST PUSH1 0x0 DUP2 MLOAD SWAP1 POP PUSH2 0x2058 DUP2 PUSH2 0x1C10 JUMP JUMPDEST SWAP3 SWAP2 POP POP JUMP JUMPDEST PUSH1 0x0 PUSH1 0x20 DUP3 DUP5 SUB SLT ISZERO PUSH2 0x2074 JUMPI PUSH2 0x2073 PUSH2 0x1740 JUMP JUMPDEST JUMPDEST PUSH1 0x0 PUSH2 0x2082 DUP5 DUP3 DUP6 ADD PUSH2 0x2049 JUMP JUMPDEST SWAP2 POP POP SWAP3 SWAP2 POP POP JUMP JUMPDEST PUSH32 0x5472616E73666572206661696C65640000000000000000000000000000000000 PUSH1 0x0 DUP3 ADD MSTORE POP JUMP JUMPDEST PUSH1 0x0 PUSH2 0x20C1 PUSH1 0xF DUP4 PUSH2 0x1808 JUMP JUMPDEST SWAP2 POP PUSH2 0x20CC DUP3 PUSH2 0x208B JUMP JUMPDEST PUSH1 0x20 DUP3 ADD SWAP1 POP SWAP2 SWAP1 POP JUMP JUMPDEST PUSH1 0x0 PUSH1 0x20 DUP3 ADD SWAP1 POP DUP2 DUP2 SUB PUSH1 0x0 DUP4 ADD MSTORE PUSH2 0x20F0 DUP2 PUSH2 0x20B4 JUMP JUMPDEST SWAP1 POP SWAP2 SWAP1 POP JUMP JUMPDEST PUSH32 0x43616E6E6F742064656C6574652065786563757465642070726F706F73616C00 PUSH1 0x0 DUP3 ADD MSTORE POP JUMP JUMPDEST PUSH1 0x0 PUSH2 0x212D PUSH1 0x1F DUP4 PUSH2 0x1808 JUMP JUMPDEST SWAP2 POP PUSH2 0x2138 DUP3 PUSH2 0x20F7 JUMP JUMPDEST PUSH1 0x20 DUP3 ADD SWAP1 POP SWAP2 SWAP1 POP JUMP JUMPDEST PUSH1 0x0 PUSH1 0x20 DUP3 ADD SWAP1 POP DUP2 DUP2 SUB PUSH1 0x0 DUP4 ADD MSTORE PUSH2 0x215C DUP2 PUSH2 0x2120 JUMP JUMPDEST SWAP1 POP SWAP2 SWAP1 POP JUMP JUMPDEST PUSH32 0x50726F706F73616C20616C72656164792064656C657465640000000000000000 PUSH1 0x0 DUP3 ADD MSTORE POP JUMP JUMPDEST PUSH1 0x0 PUSH2 0x2199 PUSH1 0x18 DUP4 PUSH2 0x1808 JUMP JUMPDEST SWAP2 POP PUSH2 0x21A4 DUP3 PUSH2 0x2163 JUMP JUMPDEST PUSH1 0x20 DUP3 ADD SWAP1 POP SWAP2 SWAP1 POP JUMP JUMPDEST PUSH1 0x0 PUSH1 0x20 DUP3 ADD SWAP1 POP DUP2 DUP2 SUB PUSH1 0x0 DUP4 ADD MSTORE PUSH2 0x21C8 DUP2 PUSH2 0x218C JUMP JUMPDEST SWAP1 POP SWAP2 SWAP1 POP JUMP JUMPDEST PUSH32 0x496E73756666696369656E7420746F6B656E7320746F20766F74650000000000 PUSH1 0x0 DUP3 ADD MSTORE POP JUMP JUMPDEST PUSH1 0x0 PUSH2 0x2205 PUSH1 0x1B DUP4 PUSH2 0x1808 JUMP JUMPDEST SWAP2 POP PUSH2 0x2210 DUP3 PUSH2 0x21CF JUMP JUMPDEST PUSH1 0x20 DUP3 ADD SWAP1 POP SWAP2 SWAP1 POP JUMP JUMPDEST PUSH1 0x0 PUSH1 0x20 DUP3 ADD SWAP1 POP DUP2 DUP2 SUB PUSH1 0x0 DUP4 ADD MSTORE PUSH2 0x2234 DUP2 PUSH2 0x21F8 JUMP JUMPDEST SWAP1 POP SWAP2 SWAP1 POP JUMP JUMPDEST PUSH32 0x4D757374206465706F736974206174206C6561737420353030302044544B2074 PUSH1 0x0 DUP3 ADD MSTORE PUSH32 0x6F206372656174652070726F706F73616C730000000000000000000000000000 PUSH1 0x20 DUP3 ADD MSTORE POP JUMP JUMPDEST PUSH1 0x0 PUSH2 0x2297 PUSH1 0x32 DUP4 PUSH2 0x1808 JUMP JUMPDEST SWAP2 POP PUSH2 0x22A2 DUP3 PUSH2 0x223B JUMP JUMPDEST PUSH1 0x40 DUP3 ADD SWAP1 POP SWAP2 SWAP1 POP JUMP JUMPDEST PUSH1 0x0 PUSH1 0x20 DUP3 ADD SWAP1 POP DUP2 DUP2 SUB PUSH1 0x0 DUP4 ADD MSTORE PUSH2 0x22C6 DUP2 PUSH2 0x228A JUMP JUMPDEST SWAP1 POP SWAP2 SWAP1 POP JUMP JUMPDEST PUSH32 0x416D6F756E74206D7573742062652067726561746572207468616E2030000000 PUSH1 0x0 DUP3 ADD MSTORE POP JUMP JUMPDEST PUSH1 0x0 PUSH2 0x2303 PUSH1 0x1D DUP4 PUSH2 0x1808 JUMP JUMPDEST SWAP2 POP PUSH2 0x230E DUP3 PUSH2 0x22CD JUMP JUMPDEST PUSH1 0x20 DUP3 ADD SWAP1 POP SWAP2 SWAP1 POP JUMP JUMPDEST PUSH1 0x0 PUSH1 0x20 DUP3 ADD SWAP1 POP DUP2 DUP2 SUB PUSH1 0x0 DUP4 ADD MSTORE PUSH2 0x2332 DUP2 PUSH2 0x22F6 JUMP JUMPDEST SWAP1 POP SWAP2 SWAP1 POP JUMP JUMPDEST PUSH32 0x496E76616C696420726563697069656E74000000000000000000000000000000 PUSH1 0x0 DUP3 ADD MSTORE POP JUMP JUMPDEST PUSH1 0x0 PUSH2 0x236F PUSH1 0x11 DUP4 PUSH2 0x1808 JUMP JUMPDEST SWAP2 POP PUSH2 0x237A DUP3 PUSH2 0x2339 JUMP JUMPDEST PUSH1 0x20 DUP3 ADD SWAP1 POP SWAP2 SWAP1 POP JUMP JUMPDEST PUSH1 0x0 PUSH1 0x20 DUP3 ADD SWAP1 POP DUP2 DUP2 SUB PUSH1 0x0 DUP4 ADD MSTORE PUSH2 0x239E DUP2 PUSH2 0x2362 JUMP JUMPDEST SWAP1 POP SWAP2 SWAP1 POP JUMP JUMPDEST PUSH32 0x566F74696E67206475726174696F6E206D757374206265206772656174657220 PUSH1 0x0 DUP3 ADD MSTORE PUSH32 0x7468616E20300000000000000000000000000000000000000000000000000000 PUSH1 0x20 DUP3 ADD MSTORE POP JUMP JUMPDEST PUSH1 0x0 PUSH2 0x2401 PUSH1 0x26 DUP4 PUSH2 0x1808 JUMP JUMPDEST SWAP2 POP PUSH2 0x240C DUP3 PUSH2 0x23A5 JUMP JUMPDEST PUSH1 0x40 DUP3 ADD SWAP1 POP SWAP2 SWAP1 POP JUMP JUMPDEST PUSH1 0x0 PUSH1 0x20 DUP3 ADD SWAP1 POP DUP2 DUP2 SUB PUSH1 0x0 DUP4 ADD MSTORE PUSH2 0x2430 DUP2 PUSH2 0x23F4 JUMP JUMPDEST SWAP1 POP SWAP2 SWAP1 POP JUMP JUMPDEST PUSH32 0x4E487B7100000000000000000000000000000000000000000000000000000000 PUSH1 0x0 MSTORE PUSH1 0x11 PUSH1 0x4 MSTORE PUSH1 0x24 PUSH1 0x0 REVERT JUMPDEST PUSH1 0x0 PUSH2 0x2471 DUP3 PUSH2 0x174A JUMP JUMPDEST SWAP2 POP PUSH2 0x247C DUP4 PUSH2 0x174A JUMP JUMPDEST SWAP3 POP DUP3 DUP3 MUL PUSH2 0x248A DUP2 PUSH2 0x174A JUMP JUMPDEST SWAP2 POP DUP3 DUP3 DIV DUP5 EQ DUP4 ISZERO OR PUSH2 0x24A1 JUMPI PUSH2 0x24A0 PUSH2 0x2437 JUMP JUMPDEST JUMPDEST POP SWAP3 SWAP2 POP POP JUMP JUMPDEST PUSH1 0x0 PUSH2 0x24B3 DUP3 PUSH2 0x174A JUMP JUMPDEST SWAP2 POP PUSH32 0xFFFFFFFFFFFFFFFFFFFFFFFFFFFFFFFFFFFFFFFFFFFFFFFFFFFFFFFFFFFFFFFF DUP3 SUB PUSH2 0x24E5 JUMPI PUSH2 0x24E4 PUSH2 0x2437 JUMP JUMPDEST JUMPDEST PUSH1 0x1 DUP3 ADD SWAP1 POP SWAP2 SWAP1 POP JUMP JUMPDEST PUSH1 0x0 DUP2 SWAP1 POP DUP2 PUSH1 0x0 MSTORE PUSH1 0x20 PUSH1 0x0 KECCAK256 SWAP1 POP SWAP2 SWAP1 POP JUMP JUMPDEST PUSH1 0x0 PUSH1 0x20 PUSH1 0x1F DUP4 ADD DIV SWAP1 POP SWAP2 SWAP1 POP JUMP JUMPDEST PUSH1 0x0 DUP3 DUP3 SHL SWAP1 POP SWAP3 SWAP2 POP POP JUMP JUMPDEST PUSH1 0x0 PUSH1 0x8 DUP4 MUL PUSH2 0x2552 PUSH32 0xFFFFFFFFFFFFFFFFFFFFFFFFFFFFFFFFFFFFFFFFFFFFFFFFFFFFFFFFFFFFFFFF DUP3 PUSH2 0x2515 JUMP JUMPDEST PUSH2 0x255C DUP7 DUP4 PUSH2 0x2515 JUMP JUMPDEST SWAP6 POP DUP1 NOT DUP5 AND SWAP4 POP DUP1 DUP7 AND DUP5 OR SWAP3 POP POP POP SWAP4 SWAP3 POP POP POP JUMP JUMPDEST PUSH1 0x0 PUSH2 0x258F PUSH2 0x258A PUSH2 0x2585 DUP5 PUSH2 0x174A JUMP JUMPDEST PUSH2 0x1C7C JUMP JUMPDEST PUSH2 0x174A JUMP JUMPDEST SWAP1 POP SWAP2 SWAP1 POP JUMP JUMPDEST PUSH1 0x0 DUP2 SWAP1 POP SWAP2 SWAP1 POP JUMP JUMPDEST PUSH2 0x25A9 DUP4 PUSH2 0x2574 JUMP JUMPDEST PUSH2 0x25BD PUSH2 0x25B5 DUP3 PUSH2 0x2596 JUMP JUMPDEST DUP5 DUP5 SLOAD PUSH2 0x2522 JUMP JUMPDEST DUP3 SSTORE POP POP POP POP JUMP JUMPDEST PUSH1 0x0 SWAP1 JUMP JUMPDEST PUSH2 0x25D2 PUSH2 0x25C5 JUMP JUMPDEST PUSH2 0x25DD DUP2 DUP5 DUP5 PUSH2 0x25A0 JUMP JUMPDEST POP POP POP JUMP JUMPDEST JUMPDEST DUP2 DUP2 LT ISZERO PUSH2 0x2601 JUMPI PUSH2 0x25F6 PUSH1 0x0 DUP3 PUSH2 0x25CA JUMP JUMPDEST PUSH1 0x1 DUP2 ADD SWAP1 POP PUSH2 0x25E3 JUMP JUMPDEST POP POP JUMP JUMPDEST PUSH1 0x1F DUP3 GT ISZERO PUSH2 0x2646 JUMPI PUSH2 0x2617 DUP2 PUSH2 0x24F0 JUMP JUMPDEST PUSH2 0x2620 DUP5 PUSH2 0x2505 JUMP JUMPDEST DUP2 ADD PUSH1 0x20 DUP6 LT ISZERO PUSH2 0x262F JUMPI DUP2 SWAP1 POP JUMPDEST PUSH2 0x2643 PUSH2 0x263B DUP6 PUSH2 0x2505 JUMP JUMPDEST DUP4 ADD DUP3 PUSH2 0x25E2 JUMP JUMPDEST POP POP JUMPDEST POP POP POP JUMP JUMPDEST PUSH1 0x0 DUP3 DUP3 SHR SWAP1 POP SWAP3 SWAP2 POP POP JUMP JUMPDEST PUSH1 0x0 PUSH2 0x2669 PUSH1 0x0 NOT DUP5 PUSH1 0x8 MUL PUSH2 0x264B JUMP JUMPDEST NOT DUP1 DUP4 AND SWAP2 POP POP SWAP3 SWAP2 POP POP JUMP JUMPDEST PUSH1 0x0 PUSH2 0x2682 DUP4 DUP4 PUSH2 0x2658 JUMP JUMPDEST SWAP2 POP DUP3 PUSH1 0x2 MUL DUP3 OR SWAP1 POP SWAP3 SWAP2 POP POP JUMP JUMPDEST PUSH2 0x269B DUP3 PUSH2 0x17FD JUMP JUMPDEST PUSH8 0xFFFFFFFFFFFFFFFF DUP2 GT ISZERO PUSH2 0x26B4 JUMPI PUSH2 0x26B3 PUSH2 0x19D8 JUMP JUMPDEST JUMPDEST PUSH2 0x26BE DUP3 SLOAD PUSH2 0x1D25 JUMP JUMPDEST PUSH2 0x26C9 DUP3 DUP3 DUP6 PUSH2 0x2605 JUMP JUMPDEST PUSH1 0x0 PUSH1 0x20 SWAP1 POP PUSH1 0x1F DUP4 GT PUSH1 0x1 DUP2 EQ PUSH2 0x26FC JUMPI PUSH1 0x0 DUP5 ISZERO PUSH2 0x26EA JUMPI DUP3 DUP8 ADD MLOAD SWAP1 POP JUMPDEST PUSH2 0x26F4 DUP6 DUP3 PUSH2 0x2676 JUMP JUMPDEST DUP7 SSTORE POP PUSH2 0x275C JUMP JUMPDEST PUSH1 0x1F NOT DUP5 AND PUSH2 0x270A DUP7 PUSH2 0x24F0 JUMP JUMPDEST PUSH1 0x0 JUMPDEST DUP3 DUP2 LT ISZERO PUSH2 0x2732 JUMPI DUP5 DUP10 ADD MLOAD DUP3 SSTORE PUSH1 0x1 DUP3 ADD SWAP2 POP PUSH1 0x20 DUP6 ADD SWAP5 POP PUSH1 0x20 DUP2 ADD SWAP1 POP PUSH2 0x270D JUMP JUMPDEST DUP7 DUP4 LT ISZERO PUSH2 0x274F JUMPI DUP5 DUP10 ADD MLOAD PUSH2 0x274B PUSH1 0x1F DUP10 AND DUP3 PUSH2 0x2658 JUMP JUMPDEST DUP4 SSTORE POP JUMPDEST PUSH1 0x1 PUSH1 0x2 DUP9 MUL ADD DUP9 SSTORE POP POP POP JUMPDEST POP POP POP POP POP POP JUMP JUMPDEST PUSH1 0x0 PUSH2 0x276F DUP3 PUSH2 0x174A JUMP JUMPDEST SWAP2 POP PUSH2 0x277A DUP4 PUSH2 0x174A JUMP JUMPDEST SWAP3 POP DUP3 DUP3 ADD SWAP1 POP DUP1 DUP3 GT ISZERO PUSH2 0x2792 JUMPI PUSH2 0x2791 PUSH2 0x2437 JUMP JUMPDEST JUMPDEST SWAP3 SWAP2 POP POP JUMP JUMPDEST PUSH1 0x0 PUSH1 0x80 DUP3 ADD SWAP1 POP PUSH2 0x27AD PUSH1 0x0 DUP4 ADD DUP8 PUSH2 0x17EE JUMP JUMPDEST DUP2 DUP2 SUB PUSH1 0x20 DUP4 ADD MSTORE PUSH2 0x27BF DUP2 DUP7 PUSH2 0x1854 JUMP JUMPDEST SWAP1 POP PUSH2 0x27CE PUSH1 0x40 DUP4 ADD DUP6 PUSH2 0x17EE JUMP JUMPDEST PUSH2 0x27DB PUSH1 0x60 DUP4 ADD DUP5 PUSH2 0x17AD JUMP JUMPDEST SWAP6 SWAP5 POP POP POP POP POP JUMP JUMPDEST PUSH1 0x0 PUSH1 0x60 DUP3 ADD SWAP1 POP PUSH2 0x27F9 PUSH1 0x0 DUP4 ADD DUP7 PUSH2 0x17EE JUMP JUMPDEST PUSH2 0x2806 PUSH1 0x20 DUP4 ADD DUP6 PUSH2 0x17EE JUMP JUMPDEST PUSH2 0x2813 PUSH1 0x40 DUP4 ADD DUP5 PUSH2 0x17AD JUMP JUMPDEST SWAP5 SWAP4 POP POP POP POP JUMP JUMPDEST PUSH32 0x566F74696E6720706572696F6420656E64656400000000000000000000000000 PUSH1 0x0 DUP3 ADD MSTORE POP JUMP JUMPDEST PUSH1 0x0 PUSH2 0x2851 PUSH1 0x13 DUP4 PUSH2 0x1808 JUMP JUMPDEST SWAP2 POP PUSH2 0x285C DUP3 PUSH2 0x281B JUMP JUMPDEST PUSH1 0x20 DUP3 ADD SWAP1 POP SWAP2 SWAP1 POP JUMP JUMPDEST PUSH1 0x0 PUSH1 0x20 DUP3 ADD SWAP1 POP DUP2 DUP2 SUB PUSH1 0x0 DUP4 ADD MSTORE PUSH2 0x2880 DUP2 PUSH2 0x2844 JUMP JUMPDEST SWAP1 POP SWAP2 SWAP1 POP JUMP JUMPDEST PUSH32 0x416C726561647920766F74656400000000000000000000000000000000000000 PUSH1 0x0 DUP3 ADD MSTORE POP JUMP JUMPDEST PUSH1 0x0 PUSH2 0x28BD PUSH1 0xD DUP4 PUSH2 0x1808 JUMP JUMPDEST SWAP2 POP PUSH2 0x28C8 DUP3 PUSH2 0x2887 JUMP JUMPDEST PUSH1 0x20 DUP3 ADD SWAP1 POP SWAP2 SWAP1 POP JUMP JUMPDEST PUSH1 0x0 PUSH1 0x20 DUP3 ADD SWAP1 POP DUP2 DUP2 SUB PUSH1 0x0 DUP4 ADD MSTORE PUSH2 0x28EC DUP2 PUSH2 0x28B0 JUMP JUMPDEST SWAP1 POP SWAP2 SWAP1 POP JUMP JUMPDEST PUSH32 0x43616E6E6F7420766F7465206F6E206F776E2070726F706F73616C0000000000 PUSH1 0x0 DUP3 ADD MSTORE POP JUMP JUMPDEST PUSH1 0x0 PUSH2 0x2929 PUSH1 0x1B DUP4 PUSH2 0x1808 JUMP JUMPDEST SWAP2 POP PUSH2 0x2934 DUP3 PUSH2 0x28F3 JUMP JUMPDEST PUSH1 0x20 DUP3 ADD SWAP1 POP SWAP2 SWAP1 POP JUMP JUMPDEST PUSH1 0x0 PUSH1 0x20 DUP3 ADD SWAP1 POP DUP2 DUP2 SUB PUSH1 0x0 DUP4 ADD MSTORE PUSH2 0x2958 DUP2 PUSH2 0x291C JUMP JUMPDEST SWAP1 POP SWAP2 SWAP1 POP JUMP JUMPDEST PUSH32 0x4E6F20746F6B656E7320746F20766F7465000000000000000000000000000000 PUSH1 0x0 DUP3 ADD MSTORE POP JUMP JUMPDEST PUSH1 0x0 PUSH2 0x2995 PUSH1 0x11 DUP4 PUSH2 0x1808 JUMP JUMPDEST SWAP2 POP PUSH2 0x29A0 DUP3 PUSH2 0x295F JUMP JUMPDEST PUSH1 0x20 DUP3 ADD SWAP1 POP SWAP2 SWAP1 POP JUMP JUMPDEST PUSH1 0x0 PUSH1 0x20 DUP3 ADD SWAP1 POP DUP2 DUP2 SUB PUSH1 0x0 DUP4 ADD MSTORE PUSH2 0x29C4 DUP2 PUSH2 0x2988 JUMP JUMPDEST SWAP1 POP SWAP2 SWAP1 POP JUMP JUMPDEST PUSH1 0x0 PUSH1 0x60 DUP3 ADD SWAP1 POP PUSH2 0x29E0 PUSH1 0x0 DUP4 ADD DUP7 PUSH2 0x17EE JUMP JUMPDEST PUSH2 0x29ED PUSH1 0x20 DUP4 ADD DUP6 PUSH2 0x1899 JUMP JUMPDEST PUSH2 0x29FA PUSH1 0x40 DUP4 ADD DUP5 PUSH2 0x17AD JUMP JUMPDEST SWAP5 SWAP4 POP POP POP POP JUMP INVALID LOG2 PUSH5 0x6970667358 0x22 SLT KECCAK256 PUSH12 0x484285618452640896C1A91D 0xFB 0xFB 0xC5 0xDD 0xD0 PUSH24 0xBF3B0B5C4084A2D0E5DD9555DE64736F6C634300081C0033 "},"methodIdentifiers":{"MINIMUM_DEPOSIT_FOR_PROPOSAL()":"cf76e8e1","MINIMUM_TOKENS()":"e0c44e76","VOTING_PERIOD()":"b1610d7e","createProposal(string,address,uint256)":"831c43ac","createProposal(string,address,uint256,uint256)":"8743dae6","deleteProposal(uint256)":"8259d553","deposit(uint256)":"b6b55f25","executeProposal(uint256)":"0d61b519","getMinimumDepositForProposal()":"e9b01f8e","getTreasuryBalance()":"9b5655dc","getUserDeposits(address)":"2a5bf6d2","owner()":"8da5cb5b","proposalCount()":"da35c664","proposals(uint256)":"013cf08b","renounceOwnership()":"715018a6","token()":"fc0c546a","transferOwnership(address)":"f2fde38b","userDeposits(address)":"0ba36dcd","vote(uint256,bool)":"c9d27afe"}}}}}