{
  "_format": "hh-sol-artifact-1",
  "contractName": "DAOTreasury",
  "sourceName": "contracts/DAOTreasury.sol",
  "abi": [
    {
      "inputs": [
        {
          "internalType": "address",
          "name": "_token",
          "type": "address"
        }
      ],
      "stateMutability": "nonpayable",
      "type": "constructor"
    },
    {
      "inputs": [
        {
          "internalType": "address",
          "name": "owner",
          "type": "address"
        }
      ],
      "name": "OwnableInvalidOwner",
      "type": "error"
    },
    {
      "inputs": [
        {
          "internalType": "address",
          "name": "account",
          "type": "address"
        }
      ],
      "name": "OwnableUnauthorizedAccount",
      "type": "error"
    },
    {
      "anonymous": false,
      "inputs": [
        {
          "indexed": true,
          "internalType": "address",
          "name": "sender",
          "type": "address"
        },
        {
          "indexed": false,
          "internalType": "uint256",
          "name": "amount",
          "type": "uint256"
        }
      ],
      "name": "Deposited",
      "type": "event"
    },
    {
      "anonymous": false,
      "inputs": [
        {
          "indexed": true,
          "internalType": "address",
          "name": "previousOwner",
          "type": "address"
        },
        {
          "indexed": true,
          "internalType": "address",
          "name": "newOwner",
          "type": "address"
        }
      ],
      "name": "OwnershipTransferred",
      "type": "event"
    },
    {
      "anonymous": false,
      "inputs": [
        {
          "indexed": true,
          "internalType": "uint256",
          "name": "proposalId",
          "type": "uint256"
        },
        {
          "indexed": false,
          "internalType": "address",
          "name": "proposer",
          "type": "address"
        },
        {
          "indexed": false,
          "internalType": "string",
          "name": "description",
          "type": "string"
        },
        {
          "indexed": false,
          "internalType": "address",
          "name": "recipient",
          "type": "address"
        },
        {
          "indexed": false,
          "internalType": "uint256",
          "name": "amount",
          "type": "uint256"
        }
      ],
      "name": "ProposalCreated",
      "type": "event"
    },
    {
      "anonymous": false,
      "inputs": [
        {
          "indexed": true,
          "internalType": "uint256",
          "name": "proposalId",
          "type": "uint256"
        }
      ],
      "name": "ProposalDeleted",
      "type": "event"
    },
    {
      "anonymous": false,
      "inputs": [
        {
          "indexed": true,
          "internalType": "uint256",
          "name": "proposalId",
          "type": "uint256"
        },
        {
          "indexed": false,
          "internalType": "address",
          "name": "recipient",
          "type": "address"
        },
        {
          "indexed": false,
          "internalType": "uint256",
          "name": "amount",
          "type": "uint256"
        }
      ],
      "name": "ProposalExecuted",
      "type": "event"
    },
    {
      "anonymous": false,
      "inputs": [
        {
          "indexed": true,
          "internalType": "uint256",
          "name": "proposalId",
          "type": "uint256"
        },
        {
          "indexed": false,
          "internalType": "address",
          "name": "voter",
          "type": "address"
        },
        {
          "indexed": false,
          "internalType": "bool",
          "name": "support",
          "type": "bool"
        },
        {
          "indexed": false,
          "internalType": "uint256",
          "name": "weight",
          "type": "uint256"
        }
      ],
      "name": "Voted",
      "type": "event"
    },
    {
      "inputs": [],
      "name": "MINIMUM_TOKENS",
      "outputs": [
        {
          "internalType": "uint256",
          "name": "",
          "type": "uint256"
        }
      ],
      "stateMutability": "view",
      "type": "function"
    },
    {
      "inputs": [],
      "name": "VOTING_PERIOD",
      "outputs": [
        {
          "internalType": "uint256",
          "name": "",
          "type": "uint256"
        }
      ],
      "stateMutability": "view",
      "type": "function"
    },
    {
      "inputs": [
        {
          "internalType": "string",
          "name": "description",
          "type": "string"
        },
        {
          "internalType": "address",
          "name": "recipient",
          "type": "address"
        },
        {
          "internalType": "uint256",
          "name": "amount",
          "type": "uint256"
        }
      ],
      "name": "createProposal",
      "outputs": [],
      "stateMutability": "nonpayable",
      "type": "function"
    },
    {
      "inputs": [
        {
          "internalType": "uint256",
          "name": "proposalId",
          "type": "uint256"
        }
      ],
      "name": "deleteProposal",
      "outputs": [],
      "stateMutability": "nonpayable",
      "type": "function"
    },
    {
      "inputs": [
        {
          "internalType": "uint256",
          "name": "amount",
          "type": "uint256"
        }
      ],
      "name": "deposit",
      "outputs": [],
      "stateMutability": "nonpayable",
      "type": "function"
    },
    {
      "inputs": [
        {
          "internalType": "uint256",
          "name": "proposalId",
          "type": "uint256"
        }
      ],
      "name": "executeProposal",
      "outputs": [],
      "stateMutability": "nonpayable",
      "type": "function"
    },
    {
      "inputs": [],
      "name": "getTreasuryBalance",
      "outputs": [
        {
          "internalType": "uint256",
          "name": "",
          "type": "uint256"
        }
      ],
      "stateMutability": "view",
      "type": "function"
    },
    {
      "inputs": [],
      "name": "owner",
      "outputs": [
        {
          "internalType": "address",
          "name": "",
          "type": "address"
        }
      ],
      "stateMutability": "view",
      "type": "function"
    },
    {
      "inputs": [],
      "name": "proposalCount",
      "outputs": [
        {
          "internalType": "uint256",
          "name": "",
          "type": "uint256"
        }
      ],
      "stateMutability": "view",
      "type": "function"
    },
    {
      "inputs": [
        {
          "internalType": "uint256",
          "name": "",
          "type": "uint256"
        }
      ],
      "name": "proposals",
      "outputs": [
        {
          "internalType": "uint256",
          "name": "id",
          "type": "uint256"
        },
        {
          "internalType": "address",
          "name": "proposer",
          "type": "address"
        },
        {
          "internalType": "string",
          "name": "description",
          "type": "string"
        },
        {
          "internalType": "address",
          "name": "recipient",
          "type": "address"
        },
        {
          "internalType": "uint256",
          "name": "amount",
          "type": "uint256"
        },
        {
          "internalType": "uint256",
          "name": "startTime",
          "type": "uint256"
        },
        {
          "internalType": "uint256",
          "name": "endTime",
          "type": "uint256"
        },
        {
          "internalType": "uint256",
          "name": "forVotes",
          "type": "uint256"
        },
        {
          "internalType": "uint256",
          "name": "againstVotes",
          "type": "uint256"
        },
        {
          "internalType": "bool",
          "name": "executed",
          "type": "bool"
        },
        {
          "internalType": "bool",
          "name": "deleted",
          "type": "bool"
        }
      ],
      "stateMutability": "view",
      "type": "function"
    },
    {
      "inputs": [],
      "name": "renounceOwnership",
      "outputs": [],
      "stateMutability": "nonpayable",
      "type": "function"
    },
    {
      "inputs": [],
      "name": "token",
      "outputs": [
        {
          "internalType": "contract IERC20",
          "name": "",
          "type": "address"
        }
      ],
      "stateMutability": "view",
      "type": "function"
    },
    {
      "inputs": [
        {
          "internalType": "address",
          "name": "newOwner",
          "type": "address"
        }
      ],
      "name": "transferOwnership",
      "outputs": [],
      "stateMutability": "nonpayable",
      "type": "function"
    },
    {
      "inputs": [
        {
          "internalType": "uint256",
          "name": "proposalId",
          "type": "uint256"
        },
        {
          "internalType": "bool",
          "name": "support",
          "type": "bool"
        }
      ],
      "name": "vote",
      "outputs": [],
      "stateMutability": "nonpayable",
      "type": "function"
    }
  ],
  "bytecode": "0x608060405234801561001057600080fd5b5060405161282038038061282083398181016040528101906100329190610223565b33600073ffffffffffffffffffffffffffffffffffffffff168173ffffffffffffffffffffffffffffffffffffffff16036100a55760006040517f1e4fbdf700000000000000000000000000000000000000000000000000000000815260040161009c919061025f565b60405180910390fd5b6100b4816100fc60201b60201c565b5080600160006101000a81548173ffffffffffffffffffffffffffffffffffffffff021916908373ffffffffffffffffffffffffffffffffffffffff1602179055505061027a565b60008060009054906101000a900473ffffffffffffffffffffffffffffffffffffffff169050816000806101000a81548173ffffffffffffffffffffffffffffffffffffffff021916908373ffffffffffffffffffffffffffffffffffffffff1602179055508173ffffffffffffffffffffffffffffffffffffffff168173ffffffffffffffffffffffffffffffffffffffff167f8be0079c531659141344cd1fd0a4f28419497f9722a3daafe3b4186f6b6457e060405160405180910390a35050565b600080fd5b600073ffffffffffffffffffffffffffffffffffffffff82169050919050565b60006101f0826101c5565b9050919050565b610200816101e5565b811461020b57600080fd5b50565b60008151905061021d816101f7565b92915050565b600060208284031215610239576102386101c0565b5b60006102478482850161020e565b91505092915050565b610259816101e5565b82525050565b60006020820190506102746000830184610250565b92915050565b612597806102896000396000f3fe608060405234801561001057600080fd5b50600436106100ea5760003560e01c8063b1610d7e1161008c578063da35c66411610066578063da35c66414610219578063e0c44e7614610237578063f2fde38b14610255578063fc0c546a14610271576100ea565b8063b1610d7e146101c3578063b6b55f25146101e1578063c9d27afe146101fd576100ea565b80638259d553116100c85780638259d5531461014f578063831c43ac1461016b5780638da5cb5b146101875780639b5655dc146101a5576100ea565b8063013cf08b146100ef5780630d61b51914610129578063715018a614610145575b600080fd5b610109600480360381019061010491906114c8565b61028f565b6040516101209b9a999897969594939291906115f0565b60405180910390f35b610143600480360381019061013e91906114c8565b6103cb565b005b61014d6107c9565b005b610169600480360381019061016491906114c8565b6107dd565b005b61018560048036038101906101809190611803565b610935565b005b61018f610c4b565b60405161019c9190611872565b60405180910390f35b6101ad610c74565b6040516101ba919061188d565b60405180910390f35b6101cb610d17565b6040516101d8919061188d565b60405180910390f35b6101fb60048036038101906101f691906114c8565b610d1e565b005b610217600480360381019061021291906118d4565b610e93565b005b61022161126c565b60405161022e919061188d565b60405180910390f35b61023f611272565b60405161024c919061188d565b60405180910390f35b61026f600480360381019061026a9190611914565b61127f565b005b610279611305565b60405161028691906119a0565b60405180910390f35b60036020528060005260406000206000915090508060000154908060010160009054906101000a900473ffffffffffffffffffffffffffffffffffffffff16908060020180546102de906119ea565b80601f016020809104026020016040519081016040528092919081815260200182805461030a906119ea565b80156103575780601f1061032c57610100808354040283529160200191610357565b820191906000526020600020905b81548152906001019060200180831161033a57829003601f168201915b5050505050908060030160009054906101000a900473ffffffffffffffffffffffffffffffffffffffff16908060040154908060050154908060060154908060070154908060080154908060090160009054906101000a900460ff16908060090160019054906101000a900460ff1690508b565b60006003600083815260200190815260200160002090506000816000015403610429576040517f08c379a000000000000000000000000000000000000000000000000000000000815260040161042090611a67565b60405180910390fd5b8060090160019054906101000a900460ff161561047b576040517f08c379a000000000000000000000000000000000000000000000000000000000815260040161047290611ad3565b60405180910390fd5b806006015442116104c1576040517f08c379a00000000000000000000000000000000000000000000000000000000081526004016104b890611b3f565b60405180910390fd5b8060090160009054906101000a900460ff1615610513576040517f08c379a000000000000000000000000000000000000000000000000000000000815260040161050a90611bab565b60405180910390fd5b806008015481600701541161055d576040517f08c379a000000000000000000000000000000000000000000000000000000000815260040161055490611c17565b60405180910390fd5b8060040154600160009054906101000a900473ffffffffffffffffffffffffffffffffffffffff1673ffffffffffffffffffffffffffffffffffffffff166370a08231306040518263ffffffff1660e01b81526004016105bd9190611872565b602060405180830381865afa1580156105da573d6000803e3d6000fd5b505050506040513d601f19601f820116820180604052508101906105fe9190611c4c565b101561063f576040517f08c379a000000000000000000000000000000000000000000000000000000000815260040161063690611cc5565b60405180910390fd5b60018160090160006101000a81548160ff021916908315150217905550600160009054906101000a900473ffffffffffffffffffffffffffffffffffffffff1673ffffffffffffffffffffffffffffffffffffffff1663a9059cbb8260030160009054906101000a900473ffffffffffffffffffffffffffffffffffffffff1683600401546040518363ffffffff1660e01b81526004016106e1929190611ce5565b6020604051808303816000875af1158015610700573d6000803e3d6000fd5b505050506040513d601f19601f820116820180604052508101906107249190611d23565b610763576040517f08c379a000000000000000000000000000000000000000000000000000000000815260040161075a90611d9c565b60405180910390fd5b817f3b7c90df35b419337cff0919fe91849006607bb66c4373623f06f9d48c1ebb988260030160009054906101000a900473ffffffffffffffffffffffffffffffffffffffff1683600401546040516107bd929190611ce5565b60405180910390a25050565b6107d161132b565b6107db60006113b2565b565b6107e561132b565b60006003600083815260200190815260200160002090506000816000015403610843576040517f08c379a000000000000000000000000000000000000000000000000000000000815260040161083a90611a67565b60405180910390fd5b8060090160009054906101000a900460ff1615610895576040517f08c379a000000000000000000000000000000000000000000000000000000000815260040161088c90611e08565b60405180910390fd5b8060090160019054906101000a900460ff16156108e7576040517f08c379a00000000000000000000000000000000000000000000000000000000081526004016108de90611e74565b60405180910390fd5b60018160090160016101000a81548160ff021916908315150217905550817f61c0d93dc2b610877e420b107c8d12e9185e46e04a505da758cc7f7329ae545f60405160405180910390a25050565b683635c9adc5dea00000600160009054906101000a900473ffffffffffffffffffffffffffffffffffffffff1673ffffffffffffffffffffffffffffffffffffffff166370a08231336040518263ffffffff1660e01b815260040161099a9190611872565b602060405180830381865afa1580156109b7573d6000803e3d6000fd5b505050506040513d601f19601f820116820180604052508101906109db9190611c4c565b1015610a1c576040517f08c379a0000000000000000000000000000000000000000000000000000000008152600401610a1390611ee0565b60405180910390fd5b60008111610a5f576040517f08c379a0000000000000000000000000000000000000000000000000000000008152600401610a5690611f4c565b60405180910390fd5b600073ffffffffffffffffffffffffffffffffffffffff168273ffffffffffffffffffffffffffffffffffffffff1603610ace576040517f08c379a0000000000000000000000000000000000000000000000000000000008152600401610ac590611fb8565b60405180910390fd5b60026000815480929190610ae190612007565b9190505550600060036000600254815260200190815260200160002090506002548160000181905550338160010160006101000a81548173ffffffffffffffffffffffffffffffffffffffff021916908373ffffffffffffffffffffffffffffffffffffffff16021790555083816002019081610b5e91906121f1565b50828160030160006101000a81548173ffffffffffffffffffffffffffffffffffffffff021916908373ffffffffffffffffffffffffffffffffffffffff16021790555081816004018190555042816005018190555062093a8042610bc391906122c3565b816006018190555060008160090160006101000a81548160ff02191690831515021790555060008160090160016101000a81548160ff0219169083151502179055506002547f36ef39b15ae87208645c010139b1c8b7b25a358bb68989fefcc82b1e0754bcbd33868686604051610c3d94939291906122f7565b60405180910390a250505050565b60008060009054906101000a900473ffffffffffffffffffffffffffffffffffffffff16905090565b6000600160009054906101000a900473ffffffffffffffffffffffffffffffffffffffff1673ffffffffffffffffffffffffffffffffffffffff166370a08231306040518263ffffffff1660e01b8152600401610cd19190611872565b602060405180830381865afa158015610cee573d6000803e3d6000fd5b505050506040513d601f19601f82011682018060405250810190610d129190611c4c565b905090565b62093a8081565b60008111610d61576040517f08c379a0000000000000000000000000000000000000000000000000000000008152600401610d5890611f4c565b60405180910390fd5b600160009054906101000a900473ffffffffffffffffffffffffffffffffffffffff1673ffffffffffffffffffffffffffffffffffffffff166323b872dd3330846040518463ffffffff1660e01b8152600401610dc093929190612343565b6020604051808303816000875af1158015610ddf573d6000803e3d6000fd5b505050506040513d601f19601f82011682018060405250810190610e039190611d23565b610e42576040517f08c379a0000000000000000000000000000000000000000000000000000000008152600401610e3990611d9c565b60405180910390fd5b3373ffffffffffffffffffffffffffffffffffffffff167f2da466a7b24304f47e87fa2e1e5a81b9831ce54fec19055ce277ca2f39ba42c482604051610e88919061188d565b60405180910390a250565b60006003600084815260200190815260200160002090506000816000015403610ef1576040517f08c379a0000000000000000000000000000000000000000000000000000000008152600401610ee890611a67565b60405180910390fd5b8060090160019054906101000a900460ff1615610f43576040517f08c379a0000000000000000000000000000000000000000000000000000000008152600401610f3a90611ad3565b60405180910390fd5b8060060154421115610f8a576040517f08c379a0000000000000000000000000000000000000000000000000000000008152600401610f81906123c6565b60405180910390fd5b80600a0160003373ffffffffffffffffffffffffffffffffffffffff1673ffffffffffffffffffffffffffffffffffffffff16815260200190815260200160002060009054906101000a900460ff1615611019576040517f08c379a000000000000000000000000000000000000000000000000000000000815260040161101090612432565b60405180910390fd5b8060010160009054906101000a900473ffffffffffffffffffffffffffffffffffffffff1673ffffffffffffffffffffffffffffffffffffffff163373ffffffffffffffffffffffffffffffffffffffff16036110ab576040517f08c379a00000000000000000000000000000000000000000000000000000000081526004016110a29061249e565b60405180910390fd5b6000600160009054906101000a900473ffffffffffffffffffffffffffffffffffffffff1673ffffffffffffffffffffffffffffffffffffffff166370a08231336040518263ffffffff1660e01b81526004016111089190611872565b602060405180830381865afa158015611125573d6000803e3d6000fd5b505050506040513d601f19601f820116820180604052508101906111499190611c4c565b90506000811161118e576040517f08c379a00000000000000000000000000000000000000000000000000000000081526004016111859061250a565b60405180910390fd5b600182600a0160003373ffffffffffffffffffffffffffffffffffffffff1673ffffffffffffffffffffffffffffffffffffffff16815260200190815260200160002060006101000a81548160ff021916908315150217905550821561120e578082600701600082825461120291906122c3565b9250508190555061122a565b8082600801600082825461122291906122c3565b925050819055505b837f7c2de587c00d75474a0c6c6fa96fd3b45dc974cd4e8a75f712bb84c950dce1b533858460405161125e9392919061252a565b60405180910390a250505050565b60025481565b683635c9adc5dea0000081565b61128761132b565b600073ffffffffffffffffffffffffffffffffffffffff168173ffffffffffffffffffffffffffffffffffffffff16036112f95760006040517f1e4fbdf70000000000000000000000000000000000000000000000000000000081526004016112f09190611872565b60405180910390fd5b611302816113b2565b50565b600160009054906101000a900473ffffffffffffffffffffffffffffffffffffffff1681565b611333611476565b73ffffffffffffffffffffffffffffffffffffffff16611351610c4b565b73ffffffffffffffffffffffffffffffffffffffff16146113b057611374611476565b6040517f118cdaa70000000000000000000000000000000000000000000000000000000081526004016113a79190611872565b60405180910390fd5b565b60008060009054906101000a900473ffffffffffffffffffffffffffffffffffffffff169050816000806101000a81548173ffffffffffffffffffffffffffffffffffffffff021916908373ffffffffffffffffffffffffffffffffffffffff1602179055508173ffffffffffffffffffffffffffffffffffffffff168173ffffffffffffffffffffffffffffffffffffffff167f8be0079c531659141344cd1fd0a4f28419497f9722a3daafe3b4186f6b6457e060405160405180910390a35050565b600033905090565b6000604051905090565b600080fd5b600080fd5b6000819050919050565b6114a581611492565b81146114b057600080fd5b50565b6000813590506114c28161149c565b92915050565b6000602082840312156114de576114dd611488565b5b60006114ec848285016114b3565b91505092915050565b6114fe81611492565b82525050565b600073ffffffffffffffffffffffffffffffffffffffff82169050919050565b600061152f82611504565b9050919050565b61153f81611524565b82525050565b600081519050919050565b600082825260208201905092915050565b60005b8381101561157f578082015181840152602081019050611564565b60008484015250505050565b6000601f19601f8301169050919050565b60006115a782611545565b6115b18185611550565b93506115c1818560208601611561565b6115ca8161158b565b840191505092915050565b60008115159050919050565b6115ea816115d5565b82525050565b600061016082019050611606600083018e6114f5565b611613602083018d611536565b8181036040830152611625818c61159c565b9050611634606083018b611536565b611641608083018a6114f5565b61164e60a08301896114f5565b61165b60c08301886114f5565b61166860e08301876114f5565b6116766101008301866114f5565b6116846101208301856115e1565b6116926101408301846115e1565b9c9b505050505050505050505050565b600080fd5b600080fd5b7f4e487b7100000000000000000000000000000000000000000000000000000000600052604160045260246000fd5b6116e48261158b565b810181811067ffffffffffffffff82111715611703576117026116ac565b5b80604052505050565b600061171661147e565b905061172282826116db565b919050565b600067ffffffffffffffff821115611742576117416116ac565b5b61174b8261158b565b9050602081019050919050565b82818337600083830152505050565b600061177a61177584611727565b61170c565b905082815260208101848484011115611796576117956116a7565b5b6117a1848285611758565b509392505050565b600082601f8301126117be576117bd6116a2565b5b81356117ce848260208601611767565b91505092915050565b6117e081611524565b81146117eb57600080fd5b50565b6000813590506117fd816117d7565b92915050565b60008060006060848603121561181c5761181b611488565b5b600084013567ffffffffffffffff81111561183a5761183961148d565b5b611846868287016117a9565b9350506020611857868287016117ee565b9250506040611868868287016114b3565b9150509250925092565b60006020820190506118876000830184611536565b92915050565b60006020820190506118a260008301846114f5565b92915050565b6118b1816115d5565b81146118bc57600080fd5b50565b6000813590506118ce816118a8565b92915050565b600080604083850312156118eb576118ea611488565b5b60006118f9858286016114b3565b925050602061190a858286016118bf565b9150509250929050565b60006020828403121561192a57611929611488565b5b6000611938848285016117ee565b91505092915050565b6000819050919050565b600061196661196161195c84611504565b611941565b611504565b9050919050565b60006119788261194b565b9050919050565b600061198a8261196d565b9050919050565b61199a8161197f565b82525050565b60006020820190506119b56000830184611991565b92915050565b7f4e487b7100000000000000000000000000000000000000000000000000000000600052602260045260246000fd5b60006002820490506001821680611a0257607f821691505b602082108103611a1557611a146119bb565b5b50919050565b7f50726f706f73616c20646f6573206e6f74206578697374000000000000000000600082015250565b6000611a51601783611550565b9150611a5c82611a1b565b602082019050919050565b60006020820190508181036000830152611a8081611a44565b9050919050565b7f50726f706f73616c20686173206265656e2064656c6574656400000000000000600082015250565b6000611abd601983611550565b9150611ac882611a87565b602082019050919050565b60006020820190508181036000830152611aec81611ab0565b9050919050565b7f566f74696e6720706572696f64206e6f7420656e646564000000000000000000600082015250565b6000611b29601783611550565b9150611b3482611af3565b602082019050919050565b60006020820190508181036000830152611b5881611b1c565b9050919050565b7f50726f706f73616c20616c726561647920657865637574656400000000000000600082015250565b6000611b95601983611550565b9150611ba082611b5f565b602082019050919050565b60006020820190508181036000830152611bc481611b88565b9050919050565b7f50726f706f73616c206e6f7420617070726f7665640000000000000000000000600082015250565b6000611c01601583611550565b9150611c0c82611bcb565b602082019050919050565b60006020820190508181036000830152611c3081611bf4565b9050919050565b600081519050611c468161149c565b92915050565b600060208284031215611c6257611c61611488565b5b6000611c7084828501611c37565b91505092915050565b7f496e73756666696369656e742074726561737572792062616c616e6365000000600082015250565b6000611caf601d83611550565b9150611cba82611c79565b602082019050919050565b60006020820190508181036000830152611cde81611ca2565b9050919050565b6000604082019050611cfa6000830185611536565b611d0760208301846114f5565b9392505050565b600081519050611d1d816118a8565b92915050565b600060208284031215611d3957611d38611488565b5b6000611d4784828501611d0e565b91505092915050565b7f5472616e73666572206661696c65640000000000000000000000000000000000600082015250565b6000611d86600f83611550565b9150611d9182611d50565b602082019050919050565b60006020820190508181036000830152611db581611d79565b9050919050565b7f43616e6e6f742064656c6574652065786563757465642070726f706f73616c00600082015250565b6000611df2601f83611550565b9150611dfd82611dbc565b602082019050919050565b60006020820190508181036000830152611e2181611de5565b9050919050565b7f50726f706f73616c20616c72656164792064656c657465640000000000000000600082015250565b6000611e5e601883611550565b9150611e6982611e28565b602082019050919050565b60006020820190508181036000830152611e8d81611e51565b9050919050565b7f496e73756666696369656e7420746f6b656e7320746f2070726f706f73650000600082015250565b6000611eca601e83611550565b9150611ed582611e94565b602082019050919050565b60006020820190508181036000830152611ef981611ebd565b9050919050565b7f416d6f756e74206d7573742062652067726561746572207468616e2030000000600082015250565b6000611f36601d83611550565b9150611f4182611f00565b602082019050919050565b60006020820190508181036000830152611f6581611f29565b9050919050565b7f496e76616c696420726563697069656e74000000000000000000000000000000600082015250565b6000611fa2601183611550565b9150611fad82611f6c565b602082019050919050565b60006020820190508181036000830152611fd181611f95565b9050919050565b7f4e487b7100000000000000000000000000000000000000000000000000000000600052601160045260246000fd5b600061201282611492565b91507fffffffffffffffffffffffffffffffffffffffffffffffffffffffffffffffff820361204457612043611fd8565b5b600182019050919050565b60008190508160005260206000209050919050565b60006020601f8301049050919050565b600082821b905092915050565b6000600883026120b17fffffffffffffffffffffffffffffffffffffffffffffffffffffffffffffffff82612074565b6120bb8683612074565b95508019841693508086168417925050509392505050565b60006120ee6120e96120e484611492565b611941565b611492565b9050919050565b6000819050919050565b612108836120d3565b61211c612114826120f5565b848454612081565b825550505050565b600090565b612131612124565b61213c8184846120ff565b505050565b5b8181101561216057612155600082612129565b600181019050612142565b5050565b601f8211156121a5576121768161204f565b61217f84612064565b8101602085101561218e578190505b6121a261219a85612064565b830182612141565b50505b505050565b600082821c905092915050565b60006121c8600019846008026121aa565b1980831691505092915050565b60006121e183836121b7565b9150826002028217905092915050565b6121fa82611545565b67ffffffffffffffff811115612213576122126116ac565b5b61221d82546119ea565b612228828285612164565b600060209050601f83116001811461225b5760008415612249578287015190505b61225385826121d5565b8655506122bb565b601f1984166122698661204f565b60005b828110156122915784890151825560018201915060208501945060208101905061226c565b868310156122ae57848901516122aa601f8916826121b7565b8355505b6001600288020188555050505b505050505050565b60006122ce82611492565b91506122d983611492565b92508282019050808211156122f1576122f0611fd8565b5b92915050565b600060808201905061230c6000830187611536565b818103602083015261231e818661159c565b905061232d6040830185611536565b61233a60608301846114f5565b95945050505050565b60006060820190506123586000830186611536565b6123656020830185611536565b61237260408301846114f5565b949350505050565b7f566f74696e6720706572696f6420656e64656400000000000000000000000000600082015250565b60006123b0601383611550565b91506123bb8261237a565b602082019050919050565b600060208201905081810360008301526123df816123a3565b9050919050565b7f416c726561647920766f74656400000000000000000000000000000000000000600082015250565b600061241c600d83611550565b9150612427826123e6565b602082019050919050565b6000602082019050818103600083015261244b8161240f565b9050919050565b7f43616e6e6f7420766f7465206f6e206f776e2070726f706f73616c0000000000600082015250565b6000612488601b83611550565b915061249382612452565b602082019050919050565b600060208201905081810360008301526124b78161247b565b9050919050565b7f4e6f20746f6b656e7320746f20766f7465000000000000000000000000000000600082015250565b60006124f4601183611550565b91506124ff826124be565b602082019050919050565b60006020820190508181036000830152612523816124e7565b9050919050565b600060608201905061253f6000830186611536565b61254c60208301856115e1565b61255960408301846114f5565b94935050505056fea26469706673582212209e14d4df99e309dd95977b8242d71edebc9714f8fdd8b84d2a57b1b4b413210964736f6c634300081c0033",
  "linkReferences": {},
  "deployedLinkReferences": {}
}