{
  "_format": "hh-sol-artifact-1",
  "contractName": "DAOTreasury",
  "sourceName": "contracts/DAOTreasury.sol",
  "abi": [
    {
      "inputs": [
        {
          "internalType": "address",
          "name": "_token",
          "type": "address"
        }
      ],
      "stateMutability": "nonpayable",
      "type": "constructor"
    },
    {
      "anonymous": false,
      "inputs": [
        {
          "indexed": true,
          "internalType": "address",
          "name": "sender",
          "type": "address"
        },
        {
          "indexed": false,
          "internalType": "uint256",
          "name": "amount",
          "type": "uint256"
        }
      ],
      "name": "Deposited",
      "type": "event"
    },
    {
      "anonymous": false,
      "inputs": [
        {
          "indexed": true,
          "internalType": "uint256",
          "name": "proposalId",
          "type": "uint256"
        },
        {
          "indexed": false,
          "internalType": "address",
          "name": "proposer",
          "type": "address"
        },
        {
          "indexed": false,
          "internalType": "string",
          "name": "description",
          "type": "string"
        },
        {
          "indexed": false,
          "internalType": "address",
          "name": "recipient",
          "type": "address"
        },
        {
          "indexed": false,
          "internalType": "uint256",
          "name": "amount",
          "type": "uint256"
        }
      ],
      "name": "ProposalCreated",
      "type": "event"
    },
    {
      "anonymous": false,
      "inputs": [
        {
          "indexed": true,
          "internalType": "uint256",
          "name": "proposalId",
          "type": "uint256"
        },
        {
          "indexed": false,
          "internalType": "address",
          "name": "recipient",
          "type": "address"
        },
        {
          "indexed": false,
          "internalType": "uint256",
          "name": "amount",
          "type": "uint256"
        }
      ],
      "name": "ProposalExecuted",
      "type": "event"
    },
    {
      "anonymous": false,
      "inputs": [
        {
          "indexed": true,
          "internalType": "uint256",
          "name": "proposalId",
          "type": "uint256"
        },
        {
          "indexed": false,
          "internalType": "address",
          "name": "voter",
          "type": "address"
        },
        {
          "indexed": false,
          "internalType": "bool",
          "name": "support",
          "type": "bool"
        },
        {
          "indexed": false,
          "internalType": "uint256",
          "name": "weight",
          "type": "uint256"
        }
      ],
      "name": "Voted",
      "type": "event"
    },
    {
      "inputs": [],
      "name": "MINIMUM_TOKENS",
      "outputs": [
        {
          "internalType": "uint256",
          "name": "",
          "type": "uint256"
        }
      ],
      "stateMutability": "view",
      "type": "function"
    },
    {
      "inputs": [],
      "name": "VOTING_PERIOD",
      "outputs": [
        {
          "internalType": "uint256",
          "name": "",
          "type": "uint256"
        }
      ],
      "stateMutability": "view",
      "type": "function"
    },
    {
      "inputs": [
        {
          "internalType": "string",
          "name": "description",
          "type": "string"
        },
        {
          "internalType": "address",
          "name": "recipient",
          "type": "address"
        },
        {
          "internalType": "uint256",
          "name": "amount",
          "type": "uint256"
        }
      ],
      "name": "createProposal",
      "outputs": [],
      "stateMutability": "nonpayable",
      "type": "function"
    },
    {
      "inputs": [
        {
          "internalType": "uint256",
          "name": "amount",
          "type": "uint256"
        }
      ],
      "name": "deposit",
      "outputs": [],
      "stateMutability": "nonpayable",
      "type": "function"
    },
    {
      "inputs": [
        {
          "internalType": "uint256",
          "name": "proposalId",
          "type": "uint256"
        }
      ],
      "name": "executeProposal",
      "outputs": [],
      "stateMutability": "nonpayable",
      "type": "function"
    },
    {
      "inputs": [],
      "name": "getTreasuryBalance",
      "outputs": [
        {
          "internalType": "uint256",
          "name": "",
          "type": "uint256"
        }
      ],
      "stateMutability": "view",
      "type": "function"
    },
    {
      "inputs": [],
      "name": "proposalCount",
      "outputs": [
        {
          "internalType": "uint256",
          "name": "",
          "type": "uint256"
        }
      ],
      "stateMutability": "view",
      "type": "function"
    },
    {
      "inputs": [
        {
          "internalType": "uint256",
          "name": "",
          "type": "uint256"
        }
      ],
      "name": "proposals",
      "outputs": [
        {
          "internalType": "uint256",
          "name": "id",
          "type": "uint256"
        },
        {
          "internalType": "address",
          "name": "proposer",
          "type": "address"
        },
        {
          "internalType": "string",
          "name": "description",
          "type": "string"
        },
        {
          "internalType": "address",
          "name": "recipient",
          "type": "address"
        },
        {
          "internalType": "uint256",
          "name": "amount",
          "type": "uint256"
        },
        {
          "internalType": "uint256",
          "name": "startBlock",
          "type": "uint256"
        },
        {
          "internalType": "uint256",
          "name": "endBlock",
          "type": "uint256"
        },
        {
          "internalType": "uint256",
          "name": "forVotes",
          "type": "uint256"
        },
        {
          "internalType": "uint256",
          "name": "againstVotes",
          "type": "uint256"
        },
        {
          "internalType": "bool",
          "name": "executed",
          "type": "bool"
        }
      ],
      "stateMutability": "view",
      "type": "function"
    },
    {
      "inputs": [],
      "name": "token",
      "outputs": [
        {
          "internalType": "contract IERC20",
          "name": "",
          "type": "address"
        }
      ],
      "stateMutability": "view",
      "type": "function"
    },
    {
      "inputs": [
        {
          "internalType": "uint256",
          "name": "proposalId",
          "type": "uint256"
        },
        {
          "internalType": "bool",
          "name": "support",
          "type": "bool"
        }
      ],
      "name": "vote",
      "outputs": [],
      "stateMutability": "nonpayable",
      "type": "function"
    }
  ],
  "bytecode": "0x608060405234801561001057600080fd5b50604051611f33380380611f33833981810160405281019061003291906100db565b806000806101000a81548173ffffffffffffffffffffffffffffffffffffffff021916908373ffffffffffffffffffffffffffffffffffffffff16021790555050610108565b600080fd5b600073ffffffffffffffffffffffffffffffffffffffff82169050919050565b60006100a88261007d565b9050919050565b6100b88161009d565b81146100c357600080fd5b50565b6000815190506100d5816100af565b92915050565b6000602082840312156100f1576100f0610078565b5b60006100ff848285016100c6565b91505092915050565b611e1c806101176000396000f3fe608060405234801561001057600080fd5b506004361061009e5760003560e01c8063b6b55f2511610066578063b6b55f2514610150578063c9d27afe1461016c578063da35c66414610188578063e0c44e76146101a6578063fc0c546a146101c45761009e565b8063013cf08b146100a35780630d61b519146100dc578063831c43ac146100f85780639b5655dc14610114578063b1610d7e14610132575b600080fd5b6100bd60048036038101906100b89190610f39565b6101e2565b6040516100d39a99989796959493929190611061565b60405180910390f35b6100f660048036038101906100f19190610f39565b61030b565b005b610112600480360381019061010d9190611265565b6106b3565b005b61011c6109a9565b60405161012991906112d4565b60405180910390f35b61013a610a4b565b60405161014791906112d4565b60405180910390f35b61016a60048036038101906101659190610f39565b610a51565b005b6101866004803603810190610181919061131b565b610bc4565b005b610190610eb8565b60405161019d91906112d4565b60405180910390f35b6101ae610ebe565b6040516101bb91906112d4565b60405180910390f35b6101cc610ecb565b6040516101d991906113ba565b60405180910390f35b60026020528060005260406000206000915090508060000154908060010160009054906101000a900473ffffffffffffffffffffffffffffffffffffffff169080600201805461023190611404565b80601f016020809104026020016040519081016040528092919081815260200182805461025d90611404565b80156102aa5780601f1061027f576101008083540402835291602001916102aa565b820191906000526020600020905b81548152906001019060200180831161028d57829003601f168201915b5050505050908060030160009054906101000a900473ffffffffffffffffffffffffffffffffffffffff16908060040154908060050154908060060154908060070154908060080154908060090160009054906101000a900460ff1690508a565b60006002600083815260200190815260200160002090506000816000015403610369576040517f08c379a000000000000000000000000000000000000000000000000000000000815260040161036090611481565b60405180910390fd5b806006015443116103af576040517f08c379a00000000000000000000000000000000000000000000000000000000081526004016103a6906114ed565b60405180910390fd5b8060090160009054906101000a900460ff1615610401576040517f08c379a00000000000000000000000000000000000000000000000000000000081526004016103f890611559565b60405180910390fd5b806008015481600701541161044b576040517f08c379a0000000000000000000000000000000000000000000000000000000008152600401610442906115c5565b60405180910390fd5b806004015460008054906101000a900473ffffffffffffffffffffffffffffffffffffffff1673ffffffffffffffffffffffffffffffffffffffff166370a08231306040518263ffffffff1660e01b81526004016104a991906115e5565b602060405180830381865afa1580156104c6573d6000803e3d6000fd5b505050506040513d601f19601f820116820180604052508101906104ea9190611615565b101561052b576040517f08c379a00000000000000000000000000000000000000000000000000000000081526004016105229061168e565b60405180910390fd5b60018160090160006101000a81548160ff02191690831515021790555060008054906101000a900473ffffffffffffffffffffffffffffffffffffffff1673ffffffffffffffffffffffffffffffffffffffff1663a9059cbb8260030160009054906101000a900473ffffffffffffffffffffffffffffffffffffffff1683600401546040518363ffffffff1660e01b81526004016105cb9291906116ae565b6020604051808303816000875af11580156105ea573d6000803e3d6000fd5b505050506040513d601f19601f8201168201806040525081019061060e91906116ec565b61064d576040517f08c379a000000000000000000000000000000000000000000000000000000000815260040161064490611765565b60405180910390fd5b817f3b7c90df35b419337cff0919fe91849006607bb66c4373623f06f9d48c1ebb988260030160009054906101000a900473ffffffffffffffffffffffffffffffffffffffff1683600401546040516106a79291906116ae565b60405180910390a25050565b683635c9adc5dea0000060008054906101000a900473ffffffffffffffffffffffffffffffffffffffff1673ffffffffffffffffffffffffffffffffffffffff166370a08231336040518263ffffffff1660e01b815260040161071691906115e5565b602060405180830381865afa158015610733573d6000803e3d6000fd5b505050506040513d601f19601f820116820180604052508101906107579190611615565b1015610798576040517f08c379a000000000000000000000000000000000000000000000000000000000815260040161078f906117d1565b60405180910390fd5b600081116107db576040517f08c379a00000000000000000000000000000000000000000000000000000000081526004016107d29061183d565b60405180910390fd5b600073ffffffffffffffffffffffffffffffffffffffff168273ffffffffffffffffffffffffffffffffffffffff160361084a576040517f08c379a0000000000000000000000000000000000000000000000000000000008152600401610841906118a9565b60405180910390fd5b6001600081548092919061085d906118f8565b9190505550600060026000600154815260200190815260200160002090506001548160000181905550338160010160006101000a81548173ffffffffffffffffffffffffffffffffffffffff021916908373ffffffffffffffffffffffffffffffffffffffff160217905550838160020190816108da9190611ae2565b50828160030160006101000a81548173ffffffffffffffffffffffffffffffffffffffff021916908373ffffffffffffffffffffffffffffffffffffffff160217905550818160040181905550438160050181905550619d804361093e9190611bb4565b816006018190555060008160090160006101000a81548160ff0219169083151502179055506001547f36ef39b15ae87208645c010139b1c8b7b25a358bb68989fefcc82b1e0754bcbd3386868660405161099b9493929190611be8565b60405180910390a250505050565b60008060009054906101000a900473ffffffffffffffffffffffffffffffffffffffff1673ffffffffffffffffffffffffffffffffffffffff166370a08231306040518263ffffffff1660e01b8152600401610a0591906115e5565b602060405180830381865afa158015610a22573d6000803e3d6000fd5b505050506040513d601f19601f82011682018060405250810190610a469190611615565b905090565b619d8081565b60008111610a94576040517f08c379a0000000000000000000000000000000000000000000000000000000008152600401610a8b9061183d565b60405180910390fd5b60008054906101000a900473ffffffffffffffffffffffffffffffffffffffff1673ffffffffffffffffffffffffffffffffffffffff166323b872dd3330846040518463ffffffff1660e01b8152600401610af193929190611c34565b6020604051808303816000875af1158015610b10573d6000803e3d6000fd5b505050506040513d601f19601f82011682018060405250810190610b3491906116ec565b610b73576040517f08c379a0000000000000000000000000000000000000000000000000000000008152600401610b6a90611765565b60405180910390fd5b3373ffffffffffffffffffffffffffffffffffffffff167f2da466a7b24304f47e87fa2e1e5a81b9831ce54fec19055ce277ca2f39ba42c482604051610bb991906112d4565b60405180910390a250565b60006002600084815260200190815260200160002090506000816000015403610c22576040517f08c379a0000000000000000000000000000000000000000000000000000000008152600401610c1990611481565b60405180910390fd5b8060060154431115610c69576040517f08c379a0000000000000000000000000000000000000000000000000000000008152600401610c6090611cb7565b60405180910390fd5b80600a0160003373ffffffffffffffffffffffffffffffffffffffff1673ffffffffffffffffffffffffffffffffffffffff16815260200190815260200160002060009054906101000a900460ff1615610cf8576040517f08c379a0000000000000000000000000000000000000000000000000000000008152600401610cef90611d23565b60405180910390fd5b60008060009054906101000a900473ffffffffffffffffffffffffffffffffffffffff1673ffffffffffffffffffffffffffffffffffffffff166370a08231336040518263ffffffff1660e01b8152600401610d5491906115e5565b602060405180830381865afa158015610d71573d6000803e3d6000fd5b505050506040513d601f19601f82011682018060405250810190610d959190611615565b905060008111610dda576040517f08c379a0000000000000000000000000000000000000000000000000000000008152600401610dd190611d8f565b60405180910390fd5b600182600a0160003373ffffffffffffffffffffffffffffffffffffffff1673ffffffffffffffffffffffffffffffffffffffff16815260200190815260200160002060006101000a81548160ff0219169083151502179055508215610e5a5780826007016000828254610e4e9190611bb4565b92505081905550610e76565b80826008016000828254610e6e9190611bb4565b925050819055505b837f7c2de587c00d75474a0c6c6fa96fd3b45dc974cd4e8a75f712bb84c950dce1b5338584604051610eaa93929190611daf565b60405180910390a250505050565b60015481565b683635c9adc5dea0000081565b60008054906101000a900473ffffffffffffffffffffffffffffffffffffffff1681565b6000604051905090565b600080fd5b600080fd5b6000819050919050565b610f1681610f03565b8114610f2157600080fd5b50565b600081359050610f3381610f0d565b92915050565b600060208284031215610f4f57610f4e610ef9565b5b6000610f5d84828501610f24565b91505092915050565b610f6f81610f03565b82525050565b600073ffffffffffffffffffffffffffffffffffffffff82169050919050565b6000610fa082610f75565b9050919050565b610fb081610f95565b82525050565b600081519050919050565b600082825260208201905092915050565b60005b83811015610ff0578082015181840152602081019050610fd5565b60008484015250505050565b6000601f19601f8301169050919050565b600061101882610fb6565b6110228185610fc1565b9350611032818560208601610fd2565b61103b81610ffc565b840191505092915050565b60008115159050919050565b61105b81611046565b82525050565b600061014082019050611077600083018d610f66565b611084602083018c610fa7565b8181036040830152611096818b61100d565b90506110a5606083018a610fa7565b6110b26080830189610f66565b6110bf60a0830188610f66565b6110cc60c0830187610f66565b6110d960e0830186610f66565b6110e7610100830185610f66565b6110f5610120830184611052565b9b9a5050505050505050505050565b600080fd5b600080fd5b7f4e487b7100000000000000000000000000000000000000000000000000000000600052604160045260246000fd5b61114682610ffc565b810181811067ffffffffffffffff821117156111655761116461110e565b5b80604052505050565b6000611178610eef565b9050611184828261113d565b919050565b600067ffffffffffffffff8211156111a4576111a361110e565b5b6111ad82610ffc565b9050602081019050919050565b82818337600083830152505050565b60006111dc6111d784611189565b61116e565b9050828152602081018484840111156111f8576111f7611109565b5b6112038482856111ba565b509392505050565b600082601f8301126112205761121f611104565b5b81356112308482602086016111c9565b91505092915050565b61124281610f95565b811461124d57600080fd5b50565b60008135905061125f81611239565b92915050565b60008060006060848603121561127e5761127d610ef9565b5b600084013567ffffffffffffffff81111561129c5761129b610efe565b5b6112a88682870161120b565b93505060206112b986828701611250565b92505060406112ca86828701610f24565b9150509250925092565b60006020820190506112e96000830184610f66565b92915050565b6112f881611046565b811461130357600080fd5b50565b600081359050611315816112ef565b92915050565b6000806040838503121561133257611331610ef9565b5b600061134085828601610f24565b925050602061135185828601611306565b9150509250929050565b6000819050919050565b600061138061137b61137684610f75565b61135b565b610f75565b9050919050565b600061139282611365565b9050919050565b60006113a482611387565b9050919050565b6113b481611399565b82525050565b60006020820190506113cf60008301846113ab565b92915050565b7f4e487b7100000000000000000000000000000000000000000000000000000000600052602260045260246000fd5b6000600282049050600182168061141c57607f821691505b60208210810361142f5761142e6113d5565b5b50919050565b7f50726f706f73616c20646f6573206e6f74206578697374000000000000000000600082015250565b600061146b601783610fc1565b915061147682611435565b602082019050919050565b6000602082019050818103600083015261149a8161145e565b9050919050565b7f566f74696e6720706572696f64206e6f7420656e646564000000000000000000600082015250565b60006114d7601783610fc1565b91506114e2826114a1565b602082019050919050565b60006020820190508181036000830152611506816114ca565b9050919050565b7f50726f706f73616c20616c726561647920657865637574656400000000000000600082015250565b6000611543601983610fc1565b915061154e8261150d565b602082019050919050565b6000602082019050818103600083015261157281611536565b9050919050565b7f50726f706f73616c206e6f7420617070726f7665640000000000000000000000600082015250565b60006115af601583610fc1565b91506115ba82611579565b602082019050919050565b600060208201905081810360008301526115de816115a2565b9050919050565b60006020820190506115fa6000830184610fa7565b92915050565b60008151905061160f81610f0d565b92915050565b60006020828403121561162b5761162a610ef9565b5b600061163984828501611600565b91505092915050565b7f496e73756666696369656e742074726561737572792062616c616e6365000000600082015250565b6000611678601d83610fc1565b915061168382611642565b602082019050919050565b600060208201905081810360008301526116a78161166b565b9050919050565b60006040820190506116c36000830185610fa7565b6116d06020830184610f66565b9392505050565b6000815190506116e6816112ef565b92915050565b60006020828403121561170257611701610ef9565b5b6000611710848285016116d7565b91505092915050565b7f5472616e73666572206661696c65640000000000000000000000000000000000600082015250565b600061174f600f83610fc1565b915061175a82611719565b602082019050919050565b6000602082019050818103600083015261177e81611742565b9050919050565b7f496e73756666696369656e7420746f6b656e7320746f2070726f706f73650000600082015250565b60006117bb601e83610fc1565b91506117c682611785565b602082019050919050565b600060208201905081810360008301526117ea816117ae565b9050919050565b7f416d6f756e74206d7573742062652067726561746572207468616e2030000000600082015250565b6000611827601d83610fc1565b9150611832826117f1565b602082019050919050565b600060208201905081810360008301526118568161181a565b9050919050565b7f496e76616c696420726563697069656e74000000000000000000000000000000600082015250565b6000611893601183610fc1565b915061189e8261185d565b602082019050919050565b600060208201905081810360008301526118c281611886565b9050919050565b7f4e487b7100000000000000000000000000000000000000000000000000000000600052601160045260246000fd5b600061190382610f03565b91507fffffffffffffffffffffffffffffffffffffffffffffffffffffffffffffffff8203611935576119346118c9565b5b600182019050919050565b60008190508160005260206000209050919050565b60006020601f8301049050919050565b600082821b905092915050565b6000600883026119a27fffffffffffffffffffffffffffffffffffffffffffffffffffffffffffffffff82611965565b6119ac8683611965565b95508019841693508086168417925050509392505050565b60006119df6119da6119d584610f03565b61135b565b610f03565b9050919050565b6000819050919050565b6119f9836119c4565b611a0d611a05826119e6565b848454611972565b825550505050565b600090565b611a22611a15565b611a2d8184846119f0565b505050565b5b81811015611a5157611a46600082611a1a565b600181019050611a33565b5050565b601f821115611a9657611a6781611940565b611a7084611955565b81016020851015611a7f578190505b611a93611a8b85611955565b830182611a32565b50505b505050565b600082821c905092915050565b6000611ab960001984600802611a9b565b1980831691505092915050565b6000611ad28383611aa8565b9150826002028217905092915050565b611aeb82610fb6565b67ffffffffffffffff811115611b0457611b0361110e565b5b611b0e8254611404565b611b19828285611a55565b600060209050601f831160018114611b4c5760008415611b3a578287015190505b611b448582611ac6565b865550611bac565b601f198416611b5a86611940565b60005b82811015611b8257848901518255600182019150602085019450602081019050611b5d565b86831015611b9f5784890151611b9b601f891682611aa8565b8355505b6001600288020188555050505b505050505050565b6000611bbf82610f03565b9150611bca83610f03565b9250828201905080821115611be257611be16118c9565b5b92915050565b6000608082019050611bfd6000830187610fa7565b8181036020830152611c0f818661100d565b9050611c1e6040830185610fa7565b611c2b6060830184610f66565b95945050505050565b6000606082019050611c496000830186610fa7565b611c566020830185610fa7565b611c636040830184610f66565b949350505050565b7f566f74696e6720706572696f6420656e64656400000000000000000000000000600082015250565b6000611ca1601383610fc1565b9150611cac82611c6b565b602082019050919050565b60006020820190508181036000830152611cd081611c94565b9050919050565b7f416c726561647920766f74656400000000000000000000000000000000000000600082015250565b6000611d0d600d83610fc1565b9150611d1882611cd7565b602082019050919050565b60006020820190508181036000830152611d3c81611d00565b9050919050565b7f4e6f20746f6b656e7320746f20766f7465000000000000000000000000000000600082015250565b6000611d79601183610fc1565b9150611d8482611d43565b602082019050919050565b60006020820190508181036000830152611da881611d6c565b9050919050565b6000606082019050611dc46000830186610fa7565b611dd16020830185611052565b611dde6040830184610f66565b94935050505056fea26469706673582212201e4b4adfdb489248b9bfdcf6d7e41179b40a0b3dbaa63be696fa21aa309bb21164736f6c634300081c0033",
  "linkReferences": {},
  "deployedLinkReferences": {}
}