{
  "_format": "hh-sol-artifact-1",
  "contractName": "DAOTreasury",
  "sourceName": "contracts/DAOTreasury.sol",
  "abi": [
    {
      "inputs": [
        {
          "internalType": "address",
          "name": "_token",
          "type": "address"
        }
      ],
      "stateMutability": "nonpayable",
      "type": "constructor"
    },
    {
      "inputs": [
        {
          "internalType": "address",
          "name": "owner",
          "type": "address"
        }
      ],
      "name": "OwnableInvalidOwner",
      "type": "error"
    },
    {
      "inputs": [
        {
          "internalType": "address",
          "name": "account",
          "type": "address"
        }
      ],
      "name": "OwnableUnauthorizedAccount",
      "type": "error"
    },
    {
      "anonymous": false,
      "inputs": [
        {
          "indexed": true,
          "internalType": "address",
          "name": "sender",
          "type": "address"
        },
        {
          "indexed": false,
          "internalType": "uint256",
          "name": "amount",
          "type": "uint256"
        }
      ],
      "name": "Deposited",
      "type": "event"
    },
    {
      "anonymous": false,
      "inputs": [
        {
          "indexed": true,
          "internalType": "address",
          "name": "previousOwner",
          "type": "address"
        },
        {
          "indexed": true,
          "internalType": "address",
          "name": "newOwner",
          "type": "address"
        }
      ],
      "name": "OwnershipTransferred",
      "type": "event"
    },
    {
      "anonymous": false,
      "inputs": [
        {
          "indexed": true,
          "internalType": "uint256",
          "name": "proposalId",
          "type": "uint256"
        },
        {
          "indexed": false,
          "internalType": "address",
          "name": "proposer",
          "type": "address"
        },
        {
          "indexed": false,
          "internalType": "string",
          "name": "description",
          "type": "string"
        },
        {
          "indexed": false,
          "internalType": "address",
          "name": "recipient",
          "type": "address"
        },
        {
          "indexed": false,
          "internalType": "uint256",
          "name": "amount",
          "type": "uint256"
        }
      ],
      "name": "ProposalCreated",
      "type": "event"
    },
    {
      "anonymous": false,
      "inputs": [
        {
          "indexed": true,
          "internalType": "uint256",
          "name": "proposalId",
          "type": "uint256"
        }
      ],
      "name": "ProposalDeleted",
      "type": "event"
    },
    {
      "anonymous": false,
      "inputs": [
        {
          "indexed": true,
          "internalType": "uint256",
          "name": "proposalId",
          "type": "uint256"
        },
        {
          "indexed": false,
          "internalType": "address",
          "name": "recipient",
          "type": "address"
        },
        {
          "indexed": false,
          "internalType": "uint256",
          "name": "amount",
          "type": "uint256"
        }
      ],
      "name": "ProposalExecuted",
      "type": "event"
    },
    {
      "anonymous": false,
      "inputs": [
        {
          "indexed": true,
          "internalType": "uint256",
          "name": "proposalId",
          "type": "uint256"
        },
        {
          "indexed": false,
          "internalType": "address",
          "name": "voter",
          "type": "address"
        },
        {
          "indexed": false,
          "internalType": "bool",
          "name": "support",
          "type": "bool"
        },
        {
          "indexed": false,
          "internalType": "uint256",
          "name": "weight",
          "type": "uint256"
        }
      ],
      "name": "Voted",
      "type": "event"
    },
    {
      "anonymous": false,
      "inputs": [
        {
          "indexed": true,
          "internalType": "address",
          "name": "user",
          "type": "address"
        },
        {
          "indexed": false,
          "internalType": "uint256",
          "name": "amount",
          "type": "uint256"
        }
      ],
      "name": "Withdrawn",
      "type": "event"
    },
    {
      "inputs": [],
      "name": "MINIMUM_DEPOSIT_FOR_PROPOSAL",
      "outputs": [
        {
          "internalType": "uint256",
          "name": "",
          "type": "uint256"
        }
      ],
      "stateMutability": "view",
      "type": "function"
    },
    {
      "inputs": [],
      "name": "MINIMUM_TOKENS",
      "outputs": [
        {
          "internalType": "uint256",
          "name": "",
          "type": "uint256"
        }
      ],
      "stateMutability": "view",
      "type": "function"
    },
    {
      "inputs": [],
      "name": "VOTING_PERIOD",
      "outputs": [
        {
          "internalType": "uint256",
          "name": "",
          "type": "uint256"
        }
      ],
      "stateMutability": "view",
      "type": "function"
    },
    {
      "inputs": [
        {
          "internalType": "string",
          "name": "description",
          "type": "string"
        },
        {
          "internalType": "address",
          "name": "recipient",
          "type": "address"
        },
        {
          "internalType": "uint256",
          "name": "amount",
          "type": "uint256"
        }
      ],
      "name": "createProposal",
      "outputs": [],
      "stateMutability": "nonpayable",
      "type": "function"
    },
    {
      "inputs": [
        {
          "internalType": "string",
          "name": "description",
          "type": "string"
        },
        {
          "internalType": "address",
          "name": "recipient",
          "type": "address"
        },
        {
          "internalType": "uint256",
          "name": "amount",
          "type": "uint256"
        },
        {
          "internalType": "uint256",
          "name": "votingDurationMinutes",
          "type": "uint256"
        }
      ],
      "name": "createProposal",
      "outputs": [],
      "stateMutability": "nonpayable",
      "type": "function"
    },
    {
      "inputs": [
        {
          "internalType": "uint256",
          "name": "proposalId",
          "type": "uint256"
        }
      ],
      "name": "deleteProposal",
      "outputs": [],
      "stateMutability": "nonpayable",
      "type": "function"
    },
    {
      "inputs": [
        {
          "internalType": "uint256",
          "name": "amount",
          "type": "uint256"
        }
      ],
      "name": "deposit",
      "outputs": [],
      "stateMutability": "nonpayable",
      "type": "function"
    },
    {
      "inputs": [
        {
          "internalType": "uint256",
          "name": "proposalId",
          "type": "uint256"
        }
      ],
      "name": "executeProposal",
      "outputs": [],
      "stateMutability": "nonpayable",
      "type": "function"
    },
    {
      "inputs": [],
      "name": "getMinimumDepositForProposal",
      "outputs": [
        {
          "internalType": "uint256",
          "name": "",
          "type": "uint256"
        }
      ],
      "stateMutability": "pure",
      "type": "function"
    },
    {
      "inputs": [],
      "name": "getTreasuryBalance",
      "outputs": [
        {
          "internalType": "uint256",
          "name": "",
          "type": "uint256"
        }
      ],
      "stateMutability": "view",
      "type": "function"
    },
    {
      "inputs": [
        {
          "internalType": "address",
          "name": "user",
          "type": "address"
        }
      ],
      "name": "getUserDeposits",
      "outputs": [
        {
          "internalType": "uint256",
          "name": "",
          "type": "uint256"
        }
      ],
      "stateMutability": "view",
      "type": "function"
    },
    {
      "inputs": [
        {
          "internalType": "address",
          "name": "user",
          "type": "address"
        }
      ],
      "name": "getWithdrawableAmount",
      "outputs": [
        {
          "internalType": "uint256",
          "name": "",
          "type": "uint256"
        }
      ],
      "stateMutability": "view",
      "type": "function"
    },
    {
      "inputs": [
        {
          "internalType": "address",
          "name": "user",
          "type": "address"
        }
      ],
      "name": "hasActiveProposals",
      "outputs": [
        {
          "internalType": "bool",
          "name": "",
          "type": "bool"
        }
      ],
      "stateMutability": "view",
      "type": "function"
    },
    {
      "inputs": [
        {
          "internalType": "address",
          "name": "user",
          "type": "address"
        }
      ],
      "name": "hasCreatedAnyProposal",
      "outputs": [
        {
          "internalType": "bool",
          "name": "",
          "type": "bool"
        }
      ],
      "stateMutability": "view",
      "type": "function"
    },
    {
      "inputs": [],
      "name": "owner",
      "outputs": [
        {
          "internalType": "address",
          "name": "",
          "type": "address"
        }
      ],
      "stateMutability": "view",
      "type": "function"
    },
    {
      "inputs": [],
      "name": "proposalCount",
      "outputs": [
        {
          "internalType": "uint256",
          "name": "",
          "type": "uint256"
        }
      ],
      "stateMutability": "view",
      "type": "function"
    },
    {
      "inputs": [
        {
          "internalType": "uint256",
          "name": "",
          "type": "uint256"
        }
      ],
      "name": "proposals",
      "outputs": [
        {
          "internalType": "uint256",
          "name": "id",
          "type": "uint256"
        },
        {
          "internalType": "address",
          "name": "proposer",
          "type": "address"
        },
        {
          "internalType": "string",
          "name": "description",
          "type": "string"
        },
        {
          "internalType": "address",
          "name": "recipient",
          "type": "address"
        },
        {
          "internalType": "uint256",
          "name": "amount",
          "type": "uint256"
        },
        {
          "internalType": "uint256",
          "name": "startTime",
          "type": "uint256"
        },
        {
          "internalType": "uint256",
          "name": "endTime",
          "type": "uint256"
        },
        {
          "internalType": "uint256",
          "name": "forVotes",
          "type": "uint256"
        },
        {
          "internalType": "uint256",
          "name": "againstVotes",
          "type": "uint256"
        },
        {
          "internalType": "bool",
          "name": "executed",
          "type": "bool"
        },
        {
          "internalType": "bool",
          "name": "deleted",
          "type": "bool"
        }
      ],
      "stateMutability": "view",
      "type": "function"
    },
    {
      "inputs": [],
      "name": "renounceOwnership",
      "outputs": [],
      "stateMutability": "nonpayable",
      "type": "function"
    },
    {
      "inputs": [],
      "name": "token",
      "outputs": [
        {
          "internalType": "contract IERC20",
          "name": "",
          "type": "address"
        }
      ],
      "stateMutability": "view",
      "type": "function"
    },
    {
      "inputs": [
        {
          "internalType": "address",
          "name": "newOwner",
          "type": "address"
        }
      ],
      "name": "transferOwnership",
      "outputs": [],
      "stateMutability": "nonpayable",
      "type": "function"
    },
    {
      "inputs": [
        {
          "internalType": "address",
          "name": "",
          "type": "address"
        }
      ],
      "name": "userDeposits",
      "outputs": [
        {
          "internalType": "uint256",
          "name": "",
          "type": "uint256"
        }
      ],
      "stateMutability": "view",
      "type": "function"
    },
    {
      "inputs": [
        {
          "internalType": "uint256",
          "name": "proposalId",
          "type": "uint256"
        },
        {
          "internalType": "bool",
          "name": "support",
          "type": "bool"
        }
      ],
      "name": "vote",
      "outputs": [],
      "stateMutability": "nonpayable",
      "type": "function"
    },
    {
      "inputs": [
        {
          "internalType": "uint256",
          "name": "amount",
          "type": "uint256"
        }
      ],
      "name": "withdraw",
      "outputs": [],
      "stateMutability": "nonpayable",
      "type": "function"
    }
  ],
  "bytecode": "0x608060405234801561001057600080fd5b5060405161354138038061354183398181016040528101906100329190610223565b33600073ffffffffffffffffffffffffffffffffffffffff168173ffffffffffffffffffffffffffffffffffffffff16036100a55760006040517f1e4fbdf700000000000000000000000000000000000000000000000000000000815260040161009c919061025f565b60405180910390fd5b6100b4816100fc60201b60201c565b5080600160006101000a81548173ffffffffffffffffffffffffffffffffffffffff021916908373ffffffffffffffffffffffffffffffffffffffff1602179055505061027a565b60008060009054906101000a900473ffffffffffffffffffffffffffffffffffffffff169050816000806101000a81548173ffffffffffffffffffffffffffffffffffffffff021916908373ffffffffffffffffffffffffffffffffffffffff1602179055508173ffffffffffffffffffffffffffffffffffffffff168173ffffffffffffffffffffffffffffffffffffffff167f8be0079c531659141344cd1fd0a4f28419497f9722a3daafe3b4186f6b6457e060405160405180910390a35050565b600080fd5b600073ffffffffffffffffffffffffffffffffffffffff82169050919050565b60006101f0826101c5565b9050919050565b610200816101e5565b811461020b57600080fd5b50565b60008151905061021d816101f7565b92915050565b600060208284031215610239576102386101c0565b5b60006102478482850161020e565b91505092915050565b610259816101e5565b82525050565b60006020820190506102746000830184610250565b92915050565b6132b8806102896000396000f3fe608060405234801561001057600080fd5b506004361061014d5760003560e01c80638da5cb5b116100c3578063da35c6641161007c578063da35c66414610392578063e0c44e76146103b0578063e9b01f8e146103ce578063f2fde38b146103ec578063f677717514610408578063fc0c546a146104385761014d565b80638da5cb5b146102e25780639b5655dc14610300578063b1610d7e1461031e578063b6b55f251461033c578063c9d27afe14610358578063cf76e8e1146103745761014d565b806349ee90911161011557806349ee9091146102245780634fa8932b14610254578063715018a6146102845780638259d5531461028e578063831c43ac146102aa5780638743dae6146102c65761014d565b8063013cf08b146101525780630ba36dcd1461018c5780630d61b519146101bc5780632a5bf6d2146101d85780632e1a7d4d14610208575b600080fd5b61016c60048036038101906101679190611dfb565b610456565b6040516101839b9a99989796959493929190611f23565b60405180910390f35b6101a660048036038101906101a19190612001565b610592565b6040516101b3919061202e565b60405180910390f35b6101d660048036038101906101d19190611dfb565b6105aa565b005b6101f260048036038101906101ed9190612001565b6109a8565b6040516101ff919061202e565b60405180910390f35b610222600480360381019061021d9190611dfb565b6109f1565b005b61023e60048036038101906102399190612001565b610d31565b60405161024b9190612049565b60405180910390f35b61026e60048036038101906102699190612001565b610df6565b60405161027b9190612049565b60405180910390f35b61028c610ee6565b005b6102a860048036038101906102a39190611dfb565b610efa565b005b6102c460048036038101906102bf9190612199565b611052565b005b6102e060048036038101906102db9190612208565b611065565b005b6102ea61145a565b6040516102f7919061228b565b60405180910390f35b610308611483565b604051610315919061202e565b60405180910390f35b610326611526565b604051610333919061202e565b60405180910390f35b61035660048036038101906103519190611dfb565b61152d565b005b610372600480360381019061036d91906122d2565b6116f8565b005b61037c611ad1565b604051610389919061202e565b60405180910390f35b61039a611adf565b6040516103a7919061202e565b60405180910390f35b6103b8611ae5565b6040516103c5919061202e565b60405180910390f35b6103d6611af2565b6040516103e3919061202e565b60405180910390f35b61040660048036038101906104019190612001565b611b04565b005b610422600480360381019061041d9190612001565b611b8a565b60405161042f919061202e565b60405180910390f35b610440611c38565b60405161044d9190612371565b60405180910390f35b60036020528060005260406000206000915090508060000154908060010160009054906101000a900473ffffffffffffffffffffffffffffffffffffffff16908060020180546104a5906123bb565b80601f01602080910402602001604051908101604052809291908181526020018280546104d1906123bb565b801561051e5780601f106104f35761010080835404028352916020019161051e565b820191906000526020600020905b81548152906001019060200180831161050157829003601f168201915b5050505050908060030160009054906101000a900473ffffffffffffffffffffffffffffffffffffffff16908060040154908060050154908060060154908060070154908060080154908060090160009054906101000a900460ff16908060090160019054906101000a900460ff1690508b565b60046020528060005260406000206000915090505481565b60006003600083815260200190815260200160002090506000816000015403610608576040517f08c379a00000000000000000000000000000000000000000000000000000000081526004016105ff90612438565b60405180910390fd5b8060090160019054906101000a900460ff161561065a576040517f08c379a0000000000000000000000000000000000000000000000000000000008152600401610651906124a4565b60405180910390fd5b806006015442116106a0576040517f08c379a000000000000000000000000000000000000000000000000000000000815260040161069790612510565b60405180910390fd5b8060090160009054906101000a900460ff16156106f2576040517f08c379a00000000000000000000000000000000000000000000000000000000081526004016106e99061257c565b60405180910390fd5b806008015481600701541161073c576040517f08c379a0000000000000000000000000000000000000000000000000000000008152600401610733906125e8565b60405180910390fd5b8060040154600160009054906101000a900473ffffffffffffffffffffffffffffffffffffffff1673ffffffffffffffffffffffffffffffffffffffff166370a08231306040518263ffffffff1660e01b815260040161079c919061228b565b602060405180830381865afa1580156107b9573d6000803e3d6000fd5b505050506040513d601f19601f820116820180604052508101906107dd919061261d565b101561081e576040517f08c379a000000000000000000000000000000000000000000000000000000000815260040161081590612696565b60405180910390fd5b60018160090160006101000a81548160ff021916908315150217905550600160009054906101000a900473ffffffffffffffffffffffffffffffffffffffff1673ffffffffffffffffffffffffffffffffffffffff1663a9059cbb8260030160009054906101000a900473ffffffffffffffffffffffffffffffffffffffff1683600401546040518363ffffffff1660e01b81526004016108c09291906126b6565b6020604051808303816000875af11580156108df573d6000803e3d6000fd5b505050506040513d601f19601f8201168201806040525081019061090391906126f4565b610942576040517f08c379a00000000000000000000000000000000000000000000000000000000081526004016109399061276d565b60405180910390fd5b817f3b7c90df35b419337cff0919fe91849006607bb66c4373623f06f9d48c1ebb988260030160009054906101000a900473ffffffffffffffffffffffffffffffffffffffff16836004015460405161099c9291906126b6565b60405180910390a25050565b6000600460008373ffffffffffffffffffffffffffffffffffffffff1673ffffffffffffffffffffffffffffffffffffffff168152602001908152602001600020549050919050565b60008111610a34576040517f08c379a0000000000000000000000000000000000000000000000000000000008152600401610a2b906127d9565b60405180910390fd5b80600460003373ffffffffffffffffffffffffffffffffffffffff1673ffffffffffffffffffffffffffffffffffffffff168152602001908152602001600020541015610ab6576040517f08c379a0000000000000000000000000000000000000000000000000000000008152600401610aad90612845565b60405180910390fd5b610abf33610df6565b15610aff576040517f08c379a0000000000000000000000000000000000000000000000000000000008152600401610af6906128d7565b60405180910390fd5b600081600460003373ffffffffffffffffffffffffffffffffffffffff1673ffffffffffffffffffffffffffffffffffffffff16815260200190815260200160002054610b4c9190612926565b9050610b5733610d31565b15610baa5769010f0cf064dd59200000811015610ba9576040517f08c379a0000000000000000000000000000000000000000000000000000000008152600401610ba0906129f2565b60405180910390fd5b5b81600460003373ffffffffffffffffffffffffffffffffffffffff1673ffffffffffffffffffffffffffffffffffffffff1681526020019081526020016000206000828254610bf99190612926565b92505081905550600160009054906101000a900473ffffffffffffffffffffffffffffffffffffffff1673ffffffffffffffffffffffffffffffffffffffff1663a9059cbb33846040518363ffffffff1660e01b8152600401610c5d9291906126b6565b6020604051808303816000875af1158015610c7c573d6000803e3d6000fd5b505050506040513d601f19601f82011682018060405250810190610ca091906126f4565b610cdf576040517f08c379a0000000000000000000000000000000000000000000000000000000008152600401610cd69061276d565b60405180910390fd5b3373ffffffffffffffffffffffffffffffffffffffff167f7084f5476618d8e60b11ef0d7d3f06914655adb8793e28ff7f018d4c76d505d583604051610d25919061202e565b60405180910390a25050565b600080600190505b6002548111610deb5760006003600083815260200190815260200160002090508373ffffffffffffffffffffffffffffffffffffffff168160010160009054906101000a900473ffffffffffffffffffffffffffffffffffffffff1673ffffffffffffffffffffffffffffffffffffffff16148015610dc757508060090160019054906101000a900460ff16155b15610dd757600192505050610df1565b508080610de390612a12565b915050610d39565b50600090505b919050565b600080600190505b6002548111610edb5760006003600083815260200190815260200160002090508373ffffffffffffffffffffffffffffffffffffffff168160010160009054906101000a900473ffffffffffffffffffffffffffffffffffffffff1673ffffffffffffffffffffffffffffffffffffffff16148015610e8c57508060090160009054906101000a900460ff16155b8015610ea757508060090160019054906101000a900460ff16155b8015610eb7575080600601544211155b15610ec757600192505050610ee1565b508080610ed390612a12565b915050610dfe565b50600090505b919050565b610eee611c5e565b610ef86000611ce5565b565b610f02611c5e565b60006003600083815260200190815260200160002090506000816000015403610f60576040517f08c379a0000000000000000000000000000000000000000000000000000000008152600401610f5790612438565b60405180910390fd5b8060090160009054906101000a900460ff1615610fb2576040517f08c379a0000000000000000000000000000000000000000000000000000000008152600401610fa990612aa6565b60405180910390fd5b8060090160019054906101000a900460ff1615611004576040517f08c379a0000000000000000000000000000000000000000000000000000000008152600401610ffb90612b12565b60405180910390fd5b60018160090160016101000a81548160ff021916908315150217905550817f61c0d93dc2b610877e420b107c8d12e9185e46e04a505da758cc7f7329ae545f60405160405180910390a25050565b611060838383612760611065565b505050565b683635c9adc5dea00000600160009054906101000a900473ffffffffffffffffffffffffffffffffffffffff1673ffffffffffffffffffffffffffffffffffffffff166370a08231336040518263ffffffff1660e01b81526004016110ca919061228b565b602060405180830381865afa1580156110e7573d6000803e3d6000fd5b505050506040513d601f19601f8201168201806040525081019061110b919061261d565b101561114c576040517f08c379a000000000000000000000000000000000000000000000000000000000815260040161114390612b7e565b60405180910390fd5b69010f0cf064dd59200000600460003373ffffffffffffffffffffffffffffffffffffffff1673ffffffffffffffffffffffffffffffffffffffff1681526020019081526020016000205410156111d8576040517f08c379a00000000000000000000000000000000000000000000000000000000081526004016111cf90612c10565b60405180910390fd5b6000821161121b576040517f08c379a0000000000000000000000000000000000000000000000000000000008152600401611212906127d9565b60405180910390fd5b600073ffffffffffffffffffffffffffffffffffffffff168373ffffffffffffffffffffffffffffffffffffffff160361128a576040517f08c379a000000000000000000000000000000000000000000000000000000000815260040161128190612c7c565b60405180910390fd5b600081116112cd576040517f08c379a00000000000000000000000000000000000000000000000000000000081526004016112c490612d0e565b60405180910390fd5b6000603c826112dc9190612d2e565b9050600260008154809291906112f190612a12565b9190505550600060036000600254815260200190815260200160002090506002548160000181905550338160010160006101000a81548173ffffffffffffffffffffffffffffffffffffffff021916908373ffffffffffffffffffffffffffffffffffffffff1602179055508581600201908161136e9190612f12565b50848160030160006101000a81548173ffffffffffffffffffffffffffffffffffffffff021916908373ffffffffffffffffffffffffffffffffffffffff16021790555083816004018190555042816005018190555081426113d09190612fe4565b816006018190555060008160090160006101000a81548160ff02191690831515021790555060008160090160016101000a81548160ff0219169083151502179055506002547f36ef39b15ae87208645c010139b1c8b7b25a358bb68989fefcc82b1e0754bcbd3388888860405161144a9493929190613018565b60405180910390a2505050505050565b60008060009054906101000a900473ffffffffffffffffffffffffffffffffffffffff16905090565b6000600160009054906101000a900473ffffffffffffffffffffffffffffffffffffffff1673ffffffffffffffffffffffffffffffffffffffff166370a08231306040518263ffffffff1660e01b81526004016114e0919061228b565b602060405180830381865afa1580156114fd573d6000803e3d6000fd5b505050506040513d601f19601f82011682018060405250810190611521919061261d565b905090565b62093a8081565b60008111611570576040517f08c379a0000000000000000000000000000000000000000000000000000000008152600401611567906127d9565b60405180910390fd5b600160009054906101000a900473ffffffffffffffffffffffffffffffffffffffff1673ffffffffffffffffffffffffffffffffffffffff166323b872dd3330846040518463ffffffff1660e01b81526004016115cf93929190613064565b6020604051808303816000875af11580156115ee573d6000803e3d6000fd5b505050506040513d601f19601f8201168201806040525081019061161291906126f4565b611651576040517f08c379a00000000000000000000000000000000000000000000000000000000081526004016116489061276d565b60405180910390fd5b80600460003373ffffffffffffffffffffffffffffffffffffffff1673ffffffffffffffffffffffffffffffffffffffff16815260200190815260200160002060008282546116a09190612fe4565b925050819055503373ffffffffffffffffffffffffffffffffffffffff167f2da466a7b24304f47e87fa2e1e5a81b9831ce54fec19055ce277ca2f39ba42c4826040516116ed919061202e565b60405180910390a250565b60006003600084815260200190815260200160002090506000816000015403611756576040517f08c379a000000000000000000000000000000000000000000000000000000000815260040161174d90612438565b60405180910390fd5b8060090160019054906101000a900460ff16156117a8576040517f08c379a000000000000000000000000000000000000000000000000000000000815260040161179f906124a4565b60405180910390fd5b80600601544211156117ef576040517f08c379a00000000000000000000000000000000000000000000000000000000081526004016117e6906130e7565b60405180910390fd5b80600a0160003373ffffffffffffffffffffffffffffffffffffffff1673ffffffffffffffffffffffffffffffffffffffff16815260200190815260200160002060009054906101000a900460ff161561187e576040517f08c379a000000000000000000000000000000000000000000000000000000000815260040161187590613153565b60405180910390fd5b8060010160009054906101000a900473ffffffffffffffffffffffffffffffffffffffff1673ffffffffffffffffffffffffffffffffffffffff163373ffffffffffffffffffffffffffffffffffffffff1603611910576040517f08c379a0000000000000000000000000000000000000000000000000000000008152600401611907906131bf565b60405180910390fd5b6000600160009054906101000a900473ffffffffffffffffffffffffffffffffffffffff1673ffffffffffffffffffffffffffffffffffffffff166370a08231336040518263ffffffff1660e01b815260040161196d919061228b565b602060405180830381865afa15801561198a573d6000803e3d6000fd5b505050506040513d601f19601f820116820180604052508101906119ae919061261d565b9050600081116119f3576040517f08c379a00000000000000000000000000000000000000000000000000000000081526004016119ea9061322b565b60405180910390fd5b600182600a0160003373ffffffffffffffffffffffffffffffffffffffff1673ffffffffffffffffffffffffffffffffffffffff16815260200190815260200160002060006101000a81548160ff0219169083151502179055508215611a735780826007016000828254611a679190612fe4565b92505081905550611a8f565b80826008016000828254611a879190612fe4565b925050819055505b837f7c2de587c00d75474a0c6c6fa96fd3b45dc974cd4e8a75f712bb84c950dce1b5338584604051611ac39392919061324b565b60405180910390a250505050565b69010f0cf064dd5920000081565b60025481565b683635c9adc5dea0000081565b600069010f0cf064dd59200000905090565b611b0c611c5e565b600073ffffffffffffffffffffffffffffffffffffffff168173ffffffffffffffffffffffffffffffffffffffff1603611b7e5760006040517f1e4fbdf7000000000000000000000000000000000000000000000000000000008152600401611b75919061228b565b60405180910390fd5b611b8781611ce5565b50565b600080600460008473ffffffffffffffffffffffffffffffffffffffff1673ffffffffffffffffffffffffffffffffffffffff168152602001908152602001600020549050611bd883610df6565b15611be7576000915050611c33565b611bf083610d31565b15611c2e5769010f0cf064dd592000008111611c10576000915050611c33565b69010f0cf064dd5920000081611c269190612926565b915050611c33565b809150505b919050565b600160009054906101000a900473ffffffffffffffffffffffffffffffffffffffff1681565b611c66611da9565b73ffffffffffffffffffffffffffffffffffffffff16611c8461145a565b73ffffffffffffffffffffffffffffffffffffffff1614611ce357611ca7611da9565b6040517f118cdaa7000000000000000000000000000000000000000000000000000000008152600401611cda919061228b565b60405180910390fd5b565b60008060009054906101000a900473ffffffffffffffffffffffffffffffffffffffff169050816000806101000a81548173ffffffffffffffffffffffffffffffffffffffff021916908373ffffffffffffffffffffffffffffffffffffffff1602179055508173ffffffffffffffffffffffffffffffffffffffff168173ffffffffffffffffffffffffffffffffffffffff167f8be0079c531659141344cd1fd0a4f28419497f9722a3daafe3b4186f6b6457e060405160405180910390a35050565b600033905090565b6000604051905090565b600080fd5b600080fd5b6000819050919050565b611dd881611dc5565b8114611de357600080fd5b50565b600081359050611df581611dcf565b92915050565b600060208284031215611e1157611e10611dbb565b5b6000611e1f84828501611de6565b91505092915050565b611e3181611dc5565b82525050565b600073ffffffffffffffffffffffffffffffffffffffff82169050919050565b6000611e6282611e37565b9050919050565b611e7281611e57565b82525050565b600081519050919050565b600082825260208201905092915050565b60005b83811015611eb2578082015181840152602081019050611e97565b60008484015250505050565b6000601f19601f8301169050919050565b6000611eda82611e78565b611ee48185611e83565b9350611ef4818560208601611e94565b611efd81611ebe565b840191505092915050565b60008115159050919050565b611f1d81611f08565b82525050565b600061016082019050611f39600083018e611e28565b611f46602083018d611e69565b8181036040830152611f58818c611ecf565b9050611f67606083018b611e69565b611f74608083018a611e28565b611f8160a0830189611e28565b611f8e60c0830188611e28565b611f9b60e0830187611e28565b611fa9610100830186611e28565b611fb7610120830185611f14565b611fc5610140830184611f14565b9c9b505050505050505050505050565b611fde81611e57565b8114611fe957600080fd5b50565b600081359050611ffb81611fd5565b92915050565b60006020828403121561201757612016611dbb565b5b600061202584828501611fec565b91505092915050565b60006020820190506120436000830184611e28565b92915050565b600060208201905061205e6000830184611f14565b92915050565b600080fd5b600080fd5b7f4e487b7100000000000000000000000000000000000000000000000000000000600052604160045260246000fd5b6120a682611ebe565b810181811067ffffffffffffffff821117156120c5576120c461206e565b5b80604052505050565b60006120d8611db1565b90506120e4828261209d565b919050565b600067ffffffffffffffff8211156121045761210361206e565b5b61210d82611ebe565b9050602081019050919050565b82818337600083830152505050565b600061213c612137846120e9565b6120ce565b90508281526020810184848401111561215857612157612069565b5b61216384828561211a565b509392505050565b600082601f8301126121805761217f612064565b5b8135612190848260208601612129565b91505092915050565b6000806000606084860312156121b2576121b1611dbb565b5b600084013567ffffffffffffffff8111156121d0576121cf611dc0565b5b6121dc8682870161216b565b93505060206121ed86828701611fec565b92505060406121fe86828701611de6565b9150509250925092565b6000806000806080858703121561222257612221611dbb565b5b600085013567ffffffffffffffff8111156122405761223f611dc0565b5b61224c8782880161216b565b945050602061225d87828801611fec565b935050604061226e87828801611de6565b925050606061227f87828801611de6565b91505092959194509250565b60006020820190506122a06000830184611e69565b92915050565b6122af81611f08565b81146122ba57600080fd5b50565b6000813590506122cc816122a6565b92915050565b600080604083850312156122e9576122e8611dbb565b5b60006122f785828601611de6565b9250506020612308858286016122bd565b9150509250929050565b6000819050919050565b600061233761233261232d84611e37565b612312565b611e37565b9050919050565b60006123498261231c565b9050919050565b600061235b8261233e565b9050919050565b61236b81612350565b82525050565b60006020820190506123866000830184612362565b92915050565b7f4e487b7100000000000000000000000000000000000000000000000000000000600052602260045260246000fd5b600060028204905060018216806123d357607f821691505b6020821081036123e6576123e561238c565b5b50919050565b7f50726f706f73616c20646f6573206e6f74206578697374000000000000000000600082015250565b6000612422601783611e83565b915061242d826123ec565b602082019050919050565b6000602082019050818103600083015261245181612415565b9050919050565b7f50726f706f73616c20686173206265656e2064656c6574656400000000000000600082015250565b600061248e601983611e83565b915061249982612458565b602082019050919050565b600060208201905081810360008301526124bd81612481565b9050919050565b7f566f74696e6720706572696f64206e6f7420656e646564000000000000000000600082015250565b60006124fa601783611e83565b9150612505826124c4565b602082019050919050565b60006020820190508181036000830152612529816124ed565b9050919050565b7f50726f706f73616c20616c726561647920657865637574656400000000000000600082015250565b6000612566601983611e83565b915061257182612530565b602082019050919050565b6000602082019050818103600083015261259581612559565b9050919050565b7f50726f706f73616c206e6f7420617070726f7665640000000000000000000000600082015250565b60006125d2601583611e83565b91506125dd8261259c565b602082019050919050565b60006020820190508181036000830152612601816125c5565b9050919050565b60008151905061261781611dcf565b92915050565b60006020828403121561263357612632611dbb565b5b600061264184828501612608565b91505092915050565b7f496e73756666696369656e742074726561737572792062616c616e6365000000600082015250565b6000612680601d83611e83565b915061268b8261264a565b602082019050919050565b600060208201905081810360008301526126af81612673565b9050919050565b60006040820190506126cb6000830185611e69565b6126d86020830184611e28565b9392505050565b6000815190506126ee816122a6565b92915050565b60006020828403121561270a57612709611dbb565b5b6000612718848285016126df565b91505092915050565b7f5472616e73666572206661696c65640000000000000000000000000000000000600082015250565b6000612757600f83611e83565b915061276282612721565b602082019050919050565b600060208201905081810360008301526127868161274a565b9050919050565b7f416d6f756e74206d7573742062652067726561746572207468616e2030000000600082015250565b60006127c3601d83611e83565b91506127ce8261278d565b602082019050919050565b600060208201905081810360008301526127f2816127b6565b9050919050565b7f496e73756666696369656e74206465706f7369742062616c616e636500000000600082015250565b600061282f601c83611e83565b915061283a826127f9565b602082019050919050565b6000602082019050818103600083015261285e81612822565b9050919050565b7f43616e6e6f74207769746864726177207768696c6520686176696e672061637460008201527f6976652070726f706f73616c7300000000000000000000000000000000000000602082015250565b60006128c1602d83611e83565b91506128cc82612865565b604082019050919050565b600060208201905081810360008301526128f0816128b4565b9050919050565b7f4e487b7100000000000000000000000000000000000000000000000000000000600052601160045260246000fd5b600061293182611dc5565b915061293c83611dc5565b9250828203905081811115612954576129536128f7565b5b92915050565b7f5769746864726177616c20776f756c642076696f6c617465206d696e696d756d60008201527f206465706f73697420726571756972656d656e7420666f722070726f706f736160208201527f6c206372656174696f6e00000000000000000000000000000000000000000000604082015250565b60006129dc604a83611e83565b91506129e78261295a565b606082019050919050565b60006020820190508181036000830152612a0b816129cf565b9050919050565b6000612a1d82611dc5565b91507fffffffffffffffffffffffffffffffffffffffffffffffffffffffffffffffff8203612a4f57612a4e6128f7565b5b600182019050919050565b7f43616e6e6f742064656c6574652065786563757465642070726f706f73616c00600082015250565b6000612a90601f83611e83565b9150612a9b82612a5a565b602082019050919050565b60006020820190508181036000830152612abf81612a83565b9050919050565b7f50726f706f73616c20616c72656164792064656c657465640000000000000000600082015250565b6000612afc601883611e83565b9150612b0782612ac6565b602082019050919050565b60006020820190508181036000830152612b2b81612aef565b9050919050565b7f496e73756666696369656e7420746f6b656e7320746f20766f74650000000000600082015250565b6000612b68601b83611e83565b9150612b7382612b32565b602082019050919050565b60006020820190508181036000830152612b9781612b5b565b9050919050565b7f4d757374206465706f736974206174206c6561737420353030302044544b207460008201527f6f206372656174652070726f706f73616c730000000000000000000000000000602082015250565b6000612bfa603283611e83565b9150612c0582612b9e565b604082019050919050565b60006020820190508181036000830152612c2981612bed565b9050919050565b7f496e76616c696420726563697069656e74000000000000000000000000000000600082015250565b6000612c66601183611e83565b9150612c7182612c30565b602082019050919050565b60006020820190508181036000830152612c9581612c59565b9050919050565b7f566f74696e67206475726174696f6e206d75737420626520677265617465722060008201527f7468616e20300000000000000000000000000000000000000000000000000000602082015250565b6000612cf8602683611e83565b9150612d0382612c9c565b604082019050919050565b60006020820190508181036000830152612d2781612ceb565b9050919050565b6000612d3982611dc5565b9150612d4483611dc5565b9250828202612d5281611dc5565b91508282048414831517612d6957612d686128f7565b5b5092915050565b60008190508160005260206000209050919050565b60006020601f8301049050919050565b600082821b905092915050565b600060088302612dd27fffffffffffffffffffffffffffffffffffffffffffffffffffffffffffffffff82612d95565b612ddc8683612d95565b95508019841693508086168417925050509392505050565b6000612e0f612e0a612e0584611dc5565b612312565b611dc5565b9050919050565b6000819050919050565b612e2983612df4565b612e3d612e3582612e16565b848454612da2565b825550505050565b600090565b612e52612e45565b612e5d818484612e20565b505050565b5b81811015612e8157612e76600082612e4a565b600181019050612e63565b5050565b601f821115612ec657612e9781612d70565b612ea084612d85565b81016020851015612eaf578190505b612ec3612ebb85612d85565b830182612e62565b50505b505050565b600082821c905092915050565b6000612ee960001984600802612ecb565b1980831691505092915050565b6000612f028383612ed8565b9150826002028217905092915050565b612f1b82611e78565b67ffffffffffffffff811115612f3457612f3361206e565b5b612f3e82546123bb565b612f49828285612e85565b600060209050601f831160018114612f7c5760008415612f6a578287015190505b612f748582612ef6565b865550612fdc565b601f198416612f8a86612d70565b60005b82811015612fb257848901518255600182019150602085019450602081019050612f8d565b86831015612fcf5784890151612fcb601f891682612ed8565b8355505b6001600288020188555050505b505050505050565b6000612fef82611dc5565b9150612ffa83611dc5565b9250828201905080821115613012576130116128f7565b5b92915050565b600060808201905061302d6000830187611e69565b818103602083015261303f8186611ecf565b905061304e6040830185611e69565b61305b6060830184611e28565b95945050505050565b60006060820190506130796000830186611e69565b6130866020830185611e69565b6130936040830184611e28565b949350505050565b7f566f74696e6720706572696f6420656e64656400000000000000000000000000600082015250565b60006130d1601383611e83565b91506130dc8261309b565b602082019050919050565b60006020820190508181036000830152613100816130c4565b9050919050565b7f416c726561647920766f74656400000000000000000000000000000000000000600082015250565b600061313d600d83611e83565b915061314882613107565b602082019050919050565b6000602082019050818103600083015261316c81613130565b9050919050565b7f43616e6e6f7420766f7465206f6e206f776e2070726f706f73616c0000000000600082015250565b60006131a9601b83611e83565b91506131b482613173565b602082019050919050565b600060208201905081810360008301526131d88161319c565b9050919050565b7f4e6f20746f6b656e7320746f20766f7465000000000000000000000000000000600082015250565b6000613215601183611e83565b9150613220826131df565b602082019050919050565b6000602082019050818103600083015261324481613208565b9050919050565b60006060820190506132606000830186611e69565b61326d6020830185611f14565b61327a6040830184611e28565b94935050505056fea264697066735822122090f69a7dd0076f0f93fd83f3e83d9ea91e3df7809acfe92bef1667e7d0a97bdd64736f6c634300081c0033",
  "linkReferences": {},
  "deployedLinkReferences": {}
}