{
  "_format": "hh-sol-artifact-1",
  "contractName": "DAOTreasury",
  "sourceName": "contracts/DAOTreasury.sol",
  "abi": [
    {
      "inputs": [
        {
          "internalType": "address",
          "name": "_token",
          "type": "address"
        }
      ],
      "stateMutability": "nonpayable",
      "type": "constructor"
    },
    {
      "inputs": [
        {
          "internalType": "address",
          "name": "owner",
          "type": "address"
        }
      ],
      "name": "OwnableInvalidOwner",
      "type": "error"
    },
    {
      "inputs": [
        {
          "internalType": "address",
          "name": "account",
          "type": "address"
        }
      ],
      "name": "OwnableUnauthorizedAccount",
      "type": "error"
    },
    {
      "anonymous": false,
      "inputs": [
        {
          "indexed": true,
          "internalType": "address",
          "name": "sender",
          "type": "address"
        },
        {
          "indexed": false,
          "internalType": "uint256",
          "name": "amount",
          "type": "uint256"
        }
      ],
      "name": "Deposited",
      "type": "event"
    },
    {
      "anonymous": false,
      "inputs": [
        {
          "indexed": true,
          "internalType": "address",
          "name": "previousOwner",
          "type": "address"
        },
        {
          "indexed": true,
          "internalType": "address",
          "name": "newOwner",
          "type": "address"
        }
      ],
      "name": "OwnershipTransferred",
      "type": "event"
    },
    {
      "anonymous": false,
      "inputs": [
        {
          "indexed": true,
          "internalType": "uint256",
          "name": "proposalId",
          "type": "uint256"
        },
        {
          "indexed": false,
          "internalType": "address",
          "name": "proposer",
          "type": "address"
        },
        {
          "indexed": false,
          "internalType": "string",
          "name": "description",
          "type": "string"
        },
        {
          "indexed": false,
          "internalType": "address",
          "name": "recipient",
          "type": "address"
        },
        {
          "indexed": false,
          "internalType": "uint256",
          "name": "amount",
          "type": "uint256"
        }
      ],
      "name": "ProposalCreated",
      "type": "event"
    },
    {
      "anonymous": false,
      "inputs": [
        {
          "indexed": true,
          "internalType": "uint256",
          "name": "proposalId",
          "type": "uint256"
        }
      ],
      "name": "ProposalDeleted",
      "type": "event"
    },
    {
      "anonymous": false,
      "inputs": [
        {
          "indexed": true,
          "internalType": "uint256",
          "name": "proposalId",
          "type": "uint256"
        },
        {
          "indexed": false,
          "internalType": "address",
          "name": "recipient",
          "type": "address"
        },
        {
          "indexed": false,
          "internalType": "uint256",
          "name": "amount",
          "type": "uint256"
        }
      ],
      "name": "ProposalExecuted",
      "type": "event"
    },
    {
      "anonymous": false,
      "inputs": [
        {
          "indexed": true,
          "internalType": "uint256",
          "name": "proposalId",
          "type": "uint256"
        },
        {
          "indexed": false,
          "internalType": "address",
          "name": "voter",
          "type": "address"
        },
        {
          "indexed": false,
          "internalType": "bool",
          "name": "support",
          "type": "bool"
        },
        {
          "indexed": false,
          "internalType": "uint256",
          "name": "weight",
          "type": "uint256"
        }
      ],
      "name": "Voted",
      "type": "event"
    },
    {
      "inputs": [],
      "name": "MINIMUM_DEPOSIT_FOR_PROPOSAL",
      "outputs": [
        {
          "internalType": "uint256",
          "name": "",
          "type": "uint256"
        }
      ],
      "stateMutability": "view",
      "type": "function"
    },
    {
      "inputs": [],
      "name": "MINIMUM_TOKENS",
      "outputs": [
        {
          "internalType": "uint256",
          "name": "",
          "type": "uint256"
        }
      ],
      "stateMutability": "view",
      "type": "function"
    },
    {
      "inputs": [],
      "name": "VOTING_PERIOD",
      "outputs": [
        {
          "internalType": "uint256",
          "name": "",
          "type": "uint256"
        }
      ],
      "stateMutability": "view",
      "type": "function"
    },
    {
      "inputs": [
        {
          "internalType": "string",
          "name": "description",
          "type": "string"
        },
        {
          "internalType": "address",
          "name": "recipient",
          "type": "address"
        },
        {
          "internalType": "uint256",
          "name": "amount",
          "type": "uint256"
        }
      ],
      "name": "createProposal",
      "outputs": [],
      "stateMutability": "nonpayable",
      "type": "function"
    },
    {
      "inputs": [
        {
          "internalType": "string",
          "name": "description",
          "type": "string"
        },
        {
          "internalType": "address",
          "name": "recipient",
          "type": "address"
        },
        {
          "internalType": "uint256",
          "name": "amount",
          "type": "uint256"
        },
        {
          "internalType": "uint256",
          "name": "votingDurationMinutes",
          "type": "uint256"
        }
      ],
      "name": "createProposal",
      "outputs": [],
      "stateMutability": "nonpayable",
      "type": "function"
    },
    {
      "inputs": [
        {
          "internalType": "uint256",
          "name": "proposalId",
          "type": "uint256"
        }
      ],
      "name": "deleteProposal",
      "outputs": [],
      "stateMutability": "nonpayable",
      "type": "function"
    },
    {
      "inputs": [
        {
          "internalType": "uint256",
          "name": "amount",
          "type": "uint256"
        }
      ],
      "name": "deposit",
      "outputs": [],
      "stateMutability": "nonpayable",
      "type": "function"
    },
    {
      "inputs": [
        {
          "internalType": "uint256",
          "name": "proposalId",
          "type": "uint256"
        }
      ],
      "name": "executeProposal",
      "outputs": [],
      "stateMutability": "nonpayable",
      "type": "function"
    },
    {
      "inputs": [],
      "name": "getMinimumDepositForProposal",
      "outputs": [
        {
          "internalType": "uint256",
          "name": "",
          "type": "uint256"
        }
      ],
      "stateMutability": "pure",
      "type": "function"
    },
    {
      "inputs": [],
      "name": "getTreasuryBalance",
      "outputs": [
        {
          "internalType": "uint256",
          "name": "",
          "type": "uint256"
        }
      ],
      "stateMutability": "view",
      "type": "function"
    },
    {
      "inputs": [
        {
          "internalType": "address",
          "name": "user",
          "type": "address"
        }
      ],
      "name": "getUserDeposits",
      "outputs": [
        {
          "internalType": "uint256",
          "name": "",
          "type": "uint256"
        }
      ],
      "stateMutability": "view",
      "type": "function"
    },
    {
      "inputs": [],
      "name": "owner",
      "outputs": [
        {
          "internalType": "address",
          "name": "",
          "type": "address"
        }
      ],
      "stateMutability": "view",
      "type": "function"
    },
    {
      "inputs": [],
      "name": "proposalCount",
      "outputs": [
        {
          "internalType": "uint256",
          "name": "",
          "type": "uint256"
        }
      ],
      "stateMutability": "view",
      "type": "function"
    },
    {
      "inputs": [
        {
          "internalType": "uint256",
          "name": "",
          "type": "uint256"
        }
      ],
      "name": "proposals",
      "outputs": [
        {
          "internalType": "uint256",
          "name": "id",
          "type": "uint256"
        },
        {
          "internalType": "address",
          "name": "proposer",
          "type": "address"
        },
        {
          "internalType": "string",
          "name": "description",
          "type": "string"
        },
        {
          "internalType": "address",
          "name": "recipient",
          "type": "address"
        },
        {
          "internalType": "uint256",
          "name": "amount",
          "type": "uint256"
        },
        {
          "internalType": "uint256",
          "name": "startTime",
          "type": "uint256"
        },
        {
          "internalType": "uint256",
          "name": "endTime",
          "type": "uint256"
        },
        {
          "internalType": "uint256",
          "name": "forVotes",
          "type": "uint256"
        },
        {
          "internalType": "uint256",
          "name": "againstVotes",
          "type": "uint256"
        },
        {
          "internalType": "bool",
          "name": "executed",
          "type": "bool"
        },
        {
          "internalType": "bool",
          "name": "deleted",
          "type": "bool"
        }
      ],
      "stateMutability": "view",
      "type": "function"
    },
    {
      "inputs": [],
      "name": "renounceOwnership",
      "outputs": [],
      "stateMutability": "nonpayable",
      "type": "function"
    },
    {
      "inputs": [],
      "name": "token",
      "outputs": [
        {
          "internalType": "contract IERC20",
          "name": "",
          "type": "address"
        }
      ],
      "stateMutability": "view",
      "type": "function"
    },
    {
      "inputs": [
        {
          "internalType": "address",
          "name": "newOwner",
          "type": "address"
        }
      ],
      "name": "transferOwnership",
      "outputs": [],
      "stateMutability": "nonpayable",
      "type": "function"
    },
    {
      "inputs": [
        {
          "internalType": "address",
          "name": "",
          "type": "address"
        }
      ],
      "name": "userDeposits",
      "outputs": [
        {
          "internalType": "uint256",
          "name": "",
          "type": "uint256"
        }
      ],
      "stateMutability": "view",
      "type": "function"
    },
    {
      "inputs": [
        {
          "internalType": "uint256",
          "name": "proposalId",
          "type": "uint256"
        },
        {
          "internalType": "bool",
          "name": "support",
          "type": "bool"
        }
      ],
      "name": "vote",
      "outputs": [],
      "stateMutability": "nonpayable",
      "type": "function"
    }
  ],
  "bytecode": "0x608060405234801561001057600080fd5b50604051612cc1380380612cc183398181016040528101906100329190610223565b33600073ffffffffffffffffffffffffffffffffffffffff168173ffffffffffffffffffffffffffffffffffffffff16036100a55760006040517f1e4fbdf700000000000000000000000000000000000000000000000000000000815260040161009c919061025f565b60405180910390fd5b6100b4816100fc60201b60201c565b5080600160006101000a81548173ffffffffffffffffffffffffffffffffffffffff021916908373ffffffffffffffffffffffffffffffffffffffff1602179055505061027a565b60008060009054906101000a900473ffffffffffffffffffffffffffffffffffffffff169050816000806101000a81548173ffffffffffffffffffffffffffffffffffffffff021916908373ffffffffffffffffffffffffffffffffffffffff1602179055508173ffffffffffffffffffffffffffffffffffffffff168173ffffffffffffffffffffffffffffffffffffffff167f8be0079c531659141344cd1fd0a4f28419497f9722a3daafe3b4186f6b6457e060405160405180910390a35050565b600080fd5b600073ffffffffffffffffffffffffffffffffffffffff82169050919050565b60006101f0826101c5565b9050919050565b610200816101e5565b811461020b57600080fd5b50565b60008151905061021d816101f7565b92915050565b600060208284031215610239576102386101c0565b5b60006102478482850161020e565b91505092915050565b610259816101e5565b82525050565b60006020820190506102746000830184610250565b92915050565b612a38806102896000396000f3fe608060405234801561001057600080fd5b50600436106101215760003560e01c80639b5655dc116100ad578063da35c66411610071578063da35c664146102ea578063e0c44e7614610308578063e9b01f8e14610326578063f2fde38b14610344578063fc0c546a1461036057610121565b80639b5655dc14610258578063b1610d7e14610276578063b6b55f2514610294578063c9d27afe146102b0578063cf76e8e1146102cc57610121565b8063715018a6116100f4578063715018a6146101dc5780638259d553146101e6578063831c43ac146102025780638743dae61461021e5780638da5cb5b1461023a57610121565b8063013cf08b146101265780630ba36dcd146101605780630d61b519146101905780632a5bf6d2146101ac575b600080fd5b610140600480360381019061013b9190611780565b61037e565b6040516101579b9a999897969594939291906118a8565b60405180910390f35b61017a60048036038101906101759190611986565b6104ba565b60405161018791906119b3565b60405180910390f35b6101aa60048036038101906101a59190611780565b6104d2565b005b6101c660048036038101906101c19190611986565b6108d0565b6040516101d391906119b3565b60405180910390f35b6101e4610919565b005b61020060048036038101906101fb9190611780565b61092d565b005b61021c60048036038101906102179190611b03565b610a85565b005b61023860048036038101906102339190611b72565b610a98565b005b610242610e8d565b60405161024f9190611bf5565b60405180910390f35b610260610eb6565b60405161026d91906119b3565b60405180910390f35b61027e610f59565b60405161028b91906119b3565b60405180910390f35b6102ae60048036038101906102a99190611780565b610f60565b005b6102ca60048036038101906102c59190611c3c565b61112b565b005b6102d4611504565b6040516102e191906119b3565b60405180910390f35b6102f2611512565b6040516102ff91906119b3565b60405180910390f35b610310611518565b60405161031d91906119b3565b60405180910390f35b61032e611525565b60405161033b91906119b3565b60405180910390f35b61035e60048036038101906103599190611986565b611537565b005b6103686115bd565b6040516103759190611cdb565b60405180910390f35b60036020528060005260406000206000915090508060000154908060010160009054906101000a900473ffffffffffffffffffffffffffffffffffffffff16908060020180546103cd90611d25565b80601f01602080910402602001604051908101604052809291908181526020018280546103f990611d25565b80156104465780601f1061041b57610100808354040283529160200191610446565b820191906000526020600020905b81548152906001019060200180831161042957829003601f168201915b5050505050908060030160009054906101000a900473ffffffffffffffffffffffffffffffffffffffff16908060040154908060050154908060060154908060070154908060080154908060090160009054906101000a900460ff16908060090160019054906101000a900460ff1690508b565b60046020528060005260406000206000915090505481565b60006003600083815260200190815260200160002090506000816000015403610530576040517f08c379a000000000000000000000000000000000000000000000000000000000815260040161052790611da2565b60405180910390fd5b8060090160019054906101000a900460ff1615610582576040517f08c379a000000000000000000000000000000000000000000000000000000000815260040161057990611e0e565b60405180910390fd5b806006015442116105c8576040517f08c379a00000000000000000000000000000000000000000000000000000000081526004016105bf90611e7a565b60405180910390fd5b8060090160009054906101000a900460ff161561061a576040517f08c379a000000000000000000000000000000000000000000000000000000000815260040161061190611ee6565b60405180910390fd5b8060080154816007015411610664576040517f08c379a000000000000000000000000000000000000000000000000000000000815260040161065b90611f52565b60405180910390fd5b8060040154600160009054906101000a900473ffffffffffffffffffffffffffffffffffffffff1673ffffffffffffffffffffffffffffffffffffffff166370a08231306040518263ffffffff1660e01b81526004016106c49190611bf5565b602060405180830381865afa1580156106e1573d6000803e3d6000fd5b505050506040513d601f19601f820116820180604052508101906107059190611f87565b1015610746576040517f08c379a000000000000000000000000000000000000000000000000000000000815260040161073d90612000565b60405180910390fd5b60018160090160006101000a81548160ff021916908315150217905550600160009054906101000a900473ffffffffffffffffffffffffffffffffffffffff1673ffffffffffffffffffffffffffffffffffffffff1663a9059cbb8260030160009054906101000a900473ffffffffffffffffffffffffffffffffffffffff1683600401546040518363ffffffff1660e01b81526004016107e8929190612020565b6020604051808303816000875af1158015610807573d6000803e3d6000fd5b505050506040513d601f19601f8201168201806040525081019061082b919061205e565b61086a576040517f08c379a0000000000000000000000000000000000000000000000000000000008152600401610861906120d7565b60405180910390fd5b817f3b7c90df35b419337cff0919fe91849006607bb66c4373623f06f9d48c1ebb988260030160009054906101000a900473ffffffffffffffffffffffffffffffffffffffff1683600401546040516108c4929190612020565b60405180910390a25050565b6000600460008373ffffffffffffffffffffffffffffffffffffffff1673ffffffffffffffffffffffffffffffffffffffff168152602001908152602001600020549050919050565b6109216115e3565b61092b600061166a565b565b6109356115e3565b60006003600083815260200190815260200160002090506000816000015403610993576040517f08c379a000000000000000000000000000000000000000000000000000000000815260040161098a90611da2565b60405180910390fd5b8060090160009054906101000a900460ff16156109e5576040517f08c379a00000000000000000000000000000000000000000000000000000000081526004016109dc90612143565b60405180910390fd5b8060090160019054906101000a900460ff1615610a37576040517f08c379a0000000000000000000000000000000000000000000000000000000008152600401610a2e906121af565b60405180910390fd5b60018160090160016101000a81548160ff021916908315150217905550817f61c0d93dc2b610877e420b107c8d12e9185e46e04a505da758cc7f7329ae545f60405160405180910390a25050565b610a93838383612760610a98565b505050565b683635c9adc5dea00000600160009054906101000a900473ffffffffffffffffffffffffffffffffffffffff1673ffffffffffffffffffffffffffffffffffffffff166370a08231336040518263ffffffff1660e01b8152600401610afd9190611bf5565b602060405180830381865afa158015610b1a573d6000803e3d6000fd5b505050506040513d601f19601f82011682018060405250810190610b3e9190611f87565b1015610b7f576040517f08c379a0000000000000000000000000000000000000000000000000000000008152600401610b769061221b565b60405180910390fd5b69010f0cf064dd59200000600460003373ffffffffffffffffffffffffffffffffffffffff1673ffffffffffffffffffffffffffffffffffffffff168152602001908152602001600020541015610c0b576040517f08c379a0000000000000000000000000000000000000000000000000000000008152600401610c02906122ad565b60405180910390fd5b60008211610c4e576040517f08c379a0000000000000000000000000000000000000000000000000000000008152600401610c4590612319565b60405180910390fd5b600073ffffffffffffffffffffffffffffffffffffffff168373ffffffffffffffffffffffffffffffffffffffff1603610cbd576040517f08c379a0000000000000000000000000000000000000000000000000000000008152600401610cb490612385565b60405180910390fd5b60008111610d00576040517f08c379a0000000000000000000000000000000000000000000000000000000008152600401610cf790612417565b60405180910390fd5b6000603c82610d0f9190612466565b905060026000815480929190610d24906124a8565b9190505550600060036000600254815260200190815260200160002090506002548160000181905550338160010160006101000a81548173ffffffffffffffffffffffffffffffffffffffff021916908373ffffffffffffffffffffffffffffffffffffffff16021790555085816002019081610da19190612692565b50848160030160006101000a81548173ffffffffffffffffffffffffffffffffffffffff021916908373ffffffffffffffffffffffffffffffffffffffff1602179055508381600401819055504281600501819055508142610e039190612764565b816006018190555060008160090160006101000a81548160ff02191690831515021790555060008160090160016101000a81548160ff0219169083151502179055506002547f36ef39b15ae87208645c010139b1c8b7b25a358bb68989fefcc82b1e0754bcbd33888888604051610e7d9493929190612798565b60405180910390a2505050505050565b60008060009054906101000a900473ffffffffffffffffffffffffffffffffffffffff16905090565b6000600160009054906101000a900473ffffffffffffffffffffffffffffffffffffffff1673ffffffffffffffffffffffffffffffffffffffff166370a08231306040518263ffffffff1660e01b8152600401610f139190611bf5565b602060405180830381865afa158015610f30573d6000803e3d6000fd5b505050506040513d601f19601f82011682018060405250810190610f549190611f87565b905090565b62093a8081565b60008111610fa3576040517f08c379a0000000000000000000000000000000000000000000000000000000008152600401610f9a90612319565b60405180910390fd5b600160009054906101000a900473ffffffffffffffffffffffffffffffffffffffff1673ffffffffffffffffffffffffffffffffffffffff166323b872dd3330846040518463ffffffff1660e01b8152600401611002939291906127e4565b6020604051808303816000875af1158015611021573d6000803e3d6000fd5b505050506040513d601f19601f82011682018060405250810190611045919061205e565b611084576040517f08c379a000000000000000000000000000000000000000000000000000000000815260040161107b906120d7565b60405180910390fd5b80600460003373ffffffffffffffffffffffffffffffffffffffff1673ffffffffffffffffffffffffffffffffffffffff16815260200190815260200160002060008282546110d39190612764565b925050819055503373ffffffffffffffffffffffffffffffffffffffff167f2da466a7b24304f47e87fa2e1e5a81b9831ce54fec19055ce277ca2f39ba42c48260405161112091906119b3565b60405180910390a250565b60006003600084815260200190815260200160002090506000816000015403611189576040517f08c379a000000000000000000000000000000000000000000000000000000000815260040161118090611da2565b60405180910390fd5b8060090160019054906101000a900460ff16156111db576040517f08c379a00000000000000000000000000000000000000000000000000000000081526004016111d290611e0e565b60405180910390fd5b8060060154421115611222576040517f08c379a000000000000000000000000000000000000000000000000000000000815260040161121990612867565b60405180910390fd5b80600a0160003373ffffffffffffffffffffffffffffffffffffffff1673ffffffffffffffffffffffffffffffffffffffff16815260200190815260200160002060009054906101000a900460ff16156112b1576040517f08c379a00000000000000000000000000000000000000000000000000000000081526004016112a8906128d3565b60405180910390fd5b8060010160009054906101000a900473ffffffffffffffffffffffffffffffffffffffff1673ffffffffffffffffffffffffffffffffffffffff163373ffffffffffffffffffffffffffffffffffffffff1603611343576040517f08c379a000000000000000000000000000000000000000000000000000000000815260040161133a9061293f565b60405180910390fd5b6000600160009054906101000a900473ffffffffffffffffffffffffffffffffffffffff1673ffffffffffffffffffffffffffffffffffffffff166370a08231336040518263ffffffff1660e01b81526004016113a09190611bf5565b602060405180830381865afa1580156113bd573d6000803e3d6000fd5b505050506040513d601f19601f820116820180604052508101906113e19190611f87565b905060008111611426576040517f08c379a000000000000000000000000000000000000000000000000000000000815260040161141d906129ab565b60405180910390fd5b600182600a0160003373ffffffffffffffffffffffffffffffffffffffff1673ffffffffffffffffffffffffffffffffffffffff16815260200190815260200160002060006101000a81548160ff02191690831515021790555082156114a6578082600701600082825461149a9190612764565b925050819055506114c2565b808260080160008282546114ba9190612764565b925050819055505b837f7c2de587c00d75474a0c6c6fa96fd3b45dc974cd4e8a75f712bb84c950dce1b53385846040516114f6939291906129cb565b60405180910390a250505050565b69010f0cf064dd5920000081565b60025481565b683635c9adc5dea0000081565b600069010f0cf064dd59200000905090565b61153f6115e3565b600073ffffffffffffffffffffffffffffffffffffffff168173ffffffffffffffffffffffffffffffffffffffff16036115b15760006040517f1e4fbdf70000000000000000000000000000000000000000000000000000000081526004016115a89190611bf5565b60405180910390fd5b6115ba8161166a565b50565b600160009054906101000a900473ffffffffffffffffffffffffffffffffffffffff1681565b6115eb61172e565b73ffffffffffffffffffffffffffffffffffffffff16611609610e8d565b73ffffffffffffffffffffffffffffffffffffffff16146116685761162c61172e565b6040517f118cdaa700000000000000000000000000000000000000000000000000000000815260040161165f9190611bf5565b60405180910390fd5b565b60008060009054906101000a900473ffffffffffffffffffffffffffffffffffffffff169050816000806101000a81548173ffffffffffffffffffffffffffffffffffffffff021916908373ffffffffffffffffffffffffffffffffffffffff1602179055508173ffffffffffffffffffffffffffffffffffffffff168173ffffffffffffffffffffffffffffffffffffffff167f8be0079c531659141344cd1fd0a4f28419497f9722a3daafe3b4186f6b6457e060405160405180910390a35050565b600033905090565b6000604051905090565b600080fd5b600080fd5b6000819050919050565b61175d8161174a565b811461176857600080fd5b50565b60008135905061177a81611754565b92915050565b60006020828403121561179657611795611740565b5b60006117a48482850161176b565b91505092915050565b6117b68161174a565b82525050565b600073ffffffffffffffffffffffffffffffffffffffff82169050919050565b60006117e7826117bc565b9050919050565b6117f7816117dc565b82525050565b600081519050919050565b600082825260208201905092915050565b60005b8381101561183757808201518184015260208101905061181c565b60008484015250505050565b6000601f19601f8301169050919050565b600061185f826117fd565b6118698185611808565b9350611879818560208601611819565b61188281611843565b840191505092915050565b60008115159050919050565b6118a28161188d565b82525050565b6000610160820190506118be600083018e6117ad565b6118cb602083018d6117ee565b81810360408301526118dd818c611854565b90506118ec606083018b6117ee565b6118f9608083018a6117ad565b61190660a08301896117ad565b61191360c08301886117ad565b61192060e08301876117ad565b61192e6101008301866117ad565b61193c610120830185611899565b61194a610140830184611899565b9c9b505050505050505050505050565b611963816117dc565b811461196e57600080fd5b50565b6000813590506119808161195a565b92915050565b60006020828403121561199c5761199b611740565b5b60006119aa84828501611971565b91505092915050565b60006020820190506119c860008301846117ad565b92915050565b600080fd5b600080fd5b7f4e487b7100000000000000000000000000000000000000000000000000000000600052604160045260246000fd5b611a1082611843565b810181811067ffffffffffffffff82111715611a2f57611a2e6119d8565b5b80604052505050565b6000611a42611736565b9050611a4e8282611a07565b919050565b600067ffffffffffffffff821115611a6e57611a6d6119d8565b5b611a7782611843565b9050602081019050919050565b82818337600083830152505050565b6000611aa6611aa184611a53565b611a38565b905082815260208101848484011115611ac257611ac16119d3565b5b611acd848285611a84565b509392505050565b600082601f830112611aea57611ae96119ce565b5b8135611afa848260208601611a93565b91505092915050565b600080600060608486031215611b1c57611b1b611740565b5b600084013567ffffffffffffffff811115611b3a57611b39611745565b5b611b4686828701611ad5565b9350506020611b5786828701611971565b9250506040611b688682870161176b565b9150509250925092565b60008060008060808587031215611b8c57611b8b611740565b5b600085013567ffffffffffffffff811115611baa57611ba9611745565b5b611bb687828801611ad5565b9450506020611bc787828801611971565b9350506040611bd88782880161176b565b9250506060611be98782880161176b565b91505092959194509250565b6000602082019050611c0a60008301846117ee565b92915050565b611c198161188d565b8114611c2457600080fd5b50565b600081359050611c3681611c10565b92915050565b60008060408385031215611c5357611c52611740565b5b6000611c618582860161176b565b9250506020611c7285828601611c27565b9150509250929050565b6000819050919050565b6000611ca1611c9c611c97846117bc565b611c7c565b6117bc565b9050919050565b6000611cb382611c86565b9050919050565b6000611cc582611ca8565b9050919050565b611cd581611cba565b82525050565b6000602082019050611cf06000830184611ccc565b92915050565b7f4e487b7100000000000000000000000000000000000000000000000000000000600052602260045260246000fd5b60006002820490506001821680611d3d57607f821691505b602082108103611d5057611d4f611cf6565b5b50919050565b7f50726f706f73616c20646f6573206e6f74206578697374000000000000000000600082015250565b6000611d8c601783611808565b9150611d9782611d56565b602082019050919050565b60006020820190508181036000830152611dbb81611d7f565b9050919050565b7f50726f706f73616c20686173206265656e2064656c6574656400000000000000600082015250565b6000611df8601983611808565b9150611e0382611dc2565b602082019050919050565b60006020820190508181036000830152611e2781611deb565b9050919050565b7f566f74696e6720706572696f64206e6f7420656e646564000000000000000000600082015250565b6000611e64601783611808565b9150611e6f82611e2e565b602082019050919050565b60006020820190508181036000830152611e9381611e57565b9050919050565b7f50726f706f73616c20616c726561647920657865637574656400000000000000600082015250565b6000611ed0601983611808565b9150611edb82611e9a565b602082019050919050565b60006020820190508181036000830152611eff81611ec3565b9050919050565b7f50726f706f73616c206e6f7420617070726f7665640000000000000000000000600082015250565b6000611f3c601583611808565b9150611f4782611f06565b602082019050919050565b60006020820190508181036000830152611f6b81611f2f565b9050919050565b600081519050611f8181611754565b92915050565b600060208284031215611f9d57611f9c611740565b5b6000611fab84828501611f72565b91505092915050565b7f496e73756666696369656e742074726561737572792062616c616e6365000000600082015250565b6000611fea601d83611808565b9150611ff582611fb4565b602082019050919050565b6000602082019050818103600083015261201981611fdd565b9050919050565b600060408201905061203560008301856117ee565b61204260208301846117ad565b9392505050565b60008151905061205881611c10565b92915050565b60006020828403121561207457612073611740565b5b600061208284828501612049565b91505092915050565b7f5472616e73666572206661696c65640000000000000000000000000000000000600082015250565b60006120c1600f83611808565b91506120cc8261208b565b602082019050919050565b600060208201905081810360008301526120f0816120b4565b9050919050565b7f43616e6e6f742064656c6574652065786563757465642070726f706f73616c00600082015250565b600061212d601f83611808565b9150612138826120f7565b602082019050919050565b6000602082019050818103600083015261215c81612120565b9050919050565b7f50726f706f73616c20616c72656164792064656c657465640000000000000000600082015250565b6000612199601883611808565b91506121a482612163565b602082019050919050565b600060208201905081810360008301526121c88161218c565b9050919050565b7f496e73756666696369656e7420746f6b656e7320746f20766f74650000000000600082015250565b6000612205601b83611808565b9150612210826121cf565b602082019050919050565b60006020820190508181036000830152612234816121f8565b9050919050565b7f4d757374206465706f736974206174206c6561737420353030302044544b207460008201527f6f206372656174652070726f706f73616c730000000000000000000000000000602082015250565b6000612297603283611808565b91506122a28261223b565b604082019050919050565b600060208201905081810360008301526122c68161228a565b9050919050565b7f416d6f756e74206d7573742062652067726561746572207468616e2030000000600082015250565b6000612303601d83611808565b915061230e826122cd565b602082019050919050565b60006020820190508181036000830152612332816122f6565b9050919050565b7f496e76616c696420726563697069656e74000000000000000000000000000000600082015250565b600061236f601183611808565b915061237a82612339565b602082019050919050565b6000602082019050818103600083015261239e81612362565b9050919050565b7f566f74696e67206475726174696f6e206d75737420626520677265617465722060008201527f7468616e20300000000000000000000000000000000000000000000000000000602082015250565b6000612401602683611808565b915061240c826123a5565b604082019050919050565b60006020820190508181036000830152612430816123f4565b9050919050565b7f4e487b7100000000000000000000000000000000000000000000000000000000600052601160045260246000fd5b60006124718261174a565b915061247c8361174a565b925082820261248a8161174a565b915082820484148315176124a1576124a0612437565b5b5092915050565b60006124b38261174a565b91507fffffffffffffffffffffffffffffffffffffffffffffffffffffffffffffffff82036124e5576124e4612437565b5b600182019050919050565b60008190508160005260206000209050919050565b60006020601f8301049050919050565b600082821b905092915050565b6000600883026125527fffffffffffffffffffffffffffffffffffffffffffffffffffffffffffffffff82612515565b61255c8683612515565b95508019841693508086168417925050509392505050565b600061258f61258a6125858461174a565b611c7c565b61174a565b9050919050565b6000819050919050565b6125a983612574565b6125bd6125b582612596565b848454612522565b825550505050565b600090565b6125d26125c5565b6125dd8184846125a0565b505050565b5b81811015612601576125f66000826125ca565b6001810190506125e3565b5050565b601f82111561264657612617816124f0565b61262084612505565b8101602085101561262f578190505b61264361263b85612505565b8301826125e2565b50505b505050565b600082821c905092915050565b60006126696000198460080261264b565b1980831691505092915050565b60006126828383612658565b9150826002028217905092915050565b61269b826117fd565b67ffffffffffffffff8111156126b4576126b36119d8565b5b6126be8254611d25565b6126c9828285612605565b600060209050601f8311600181146126fc57600084156126ea578287015190505b6126f48582612676565b86555061275c565b601f19841661270a866124f0565b60005b828110156127325784890151825560018201915060208501945060208101905061270d565b8683101561274f578489015161274b601f891682612658565b8355505b6001600288020188555050505b505050505050565b600061276f8261174a565b915061277a8361174a565b925082820190508082111561279257612791612437565b5b92915050565b60006080820190506127ad60008301876117ee565b81810360208301526127bf8186611854565b90506127ce60408301856117ee565b6127db60608301846117ad565b95945050505050565b60006060820190506127f960008301866117ee565b61280660208301856117ee565b61281360408301846117ad565b949350505050565b7f566f74696e6720706572696f6420656e64656400000000000000000000000000600082015250565b6000612851601383611808565b915061285c8261281b565b602082019050919050565b6000602082019050818103600083015261288081612844565b9050919050565b7f416c726561647920766f74656400000000000000000000000000000000000000600082015250565b60006128bd600d83611808565b91506128c882612887565b602082019050919050565b600060208201905081810360008301526128ec816128b0565b9050919050565b7f43616e6e6f7420766f7465206f6e206f776e2070726f706f73616c0000000000600082015250565b6000612929601b83611808565b9150612934826128f3565b602082019050919050565b600060208201905081810360008301526129588161291c565b9050919050565b7f4e6f20746f6b656e7320746f20766f7465000000000000000000000000000000600082015250565b6000612995601183611808565b91506129a08261295f565b602082019050919050565b600060208201905081810360008301526129c481612988565b9050919050565b60006060820190506129e060008301866117ee565b6129ed6020830185611899565b6129fa60408301846117ad565b94935050505056fea26469706673582212206b484285618452640896c1a91dfbfbc5ddd077bf3b0b5c4084a2d0e5dd9555de64736f6c634300081c0033",
  "linkReferences": {},
  "deployedLinkReferences": {}
}